{"abi":[{"inputs":[{"internalType":"uint256","name":"_minimumContribution","type":"uint256"},{"internalType":"address","name":"_manager","type":"address"}],"stateMutability":"nonpayable","type":"constructor"},{"inputs":[{"internalType":"uint256","name":"requestNumber","type":"uint256"}],"name":"approveRequest","outputs":[],"stateMutability":"nonpayable","type":"function"},{"inputs":[{"internalType":"address","name":"","type":"address"}],"name":"approvers","outputs":[{"internalType":"bool","name":"","type":"bool"}],"stateMutability":"view","type":"function"},{"inputs":[],"name":"approversCount","outputs":[{"internalType":"uint256","name":"","type":"uint256"}],"stateMutability":"view","type":"function"},{"inputs":[{"internalType":"string","name":"_description","type":"string"},{"internalType":"uint256","name":"_value","type":"uint256"},{"internalType":"address","name":"_recipient","type":"address"}],"name":"createRequest","outputs":[],"stateMutability":"nonpayable","type":"function"},{"inputs":[{"internalType":"uint256","name":"requestNumber","type":"uint256"}],"name":"finalizeRequest","outputs":[],"stateMutability":"nonpayable","type":"function"},{"inputs":[],"name":"getTotalFunds","outputs":[{"internalType":"uint256","name":"","type":"uint256"}],"stateMutability":"view","type":"function"},{"inputs":[],"name":"manager","outputs":[{"internalType":"address","name":"","type":"address"}],"stateMutability":"view","type":"function"},{"inputs":[],"name":"minimumContribution","outputs":[{"internalType":"uint256","name":"","type":"uint256"}],"stateMutability":"view","type":"function"},{"inputs":[],"name":"numOfRequests","outputs":[{"internalType":"uint256","name":"","type":"uint256"}],"stateMutability":"view","type":"function"},{"inputs":[{"internalType":"uint256","name":"","type":"uint256"}],"name":"requests","outputs":[{"internalType":"string","name":"description","type":"string"},{"internalType":"uint256","name":"value","type":"uint256"},{"internalType":"address payable","name":"recipient","type":"address"},{"internalType":"bool","name":"completed","type":"bool"},{"internalType":"uint256","name":"approvalCount","type":"uint256"}],"stateMutability":"view","type":"function"},{"stateMutability":"payable","type":"receive"}],"devdoc":{"kind":"dev","methods":{},"version":1},"evm":{"assembly":"    /* \"Campaign.sol\":470:3148  contract Campaign {... */\n  mstore(0x40, 0x80)\n    /* \"Campaign.sol\":1061:1208  constructor(uint256 _minimumContribution, address _manager) {... */\n  callvalue\n  dup1\n  iszero\n  tag_1\n  jumpi\n  0x00\n  dup1\n  revert\ntag_1:\n  pop\n  mload(0x40)\n  sub(codesize, bytecodeSize)\n  dup1\n  bytecodeSize\n  dup4\n  codecopy\n  dup2\n  dup2\n  add\n  0x40\n  mstore\n  dup2\n  add\n  swap1\n  tag_2\n  swap2\n  swap1\n  tag_3\n  jump\t// in\ntag_2:\n    /* \"Campaign.sol\":1141:1149  _manager */\n  dup1\n    /* \"Campaign.sol\":1131:1138  manager */\n  0x02\n  0x00\n    /* \"Campaign.sol\":1131:1149  manager = _manager */\n  0x0100\n  exp\n  dup2\n  sload\n  dup2\n  0xffffffffffffffffffffffffffffffffffffffff\n  mul\n  not\n  and\n  swap1\n  dup4\n  0xffffffffffffffffffffffffffffffffffffffff\n  and\n  mul\n  or\n  swap1\n  sstore\n  pop\n    /* \"Campaign.sol\":1181:1201  _minimumContribution */\n  dup2\n    /* \"Campaign.sol\":1159:1178  minimumContribution */\n  0x03\n    /* \"Campaign.sol\":1159:1201  minimumContribution = _minimumContribution */\n  dup2\n  swap1\n  sstore\n  pop\n    /* \"Campaign.sol\":1061:1208  constructor(uint256 _minimumContribution, address _manager) {... */\n  pop\n  pop\n    /* \"Campaign.sol\":470:3148  contract Campaign {... */\n  jump(tag_6)\n    /* \"#utility.yul\":7:150   */\ntag_8:\n    /* \"#utility.yul\":64:69   */\n  0x00\n    /* \"#utility.yul\":95:101   */\n  dup2\n    /* \"#utility.yul\":89:102   */\n  mload\n    /* \"#utility.yul\":80:102   */\n  swap1\n  pop\n    /* \"#utility.yul\":111:144   */\n  tag_10\n    /* \"#utility.yul\":138:143   */\n  dup2\n    /* \"#utility.yul\":111:144   */\n  tag_11\n  jump\t// in\ntag_10:\n    /* \"#utility.yul\":70:150   */\n  swap3\n  swap2\n  pop\n  pop\n  jump\t// out\n    /* \"#utility.yul\":156:299   */\ntag_12:\n    /* \"#utility.yul\":213:218   */\n  0x00\n    /* \"#utility.yul\":244:250   */\n  dup2\n    /* \"#utility.yul\":238:251   */\n  mload\n    /* \"#utility.yul\":229:251   */\n  swap1\n  pop\n    /* \"#utility.yul\":260:293   */\n  tag_14\n    /* \"#utility.yul\":287:292   */\n  dup2\n    /* \"#utility.yul\":260:293   */\n  tag_15\n  jump\t// in\ntag_14:\n    /* \"#utility.yul\":219:299   */\n  swap3\n  swap2\n  pop\n  pop\n  jump\t// out\n    /* \"#utility.yul\":305:812   */\ntag_3:\n    /* \"#utility.yul\":384:390   */\n  0x00\n    /* \"#utility.yul\":392:398   */\n  dup1\n    /* \"#utility.yul\":441:443   */\n  0x40\n    /* \"#utility.yul\":429:438   */\n  dup4\n    /* \"#utility.yul\":420:427   */\n  dup6\n    /* \"#utility.yul\":416:439   */\n  sub\n    /* \"#utility.yul\":412:444   */\n  slt\n    /* \"#utility.yul\":409:411   */\n  iszero\n  tag_17\n  jumpi\n    /* \"#utility.yul\":447:526   */\n  tag_18\n  tag_19\n  jump\t// in\ntag_18:\n    /* \"#utility.yul\":409:411   */\ntag_17:\n    /* \"#utility.yul\":567:568   */\n  0x00\n    /* \"#utility.yul\":592:656   */\n  tag_20\n    /* \"#utility.yul\":648:655   */\n  dup6\n    /* \"#utility.yul\":639:645   */\n  dup3\n    /* \"#utility.yul\":628:637   */\n  dup7\n    /* \"#utility.yul\":624:646   */\n  add\n    /* \"#utility.yul\":592:656   */\n  tag_12\n  jump\t// in\ntag_20:\n    /* \"#utility.yul\":582:656   */\n  swap3\n  pop\n    /* \"#utility.yul\":538:666   */\n  pop\n    /* \"#utility.yul\":705:707   */\n  0x20\n    /* \"#utility.yul\":731:795   */\n  tag_21\n    /* \"#utility.yul\":787:794   */\n  dup6\n    /* \"#utility.yul\":778:784   */\n  dup3\n    /* \"#utility.yul\":767:776   */\n  dup7\n    /* \"#utility.yul\":763:785   */\n  add\n    /* \"#utility.yul\":731:795   */\n  tag_8\n  jump\t// in\ntag_21:\n    /* \"#utility.yul\":721:795   */\n  swap2\n  pop\n    /* \"#utility.yul\":676:805   */\n  pop\n    /* \"#utility.yul\":399:812   */\n  swap3\n  pop\n  swap3\n  swap1\n  pop\n  jump\t// out\n    /* \"#utility.yul\":899:995   */\ntag_24:\n    /* \"#utility.yul\":936:943   */\n  0x00\n    /* \"#utility.yul\":965:989   */\n  tag_26\n    /* \"#utility.yul\":983:988   */\n  dup3\n    /* \"#utility.yul\":965:989   */\n  tag_27\n  jump\t// in\ntag_26:\n    /* \"#utility.yul\":954:989   */\n  swap1\n  pop\n    /* \"#utility.yul\":944:995   */\n  swap2\n  swap1\n  pop\n  jump\t// out\n    /* \"#utility.yul\":1001:1127   */\ntag_27:\n    /* \"#utility.yul\":1038:1045   */\n  0x00\n    /* \"#utility.yul\":1078:1120   */\n  0xffffffffffffffffffffffffffffffffffffffff\n    /* \"#utility.yul\":1071:1076   */\n  dup3\n    /* \"#utility.yul\":1067:1121   */\n  and\n    /* \"#utility.yul\":1056:1121   */\n  swap1\n  pop\n    /* \"#utility.yul\":1046:1127   */\n  swap2\n  swap1\n  pop\n  jump\t// out\n    /* \"#utility.yul\":1133:1210   */\ntag_29:\n    /* \"#utility.yul\":1170:1177   */\n  0x00\n    /* \"#utility.yul\":1199:1204   */\n  dup2\n    /* \"#utility.yul\":1188:1204   */\n  swap1\n  pop\n    /* \"#utility.yul\":1178:1210   */\n  swap2\n  swap1\n  pop\n  jump\t// out\n    /* \"#utility.yul\":1339:1456   */\ntag_19:\n    /* \"#utility.yul\":1448:1449   */\n  0x00\n    /* \"#utility.yul\":1445:1446   */\n  dup1\n    /* \"#utility.yul\":1438:1450   */\n  revert\n    /* \"#utility.yul\":1462:1584   */\ntag_11:\n    /* \"#utility.yul\":1535:1559   */\n  tag_35\n    /* \"#utility.yul\":1553:1558   */\n  dup2\n    /* \"#utility.yul\":1535:1559   */\n  tag_24\n  jump\t// in\ntag_35:\n    /* \"#utility.yul\":1528:1533   */\n  dup2\n    /* \"#utility.yul\":1525:1560   */\n  eq\n    /* \"#utility.yul\":1515:1517   */\n  tag_36\n  jumpi\n    /* \"#utility.yul\":1574:1575   */\n  0x00\n    /* \"#utility.yul\":1571:1572   */\n  dup1\n    /* \"#utility.yul\":1564:1576   */\n  revert\n    /* \"#utility.yul\":1515:1517   */\ntag_36:\n    /* \"#utility.yul\":1505:1584   */\n  pop\n  jump\t// out\n    /* \"#utility.yul\":1590:1712   */\ntag_15:\n    /* \"#utility.yul\":1663:1687   */\n  tag_38\n    /* \"#utility.yul\":1681:1686   */\n  dup2\n    /* \"#utility.yul\":1663:1687   */\n  tag_29\n  jump\t// in\ntag_38:\n    /* \"#utility.yul\":1656:1661   */\n  dup2\n    /* \"#utility.yul\":1653:1688   */\n  eq\n    /* \"#utility.yul\":1643:1645   */\n  tag_39\n  jumpi\n    /* \"#utility.yul\":1702:1703   */\n  0x00\n    /* \"#utility.yul\":1699:1700   */\n  dup1\n    /* \"#utility.yul\":1692:1704   */\n  revert\n    /* \"#utility.yul\":1643:1645   */\ntag_39:\n    /* \"#utility.yul\":1633:1712   */\n  pop\n  jump\t// out\n    /* \"Campaign.sol\":470:3148  contract Campaign {... */\ntag_6:\n  dataSize(sub_0)\n  dup1\n  dataOffset(sub_0)\n  0x00\n  codecopy\n  0x00\n  return\nstop\n\nsub_0: assembly {\n        /* \"Campaign.sol\":470:3148  contract Campaign {... */\n      mstore(0x40, 0x80)\n      jumpi(tag_1, lt(calldatasize, 0x04))\n      shr(0xe0, calldataload(0x00))\n      dup1\n      0x8a9cfd55\n      gt\n      tag_13\n      jumpi\n      dup1\n      0x8a9cfd55\n      eq\n      tag_8\n      jumpi\n      dup1\n      0x937e09b1\n      eq\n      tag_9\n      jumpi\n      dup1\n      0xb6290e76\n      eq\n      tag_10\n      jumpi\n      dup1\n      0xd7d1bbdb\n      eq\n      tag_11\n      jumpi\n      dup1\n      0xeb8bbd28\n      eq\n      tag_12\n      jumpi\n      jump(tag_2)\n    tag_13:\n      dup1\n      0x03441006\n      eq\n      tag_3\n      jumpi\n      dup1\n      0x0a144391\n      eq\n      tag_4\n      jumpi\n      dup1\n      0x481c6a75\n      eq\n      tag_5\n      jumpi\n      dup1\n      0x81d12c58\n      eq\n      tag_6\n      jumpi\n      dup1\n      0x82fde093\n      eq\n      tag_7\n      jumpi\n      jump(tag_2)\n    tag_1:\n      jumpi(tag_2, calldatasize)\n        /* \"Campaign.sol\":2911:2930  minimumContribution */\n      sload(0x03)\n        /* \"Campaign.sol\":2898:2907  msg.value */\n      callvalue\n        /* \"Campaign.sol\":2898:2930  msg.value >= minimumContribution */\n      lt\n      iszero\n        /* \"Campaign.sol\":2877:3019  require(... */\n      tag_16\n      jumpi\n      mload(0x40)\n      0x08c379a000000000000000000000000000000000000000000000000000000000\n      dup2\n      mstore\n      0x04\n      add\n      tag_17\n      swap1\n      tag_18\n      jump\t// in\n    tag_17:\n      mload(0x40)\n      dup1\n      swap2\n      sub\n      swap1\n      revert\n    tag_16:\n        /* \"Campaign.sol\":3034:3043  approvers */\n      0x05\n        /* \"Campaign.sol\":3034:3055  approvers[msg.sender] */\n      0x00\n        /* \"Campaign.sol\":3044:3054  msg.sender */\n      caller\n        /* \"Campaign.sol\":3034:3055  approvers[msg.sender] */\n      0xffffffffffffffffffffffffffffffffffffffff\n      and\n      0xffffffffffffffffffffffffffffffffffffffff\n      and\n      dup2\n      mstore\n      0x20\n      add\n      swap1\n      dup2\n      mstore\n      0x20\n      add\n      0x00\n      keccak256\n      0x00\n      swap1\n      sload\n      swap1\n      0x0100\n      exp\n      swap1\n      div\n      0xff\n      and\n        /* \"Campaign.sol\":3029:3140  if (!approvers[msg.sender]) {... */\n      tag_19\n      jumpi\n        /* \"Campaign.sol\":3095:3099  true */\n      0x01\n        /* \"Campaign.sol\":3071:3080  approvers */\n      0x05\n        /* \"Campaign.sol\":3071:3092  approvers[msg.sender] */\n      0x00\n        /* \"Campaign.sol\":3081:3091  msg.sender */\n      caller\n        /* \"Campaign.sol\":3071:3092  approvers[msg.sender] */\n      0xffffffffffffffffffffffffffffffffffffffff\n      and\n      0xffffffffffffffffffffffffffffffffffffffff\n      and\n      dup2\n      mstore\n      0x20\n      add\n      swap1\n      dup2\n      mstore\n      0x20\n      add\n      0x00\n      keccak256\n      0x00\n        /* \"Campaign.sol\":3071:3099  approvers[msg.sender] = true */\n      0x0100\n      exp\n      dup2\n      sload\n      dup2\n      0xff\n      mul\n      not\n      and\n      swap1\n      dup4\n      iszero\n      iszero\n      mul\n      or\n      swap1\n      sstore\n      pop\n        /* \"Campaign.sol\":3113:3127  approversCount */\n      0x04\n      0x00\n        /* \"Campaign.sol\":3113:3129  approversCount++ */\n      dup2\n      sload\n      dup1\n      swap3\n      swap2\n      swap1\n      tag_20\n      swap1\n      tag_21\n      jump\t// in\n    tag_20:\n      swap2\n      swap1\n      pop\n      sstore\n      pop\n        /* \"Campaign.sol\":3029:3140  if (!approvers[msg.sender]) {... */\n    tag_19:\n        /* \"Campaign.sol\":470:3148  contract Campaign {... */\n      stop\n    tag_2:\n      0x00\n      dup1\n      revert\n        /* \"Campaign.sol\":2213:2728  function finalizeRequest(uint256 requestNumber) public onlyManager {... */\n    tag_3:\n      callvalue\n      dup1\n      iszero\n      tag_22\n      jumpi\n      0x00\n      dup1\n      revert\n    tag_22:\n      pop\n      tag_23\n      0x04\n      dup1\n      calldatasize\n      sub\n      dup2\n      add\n      swap1\n      tag_24\n      swap2\n      swap1\n      tag_25\n      jump\t// in\n    tag_24:\n      tag_26\n      jump\t// in\n    tag_23:\n      stop\n        /* \"Campaign.sol\":896:937  mapping(address => bool) public approvers */\n    tag_4:\n      callvalue\n      dup1\n      iszero\n      tag_27\n      jumpi\n      0x00\n      dup1\n      revert\n    tag_27:\n      pop\n      tag_28\n      0x04\n      dup1\n      calldatasize\n      sub\n      dup2\n      add\n      swap1\n      tag_29\n      swap2\n      swap1\n      tag_30\n      jump\t// in\n    tag_29:\n      tag_31\n      jump\t// in\n    tag_28:\n      mload(0x40)\n      tag_32\n      swap2\n      swap1\n      tag_33\n      jump\t// in\n    tag_32:\n      mload(0x40)\n      dup1\n      swap2\n      sub\n      swap1\n      return\n        /* \"Campaign.sol\":791:813  address public manager */\n    tag_5:\n      callvalue\n      dup1\n      iszero\n      tag_34\n      jumpi\n      0x00\n      dup1\n      revert\n    tag_34:\n      pop\n      tag_35\n      tag_36\n      jump\t// in\n    tag_35:\n      mload(0x40)\n      tag_37\n      swap2\n      swap1\n      tag_38\n      jump\t// in\n    tag_37:\n      mload(0x40)\n      dup1\n      swap2\n      sub\n      swap1\n      return\n        /* \"Campaign.sol\":741:784  mapping(uint256 => Request) public requests */\n    tag_6:\n      callvalue\n      dup1\n      iszero\n      tag_39\n      jumpi\n      0x00\n      dup1\n      revert\n    tag_39:\n      pop\n      tag_40\n      0x04\n      dup1\n      calldatasize\n      sub\n      dup2\n      add\n      swap1\n      tag_41\n      swap2\n      swap1\n      tag_25\n      jump\t// in\n    tag_41:\n      tag_42\n      jump\t// in\n    tag_40:\n      mload(0x40)\n      tag_43\n      swap6\n      swap5\n      swap4\n      swap3\n      swap2\n      swap1\n      tag_44\n      jump\t// in\n    tag_43:\n      mload(0x40)\n      dup1\n      swap2\n      sub\n      swap1\n      return\n        /* \"Campaign.sol\":861:890  uint256 public approversCount */\n    tag_7:\n      callvalue\n      dup1\n      iszero\n      tag_45\n      jumpi\n      0x00\n      dup1\n      revert\n    tag_45:\n      pop\n      tag_46\n      tag_47\n      jump\t// in\n    tag_46:\n      mload(0x40)\n      tag_48\n      swap2\n      swap1\n      tag_49\n      jump\t// in\n    tag_48:\n      mload(0x40)\n      dup1\n      swap2\n      sub\n      swap1\n      return\n        /* \"Campaign.sol\":1214:1631  function createRequest(... */\n    tag_8:\n      callvalue\n      dup1\n      iszero\n      tag_50\n      jumpi\n      0x00\n      dup1\n      revert\n    tag_50:\n      pop\n      tag_51\n      0x04\n      dup1\n      calldatasize\n      sub\n      dup2\n      add\n      swap1\n      tag_52\n      swap2\n      swap1\n      tag_53\n      jump\t// in\n    tag_52:\n      tag_54\n      jump\t// in\n    tag_51:\n      stop\n        /* \"Campaign.sol\":820:854  uint256 public minimumContribution */\n    tag_9:\n      callvalue\n      dup1\n      iszero\n      tag_55\n      jumpi\n      0x00\n      dup1\n      revert\n    tag_55:\n      pop\n      tag_56\n      tag_57\n      jump\t// in\n    tag_56:\n      mload(0x40)\n      tag_58\n      swap2\n      swap1\n      tag_49\n      jump\t// in\n    tag_58:\n      mload(0x40)\n      dup1\n      swap2\n      sub\n      swap1\n      return\n        /* \"Campaign.sol\":707:735  uint256 public numOfRequests */\n    tag_10:\n      callvalue\n      dup1\n      iszero\n      tag_59\n      jumpi\n      0x00\n      dup1\n      revert\n    tag_59:\n      pop\n      tag_60\n      tag_61\n      jump\t// in\n    tag_60:\n      mload(0x40)\n      tag_62\n      swap2\n      swap1\n      tag_49\n      jump\t// in\n    tag_62:\n      mload(0x40)\n      dup1\n      swap2\n      sub\n      swap1\n      return\n        /* \"Campaign.sol\":1637:2207  function approveRequest(uint256 requestNumber) public {... */\n    tag_11:\n      callvalue\n      dup1\n      iszero\n      tag_63\n      jumpi\n      0x00\n      dup1\n      revert\n    tag_63:\n      pop\n      tag_64\n      0x04\n      dup1\n      calldatasize\n      sub\n      dup2\n      add\n      swap1\n      tag_65\n      swap2\n      swap1\n      tag_25\n      jump\t// in\n    tag_65:\n      tag_66\n      jump\t// in\n    tag_64:\n      stop\n        /* \"Campaign.sol\":2734:2834  function getTotalFunds() public view returns (uint256) {... */\n    tag_12:\n      callvalue\n      dup1\n      iszero\n      tag_67\n      jumpi\n      0x00\n      dup1\n      revert\n    tag_67:\n      pop\n      tag_68\n      tag_69\n      jump\t// in\n    tag_68:\n      mload(0x40)\n      tag_70\n      swap2\n      swap1\n      tag_49\n      jump\t// in\n    tag_70:\n      mload(0x40)\n      dup1\n      swap2\n      sub\n      swap1\n      return\n        /* \"Campaign.sol\":2213:2728  function finalizeRequest(uint256 requestNumber) public onlyManager {... */\n    tag_26:\n        /* \"Campaign.sol\":999:1006  manager */\n      0x02\n      0x00\n      swap1\n      sload\n      swap1\n      0x0100\n      exp\n      swap1\n      div\n      0xffffffffffffffffffffffffffffffffffffffff\n      and\n        /* \"Campaign.sol\":985:1006  msg.sender == manager */\n      0xffffffffffffffffffffffffffffffffffffffff\n      and\n        /* \"Campaign.sol\":985:995  msg.sender */\n      caller\n        /* \"Campaign.sol\":985:1006  msg.sender == manager */\n      0xffffffffffffffffffffffffffffffffffffffff\n      and\n      eq\n        /* \"Campaign.sol\":977:1037  require(msg.sender == manager, \"Only manager is authorized\") */\n      tag_72\n      jumpi\n      mload(0x40)\n      0x08c379a000000000000000000000000000000000000000000000000000000000\n      dup2\n      mstore\n      0x04\n      add\n      tag_73\n      swap1\n      tag_74\n      jump\t// in\n    tag_73:\n      mload(0x40)\n      dup1\n      swap2\n      sub\n      swap1\n      revert\n    tag_72:\n        /* \"Campaign.sol\":2315:2328  numOfRequests */\n      sload(0x00)\n        /* \"Campaign.sol\":2298:2311  requestNumber */\n      dup2\n        /* \"Campaign.sol\":2298:2328  requestNumber <= numOfRequests */\n      gt\n      iszero\n        /* \"Campaign.sol\":2290:2355  require(requestNumber <= numOfRequests, \"invalid request number\") */\n      tag_76\n      jumpi\n      mload(0x40)\n      0x08c379a000000000000000000000000000000000000000000000000000000000\n      dup2\n      mstore\n      0x04\n      add\n      tag_77\n      swap1\n      tag_78\n      jump\t// in\n    tag_77:\n      mload(0x40)\n      dup1\n      swap2\n      sub\n      swap1\n      revert\n    tag_76:\n        /* \"Campaign.sol\":2366:2383  Request storage r */\n      0x00\n        /* \"Campaign.sol\":2386:2394  requests */\n      0x01\n        /* \"Campaign.sol\":2386:2409  requests[requestNumber] */\n      0x00\n        /* \"Campaign.sol\":2395:2408  requestNumber */\n      dup4\n        /* \"Campaign.sol\":2386:2409  requests[requestNumber] */\n      dup2\n      mstore\n      0x20\n      add\n      swap1\n      dup2\n      mstore\n      0x20\n      add\n      0x00\n      keccak256\n        /* \"Campaign.sol\":2366:2409  Request storage r = requests[requestNumber] */\n      swap1\n      pop\n        /* \"Campaign.sol\":2476:2477  2 */\n      0x02\n        /* \"Campaign.sol\":2459:2473  approversCount */\n      sload(0x04)\n        /* \"Campaign.sol\":2459:2477  approversCount / 2 */\n      tag_79\n      swap2\n      swap1\n      tag_80\n      jump\t// in\n    tag_79:\n        /* \"Campaign.sol\":2440:2441  r */\n      dup2\n        /* \"Campaign.sol\":2440:2455  r.approvalCount */\n      0x03\n      add\n      sload\n        /* \"Campaign.sol\":2440:2478  r.approvalCount > (approversCount / 2) */\n      gt\n        /* \"Campaign.sol\":2419:2580  require(... */\n      tag_81\n      jumpi\n      mload(0x40)\n      0x08c379a000000000000000000000000000000000000000000000000000000000\n      dup2\n      mstore\n      0x04\n      add\n      tag_82\n      swap1\n      tag_83\n      jump\t// in\n    tag_82:\n      mload(0x40)\n      dup1\n      swap2\n      sub\n      swap1\n      revert\n    tag_81:\n        /* \"Campaign.sol\":2599:2600  r */\n      dup1\n        /* \"Campaign.sol\":2599:2610  r.completed */\n      0x02\n      add\n      0x14\n      swap1\n      sload\n      swap1\n      0x0100\n      exp\n      swap1\n      div\n      0xff\n      and\n        /* \"Campaign.sol\":2598:2610  !r.completed */\n      iszero\n        /* \"Campaign.sol\":2590:2653  require(!r.completed, \"request is already marked as completed\") */\n      tag_84\n      jumpi\n      mload(0x40)\n      0x08c379a000000000000000000000000000000000000000000000000000000000\n      dup2\n      mstore\n      0x04\n      add\n      tag_85\n      swap1\n      tag_86\n      jump\t// in\n    tag_85:\n      mload(0x40)\n      dup1\n      swap2\n      sub\n      swap1\n      revert\n    tag_84:\n        /* \"Campaign.sol\":2664:2665  r */\n      dup1\n        /* \"Campaign.sol\":2664:2675  r.recipient */\n      0x02\n      add\n      0x00\n      swap1\n      sload\n      swap1\n      0x0100\n      exp\n      swap1\n      div\n      0xffffffffffffffffffffffffffffffffffffffff\n      and\n        /* \"Campaign.sol\":2664:2684  r.recipient.transfer */\n      0xffffffffffffffffffffffffffffffffffffffff\n      and\n        /* \"Campaign.sol\":2664:2693  r.recipient.transfer(r.value) */\n      0x08fc\n        /* \"Campaign.sol\":2685:2686  r */\n      dup3\n        /* \"Campaign.sol\":2685:2692  r.value */\n      0x01\n      add\n      sload\n        /* \"Campaign.sol\":2664:2693  r.recipient.transfer(r.value) */\n      swap1\n      dup2\n      iszero\n      mul\n      swap1\n      mload(0x40)\n      0x00\n      mload(0x40)\n      dup1\n      dup4\n      sub\n      dup2\n      dup6\n      dup9\n      dup9\n      call\n      swap4\n      pop\n      pop\n      pop\n      pop\n      iszero\n      dup1\n      iszero\n      tag_88\n      jumpi\n      returndatasize\n      0x00\n      dup1\n      returndatacopy\n      revert(0x00, returndatasize)\n    tag_88:\n      pop\n        /* \"Campaign.sol\":2717:2721  true */\n      0x01\n        /* \"Campaign.sol\":2703:2704  r */\n      dup2\n        /* \"Campaign.sol\":2703:2714  r.completed */\n      0x02\n      add\n      0x14\n        /* \"Campaign.sol\":2703:2721  r.completed = true */\n      0x0100\n      exp\n      dup2\n      sload\n      dup2\n      0xff\n      mul\n      not\n      and\n      swap1\n      dup4\n      iszero\n      iszero\n      mul\n      or\n      swap1\n      sstore\n      pop\n        /* \"Campaign.sol\":2280:2728  {... */\n      pop\n        /* \"Campaign.sol\":2213:2728  function finalizeRequest(uint256 requestNumber) public onlyManager {... */\n      pop\n      jump\t// out\n        /* \"Campaign.sol\":896:937  mapping(address => bool) public approvers */\n    tag_31:\n      mstore(0x20, 0x05)\n      dup1\n      0x00\n      mstore\n      keccak256(0x00, 0x40)\n      0x00\n      swap2\n      pop\n      sload\n      swap1\n      0x0100\n      exp\n      swap1\n      div\n      0xff\n      and\n      dup2\n      jump\t// out\n        /* \"Campaign.sol\":791:813  address public manager */\n    tag_36:\n      0x02\n      0x00\n      swap1\n      sload\n      swap1\n      0x0100\n      exp\n      swap1\n      div\n      0xffffffffffffffffffffffffffffffffffffffff\n      and\n      dup2\n      jump\t// out\n        /* \"Campaign.sol\":741:784  mapping(uint256 => Request) public requests */\n    tag_42:\n      mstore(0x20, 0x01)\n      dup1\n      0x00\n      mstore\n      keccak256(0x00, 0x40)\n      0x00\n      swap2\n      pop\n      swap1\n      pop\n      dup1\n      0x00\n      add\n      dup1\n      sload\n      tag_89\n      swap1\n      tag_90\n      jump\t// in\n    tag_89:\n      dup1\n      0x1f\n      add\n      0x20\n      dup1\n      swap2\n      div\n      mul\n      0x20\n      add\n      mload(0x40)\n      swap1\n      dup2\n      add\n      0x40\n      mstore\n      dup1\n      swap3\n      swap2\n      swap1\n      dup2\n      dup2\n      mstore\n      0x20\n      add\n      dup3\n      dup1\n      sload\n      tag_91\n      swap1\n      tag_90\n      jump\t// in\n    tag_91:\n      dup1\n      iszero\n      tag_92\n      jumpi\n      dup1\n      0x1f\n      lt\n      tag_93\n      jumpi\n      0x0100\n      dup1\n      dup4\n      sload\n      div\n      mul\n      dup4\n      mstore\n      swap2\n      0x20\n      add\n      swap2\n      jump(tag_92)\n    tag_93:\n      dup3\n      add\n      swap2\n      swap1\n      0x00\n      mstore\n      keccak256(0x00, 0x20)\n      swap1\n    tag_94:\n      dup2\n      sload\n      dup2\n      mstore\n      swap1\n      0x01\n      add\n      swap1\n      0x20\n      add\n      dup1\n      dup4\n      gt\n      tag_94\n      jumpi\n      dup3\n      swap1\n      sub\n      0x1f\n      and\n      dup3\n      add\n      swap2\n    tag_92:\n      pop\n      pop\n      pop\n      pop\n      pop\n      swap1\n      dup1\n      0x01\n      add\n      sload\n      swap1\n      dup1\n      0x02\n      add\n      0x00\n      swap1\n      sload\n      swap1\n      0x0100\n      exp\n      swap1\n      div\n      0xffffffffffffffffffffffffffffffffffffffff\n      and\n      swap1\n      dup1\n      0x02\n      add\n      0x14\n      swap1\n      sload\n      swap1\n      0x0100\n      exp\n      swap1\n      div\n      0xff\n      and\n      swap1\n      dup1\n      0x03\n      add\n      sload\n      swap1\n      pop\n      dup6\n      jump\t// out\n        /* \"Campaign.sol\":861:890  uint256 public approversCount */\n    tag_47:\n      sload(0x04)\n      dup2\n      jump\t// out\n        /* \"Campaign.sol\":1214:1631  function createRequest(... */\n    tag_54:\n        /* \"Campaign.sol\":999:1006  manager */\n      0x02\n      0x00\n      swap1\n      sload\n      swap1\n      0x0100\n      exp\n      swap1\n      div\n      0xffffffffffffffffffffffffffffffffffffffff\n      and\n        /* \"Campaign.sol\":985:1006  msg.sender == manager */\n      0xffffffffffffffffffffffffffffffffffffffff\n      and\n        /* \"Campaign.sol\":985:995  msg.sender */\n      caller\n        /* \"Campaign.sol\":985:1006  msg.sender == manager */\n      0xffffffffffffffffffffffffffffffffffffffff\n      and\n      eq\n        /* \"Campaign.sol\":977:1037  require(msg.sender == manager, \"Only manager is authorized\") */\n      tag_96\n      jumpi\n      mload(0x40)\n      0x08c379a000000000000000000000000000000000000000000000000000000000\n      dup2\n      mstore\n      0x04\n      add\n      tag_97\n      swap1\n      tag_74\n      jump\t// in\n    tag_97:\n      mload(0x40)\n      dup1\n      swap2\n      sub\n      swap1\n      revert\n    tag_96:\n        /* \"Campaign.sol\":1360:1386  Request storage newRequest */\n      0x00\n        /* \"Campaign.sol\":1389:1397  requests */\n      0x01\n        /* \"Campaign.sol\":1389:1414  requests[numOfRequests++] */\n      0x00\n        /* \"Campaign.sol\":1398:1411  numOfRequests */\n      dup1\n      0x00\n        /* \"Campaign.sol\":1398:1413  numOfRequests++ */\n      dup2\n      sload\n      dup1\n      swap3\n      swap2\n      swap1\n      tag_99\n      swap1\n      tag_21\n      jump\t// in\n    tag_99:\n      swap2\n      swap1\n      pop\n      sstore\n        /* \"Campaign.sol\":1389:1414  requests[numOfRequests++] */\n      dup2\n      mstore\n      0x20\n      add\n      swap1\n      dup2\n      mstore\n      0x20\n      add\n      0x00\n      keccak256\n        /* \"Campaign.sol\":1360:1414  Request storage newRequest = requests[numOfRequests++] */\n      swap1\n      pop\n        /* \"Campaign.sol\":1449:1461  _description */\n      dup4\n        /* \"Campaign.sol\":1424:1434  newRequest */\n      dup2\n        /* \"Campaign.sol\":1424:1446  newRequest.description */\n      0x00\n      add\n        /* \"Campaign.sol\":1424:1461  newRequest.description = _description */\n      swap1\n      dup1\n      mload\n      swap1\n      0x20\n      add\n      swap1\n      tag_100\n      swap3\n      swap2\n      swap1\n      tag_101\n      jump\t// in\n    tag_100:\n      pop\n        /* \"Campaign.sol\":1490:1496  _value */\n      dup3\n        /* \"Campaign.sol\":1471:1481  newRequest */\n      dup2\n        /* \"Campaign.sol\":1471:1487  newRequest.value */\n      0x01\n      add\n        /* \"Campaign.sol\":1471:1496  newRequest.value = _value */\n      dup2\n      swap1\n      sstore\n      pop\n        /* \"Campaign.sol\":1537:1547  _recipient */\n      dup2\n        /* \"Campaign.sol\":1506:1516  newRequest */\n      dup2\n        /* \"Campaign.sol\":1506:1526  newRequest.recipient */\n      0x02\n      add\n      0x00\n        /* \"Campaign.sol\":1506:1548  newRequest.recipient = payable(_recipient) */\n      0x0100\n      exp\n      dup2\n      sload\n      dup2\n      0xffffffffffffffffffffffffffffffffffffffff\n      mul\n      not\n      and\n      swap1\n      dup4\n      0xffffffffffffffffffffffffffffffffffffffff\n      and\n      mul\n      or\n      swap1\n      sstore\n      pop\n        /* \"Campaign.sol\":1581:1586  false */\n      0x00\n        /* \"Campaign.sol\":1558:1568  newRequest */\n      dup2\n        /* \"Campaign.sol\":1558:1578  newRequest.completed */\n      0x02\n      add\n      0x14\n        /* \"Campaign.sol\":1558:1586  newRequest.completed = false */\n      0x0100\n      exp\n      dup2\n      sload\n      dup2\n      0xff\n      mul\n      not\n      and\n      swap1\n      dup4\n      iszero\n      iszero\n      mul\n      or\n      swap1\n      sstore\n      pop\n        /* \"Campaign.sol\":1623:1624  0 */\n      0x00\n        /* \"Campaign.sol\":1596:1606  newRequest */\n      dup2\n        /* \"Campaign.sol\":1596:1620  newRequest.approvalCount */\n      0x03\n      add\n        /* \"Campaign.sol\":1596:1624  newRequest.approvalCount = 0 */\n      dup2\n      swap1\n      sstore\n      pop\n        /* \"Campaign.sol\":1350:1631  {... */\n      pop\n        /* \"Campaign.sol\":1214:1631  function createRequest(... */\n      pop\n      pop\n      pop\n      jump\t// out\n        /* \"Campaign.sol\":820:854  uint256 public minimumContribution */\n    tag_57:\n      sload(0x03)\n      dup2\n      jump\t// out\n        /* \"Campaign.sol\":707:735  uint256 public numOfRequests */\n    tag_61:\n      sload(0x00)\n      dup2\n      jump\t// out\n        /* \"Campaign.sol\":1637:2207  function approveRequest(uint256 requestNumber) public {... */\n    tag_66:\n        /* \"Campaign.sol\":1709:1718  approvers */\n      0x05\n        /* \"Campaign.sol\":1709:1730  approvers[msg.sender] */\n      0x00\n        /* \"Campaign.sol\":1719:1729  msg.sender */\n      caller\n        /* \"Campaign.sol\":1709:1730  approvers[msg.sender] */\n      0xffffffffffffffffffffffffffffffffffffffff\n      and\n      0xffffffffffffffffffffffffffffffffffffffff\n      and\n      dup2\n      mstore\n      0x20\n      add\n      swap1\n      dup2\n      mstore\n      0x20\n      add\n      0x00\n      keccak256\n      0x00\n      swap1\n      sload\n      swap1\n      0x0100\n      exp\n      swap1\n      div\n      0xff\n      and\n        /* \"Campaign.sol\":1701:1769  require(approvers[msg.sender], \"you are not an authorized approver\") */\n      tag_103\n      jumpi\n      mload(0x40)\n      0x08c379a000000000000000000000000000000000000000000000000000000000\n      dup2\n      mstore\n      0x04\n      add\n      tag_104\n      swap1\n      tag_105\n      jump\t// in\n    tag_104:\n      mload(0x40)\n      dup1\n      swap2\n      sub\n      swap1\n      revert\n    tag_103:\n        /* \"Campaign.sol\":1817:1818  0 */\n      0x00\n        /* \"Campaign.sol\":1800:1813  requestNumber */\n      dup2\n        /* \"Campaign.sol\":1800:1818  requestNumber >= 0 */\n      lt\n      iszero\n        /* \"Campaign.sol\":1800:1852  requestNumber >= 0 && requestNumber <= numOfRequests */\n      dup1\n      iszero\n      tag_106\n      jumpi\n      pop\n        /* \"Campaign.sol\":1839:1852  numOfRequests */\n      sload(0x00)\n        /* \"Campaign.sol\":1822:1835  requestNumber */\n      dup2\n        /* \"Campaign.sol\":1822:1852  requestNumber <= numOfRequests */\n      gt\n      iszero\n        /* \"Campaign.sol\":1800:1852  requestNumber >= 0 && requestNumber <= numOfRequests */\n    tag_106:\n        /* \"Campaign.sol\":1779:1900  require(... */\n      tag_107\n      jumpi\n      mload(0x40)\n      0x08c379a000000000000000000000000000000000000000000000000000000000\n      dup2\n      mstore\n      0x04\n      add\n      tag_108\n      swap1\n      tag_78\n      jump\t// in\n    tag_108:\n      mload(0x40)\n      dup1\n      swap2\n      sub\n      swap1\n      revert\n    tag_107:\n        /* \"Campaign.sol\":1911:1928  Request storage r */\n      0x00\n        /* \"Campaign.sol\":1931:1939  requests */\n      0x01\n        /* \"Campaign.sol\":1931:1954  requests[requestNumber] */\n      0x00\n        /* \"Campaign.sol\":1940:1953  requestNumber */\n      dup4\n        /* \"Campaign.sol\":1931:1954  requests[requestNumber] */\n      dup2\n      mstore\n      0x20\n      add\n      swap1\n      dup2\n      mstore\n      0x20\n      add\n      0x00\n      keccak256\n        /* \"Campaign.sol\":1911:1954  Request storage r = requests[requestNumber] */\n      swap1\n      pop\n        /* \"Campaign.sol\":1986:1987  r */\n      dup1\n        /* \"Campaign.sol\":1986:1997  r.approvals */\n      0x04\n      add\n        /* \"Campaign.sol\":1986:2009  r.approvals[msg.sender] */\n      0x00\n        /* \"Campaign.sol\":1998:2008  msg.sender */\n      caller\n        /* \"Campaign.sol\":1986:2009  r.approvals[msg.sender] */\n      0xffffffffffffffffffffffffffffffffffffffff\n      and\n      0xffffffffffffffffffffffffffffffffffffffff\n      and\n      dup2\n      mstore\n      0x20\n      add\n      swap1\n      dup2\n      mstore\n      0x20\n      add\n      0x00\n      keccak256\n      0x00\n      swap1\n      sload\n      swap1\n      0x0100\n      exp\n      swap1\n      div\n      0xff\n      and\n        /* \"Campaign.sol\":1985:2009  !r.approvals[msg.sender] */\n      iszero\n        /* \"Campaign.sol\":1964:2073  require(... */\n      tag_109\n      jumpi\n      mload(0x40)\n      0x08c379a000000000000000000000000000000000000000000000000000000000\n      dup2\n      mstore\n      0x04\n      add\n      tag_110\n      swap1\n      tag_111\n      jump\t// in\n    tag_110:\n      mload(0x40)\n      dup1\n      swap2\n      sub\n      swap1\n      revert\n    tag_109:\n        /* \"Campaign.sol\":2169:2173  true */\n      0x01\n        /* \"Campaign.sol\":2143:2144  r */\n      dup2\n        /* \"Campaign.sol\":2143:2154  r.approvals */\n      0x04\n      add\n        /* \"Campaign.sol\":2143:2166  r.approvals[msg.sender] */\n      0x00\n        /* \"Campaign.sol\":2155:2165  msg.sender */\n      caller\n        /* \"Campaign.sol\":2143:2166  r.approvals[msg.sender] */\n      0xffffffffffffffffffffffffffffffffffffffff\n      and\n      0xffffffffffffffffffffffffffffffffffffffff\n      and\n      dup2\n      mstore\n      0x20\n      add\n      swap1\n      dup2\n      mstore\n      0x20\n      add\n      0x00\n      keccak256\n      0x00\n        /* \"Campaign.sol\":2143:2173  r.approvals[msg.sender] = true */\n      0x0100\n      exp\n      dup2\n      sload\n      dup2\n      0xff\n      mul\n      not\n      and\n      swap1\n      dup4\n      iszero\n      iszero\n      mul\n      or\n      swap1\n      sstore\n      pop\n        /* \"Campaign.sol\":2183:2184  r */\n      dup1\n        /* \"Campaign.sol\":2183:2198  r.approvalCount */\n      0x03\n      add\n      0x00\n        /* \"Campaign.sol\":2183:2200  r.approvalCount++ */\n      dup2\n      sload\n      dup1\n      swap3\n      swap2\n      swap1\n      tag_112\n      swap1\n      tag_21\n      jump\t// in\n    tag_112:\n      swap2\n      swap1\n      pop\n      sstore\n      pop\n        /* \"Campaign.sol\":1691:2207  {... */\n      pop\n        /* \"Campaign.sol\":1637:2207  function approveRequest(uint256 requestNumber) public {... */\n      pop\n      jump\t// out\n        /* \"Campaign.sol\":2734:2834  function getTotalFunds() public view returns (uint256) {... */\n    tag_69:\n        /* \"Campaign.sol\":2780:2787  uint256 */\n      0x00\n        /* \"Campaign.sol\":2806:2827  address(this).balance */\n      selfbalance\n        /* \"Campaign.sol\":2799:2827  return address(this).balance */\n      swap1\n      pop\n        /* \"Campaign.sol\":2734:2834  function getTotalFunds() public view returns (uint256) {... */\n      swap1\n      jump\t// out\n    tag_101:\n      dup3\n      dup1\n      sload\n      tag_114\n      swap1\n      tag_90\n      jump\t// in\n    tag_114:\n      swap1\n      0x00\n      mstore\n      keccak256(0x00, 0x20)\n      swap1\n      0x1f\n      add\n      0x20\n      swap1\n      div\n      dup2\n      add\n      swap3\n      dup3\n      tag_116\n      jumpi\n      0x00\n      dup6\n      sstore\n      jump(tag_115)\n    tag_116:\n      dup3\n      0x1f\n      lt\n      tag_117\n      jumpi\n      dup1\n      mload\n      not(0xff)\n      and\n      dup4\n      dup1\n      add\n      or\n      dup6\n      sstore\n      jump(tag_115)\n    tag_117:\n      dup3\n      dup1\n      add\n      0x01\n      add\n      dup6\n      sstore\n      dup3\n      iszero\n      tag_115\n      jumpi\n      swap2\n      dup3\n      add\n    tag_118:\n      dup3\n      dup2\n      gt\n      iszero\n      tag_119\n      jumpi\n      dup3\n      mload\n      dup3\n      sstore\n      swap2\n      0x20\n      add\n      swap2\n      swap1\n      0x01\n      add\n      swap1\n      jump(tag_118)\n    tag_119:\n    tag_115:\n      pop\n      swap1\n      pop\n      tag_120\n      swap2\n      swap1\n      tag_121\n      jump\t// in\n    tag_120:\n      pop\n      swap1\n      jump\t// out\n    tag_121:\n    tag_122:\n      dup1\n      dup3\n      gt\n      iszero\n      tag_123\n      jumpi\n      0x00\n      dup2\n      0x00\n      swap1\n      sstore\n      pop\n      0x01\n      add\n      jump(tag_122)\n    tag_123:\n      pop\n      swap1\n      jump\t// out\n        /* \"#utility.yul\":7:419   */\n    tag_125:\n        /* \"#utility.yul\":85:90   */\n      0x00\n        /* \"#utility.yul\":110:176   */\n      tag_127\n        /* \"#utility.yul\":126:175   */\n      tag_128\n        /* \"#utility.yul\":168:174   */\n      dup5\n        /* \"#utility.yul\":126:175   */\n      tag_129\n      jump\t// in\n    tag_128:\n        /* \"#utility.yul\":110:176   */\n      tag_130\n      jump\t// in\n    tag_127:\n        /* \"#utility.yul\":101:176   */\n      swap1\n      pop\n        /* \"#utility.yul\":199:205   */\n      dup3\n        /* \"#utility.yul\":192:197   */\n      dup2\n        /* \"#utility.yul\":185:206   */\n      mstore\n        /* \"#utility.yul\":237:241   */\n      0x20\n        /* \"#utility.yul\":230:235   */\n      dup2\n        /* \"#utility.yul\":226:242   */\n      add\n        /* \"#utility.yul\":275:278   */\n      dup5\n        /* \"#utility.yul\":266:272   */\n      dup5\n        /* \"#utility.yul\":261:264   */\n      dup5\n        /* \"#utility.yul\":257:273   */\n      add\n        /* \"#utility.yul\":254:279   */\n      gt\n        /* \"#utility.yul\":251:253   */\n      iszero\n      tag_131\n      jumpi\n        /* \"#utility.yul\":282:361   */\n      tag_132\n      tag_133\n      jump\t// in\n    tag_132:\n        /* \"#utility.yul\":251:253   */\n    tag_131:\n        /* \"#utility.yul\":372:413   */\n      tag_134\n        /* \"#utility.yul\":406:412   */\n      dup5\n        /* \"#utility.yul\":401:404   */\n      dup3\n        /* \"#utility.yul\":396:399   */\n      dup6\n        /* \"#utility.yul\":372:413   */\n      tag_135\n      jump\t// in\n    tag_134:\n        /* \"#utility.yul\":91:419   */\n      pop\n      swap4\n      swap3\n      pop\n      pop\n      pop\n      jump\t// out\n        /* \"#utility.yul\":425:564   */\n    tag_136:\n        /* \"#utility.yul\":471:476   */\n      0x00\n        /* \"#utility.yul\":509:515   */\n      dup2\n        /* \"#utility.yul\":496:516   */\n      calldataload\n        /* \"#utility.yul\":487:516   */\n      swap1\n      pop\n        /* \"#utility.yul\":525:558   */\n      tag_138\n        /* \"#utility.yul\":552:557   */\n      dup2\n        /* \"#utility.yul\":525:558   */\n      tag_139\n      jump\t// in\n    tag_138:\n        /* \"#utility.yul\":477:564   */\n      swap3\n      swap2\n      pop\n      pop\n      jump\t// out\n        /* \"#utility.yul\":584:924   */\n    tag_140:\n        /* \"#utility.yul\":640:645   */\n      0x00\n        /* \"#utility.yul\":689:692   */\n      dup3\n        /* \"#utility.yul\":682:686   */\n      0x1f\n        /* \"#utility.yul\":674:680   */\n      dup4\n        /* \"#utility.yul\":670:687   */\n      add\n        /* \"#utility.yul\":666:693   */\n      slt\n        /* \"#utility.yul\":656:658   */\n      tag_142\n      jumpi\n        /* \"#utility.yul\":697:776   */\n      tag_143\n      tag_144\n      jump\t// in\n    tag_143:\n        /* \"#utility.yul\":656:658   */\n    tag_142:\n        /* \"#utility.yul\":814:820   */\n      dup2\n        /* \"#utility.yul\":801:821   */\n      calldataload\n        /* \"#utility.yul\":839:918   */\n      tag_145\n        /* \"#utility.yul\":914:917   */\n      dup5\n        /* \"#utility.yul\":906:912   */\n      dup3\n        /* \"#utility.yul\":899:903   */\n      0x20\n        /* \"#utility.yul\":891:897   */\n      dup7\n        /* \"#utility.yul\":887:904   */\n      add\n        /* \"#utility.yul\":839:918   */\n      tag_125\n      jump\t// in\n    tag_145:\n        /* \"#utility.yul\":830:918   */\n      swap2\n      pop\n        /* \"#utility.yul\":646:924   */\n      pop\n      swap3\n      swap2\n      pop\n      pop\n      jump\t// out\n        /* \"#utility.yul\":930:1069   */\n    tag_146:\n        /* \"#utility.yul\":976:981   */\n      0x00\n        /* \"#utility.yul\":1014:1020   */\n      dup2\n        /* \"#utility.yul\":1001:1021   */\n      calldataload\n        /* \"#utility.yul\":992:1021   */\n      swap1\n      pop\n        /* \"#utility.yul\":1030:1063   */\n      tag_148\n        /* \"#utility.yul\":1057:1062   */\n      dup2\n        /* \"#utility.yul\":1030:1063   */\n      tag_149\n      jump\t// in\n    tag_148:\n        /* \"#utility.yul\":982:1069   */\n      swap3\n      swap2\n      pop\n      pop\n      jump\t// out\n        /* \"#utility.yul\":1075:1404   */\n    tag_30:\n        /* \"#utility.yul\":1134:1140   */\n      0x00\n        /* \"#utility.yul\":1183:1185   */\n      0x20\n        /* \"#utility.yul\":1171:1180   */\n      dup3\n        /* \"#utility.yul\":1162:1169   */\n      dup5\n        /* \"#utility.yul\":1158:1181   */\n      sub\n        /* \"#utility.yul\":1154:1186   */\n      slt\n        /* \"#utility.yul\":1151:1153   */\n      iszero\n      tag_151\n      jumpi\n        /* \"#utility.yul\":1189:1268   */\n      tag_152\n      tag_153\n      jump\t// in\n    tag_152:\n        /* \"#utility.yul\":1151:1153   */\n    tag_151:\n        /* \"#utility.yul\":1309:1310   */\n      0x00\n        /* \"#utility.yul\":1334:1387   */\n      tag_154\n        /* \"#utility.yul\":1379:1386   */\n      dup5\n        /* \"#utility.yul\":1370:1376   */\n      dup3\n        /* \"#utility.yul\":1359:1368   */\n      dup6\n        /* \"#utility.yul\":1355:1377   */\n      add\n        /* \"#utility.yul\":1334:1387   */\n      tag_136\n      jump\t// in\n    tag_154:\n        /* \"#utility.yul\":1324:1387   */\n      swap2\n      pop\n        /* \"#utility.yul\":1280:1397   */\n      pop\n        /* \"#utility.yul\":1141:1404   */\n      swap3\n      swap2\n      pop\n      pop\n      jump\t// out\n        /* \"#utility.yul\":1410:2209   */\n    tag_53:\n        /* \"#utility.yul\":1497:1503   */\n      0x00\n        /* \"#utility.yul\":1505:1511   */\n      dup1\n        /* \"#utility.yul\":1513:1519   */\n      0x00\n        /* \"#utility.yul\":1562:1564   */\n      0x60\n        /* \"#utility.yul\":1550:1559   */\n      dup5\n        /* \"#utility.yul\":1541:1548   */\n      dup7\n        /* \"#utility.yul\":1537:1560   */\n      sub\n        /* \"#utility.yul\":1533:1565   */\n      slt\n        /* \"#utility.yul\":1530:1532   */\n      iszero\n      tag_156\n      jumpi\n        /* \"#utility.yul\":1568:1647   */\n      tag_157\n      tag_153\n      jump\t// in\n    tag_157:\n        /* \"#utility.yul\":1530:1532   */\n    tag_156:\n        /* \"#utility.yul\":1716:1717   */\n      0x00\n        /* \"#utility.yul\":1705:1714   */\n      dup5\n        /* \"#utility.yul\":1701:1718   */\n      add\n        /* \"#utility.yul\":1688:1719   */\n      calldataload\n        /* \"#utility.yul\":1746:1764   */\n      0xffffffffffffffff\n        /* \"#utility.yul\":1738:1744   */\n      dup2\n        /* \"#utility.yul\":1735:1765   */\n      gt\n        /* \"#utility.yul\":1732:1734   */\n      iszero\n      tag_158\n      jumpi\n        /* \"#utility.yul\":1768:1847   */\n      tag_159\n      tag_160\n      jump\t// in\n    tag_159:\n        /* \"#utility.yul\":1732:1734   */\n    tag_158:\n        /* \"#utility.yul\":1873:1936   */\n      tag_161\n        /* \"#utility.yul\":1928:1935   */\n      dup7\n        /* \"#utility.yul\":1919:1925   */\n      dup3\n        /* \"#utility.yul\":1908:1917   */\n      dup8\n        /* \"#utility.yul\":1904:1926   */\n      add\n        /* \"#utility.yul\":1873:1936   */\n      tag_140\n      jump\t// in\n    tag_161:\n        /* \"#utility.yul\":1863:1936   */\n      swap4\n      pop\n        /* \"#utility.yul\":1659:1946   */\n      pop\n        /* \"#utility.yul\":1985:1987   */\n      0x20\n        /* \"#utility.yul\":2011:2064   */\n      tag_162\n        /* \"#utility.yul\":2056:2063   */\n      dup7\n        /* \"#utility.yul\":2047:2053   */\n      dup3\n        /* \"#utility.yul\":2036:2045   */\n      dup8\n        /* \"#utility.yul\":2032:2054   */\n      add\n        /* \"#utility.yul\":2011:2064   */\n      tag_146\n      jump\t// in\n    tag_162:\n        /* \"#utility.yul\":2001:2064   */\n      swap3\n      pop\n        /* \"#utility.yul\":1956:2074   */\n      pop\n        /* \"#utility.yul\":2113:2115   */\n      0x40\n        /* \"#utility.yul\":2139:2192   */\n      tag_163\n        /* \"#utility.yul\":2184:2191   */\n      dup7\n        /* \"#utility.yul\":2175:2181   */\n      dup3\n        /* \"#utility.yul\":2164:2173   */\n      dup8\n        /* \"#utility.yul\":2160:2182   */\n      add\n        /* \"#utility.yul\":2139:2192   */\n      tag_136\n      jump\t// in\n    tag_163:\n        /* \"#utility.yul\":2129:2192   */\n      swap2\n      pop\n        /* \"#utility.yul\":2084:2202   */\n      pop\n        /* \"#utility.yul\":1520:2209   */\n      swap3\n      pop\n      swap3\n      pop\n      swap3\n      jump\t// out\n        /* \"#utility.yul\":2215:2544   */\n    tag_25:\n        /* \"#utility.yul\":2274:2280   */\n      0x00\n        /* \"#utility.yul\":2323:2325   */\n      0x20\n        /* \"#utility.yul\":2311:2320   */\n      dup3\n        /* \"#utility.yul\":2302:2309   */\n      dup5\n        /* \"#utility.yul\":2298:2321   */\n      sub\n        /* \"#utility.yul\":2294:2326   */\n      slt\n        /* \"#utility.yul\":2291:2293   */\n      iszero\n      tag_165\n      jumpi\n        /* \"#utility.yul\":2329:2408   */\n      tag_166\n      tag_153\n      jump\t// in\n    tag_166:\n        /* \"#utility.yul\":2291:2293   */\n    tag_165:\n        /* \"#utility.yul\":2449:2450   */\n      0x00\n        /* \"#utility.yul\":2474:2527   */\n      tag_167\n        /* \"#utility.yul\":2519:2526   */\n      dup5\n        /* \"#utility.yul\":2510:2516   */\n      dup3\n        /* \"#utility.yul\":2499:2508   */\n      dup6\n        /* \"#utility.yul\":2495:2517   */\n      add\n        /* \"#utility.yul\":2474:2527   */\n      tag_146\n      jump\t// in\n    tag_167:\n        /* \"#utility.yul\":2464:2527   */\n      swap2\n      pop\n        /* \"#utility.yul\":2420:2537   */\n      pop\n        /* \"#utility.yul\":2281:2544   */\n      swap3\n      swap2\n      pop\n      pop\n      jump\t// out\n        /* \"#utility.yul\":2550:2692   */\n    tag_168:\n        /* \"#utility.yul\":2653:2685   */\n      tag_170\n        /* \"#utility.yul\":2679:2684   */\n      dup2\n        /* \"#utility.yul\":2653:2685   */\n      tag_171\n      jump\t// in\n    tag_170:\n        /* \"#utility.yul\":2648:2651   */\n      dup3\n        /* \"#utility.yul\":2641:2686   */\n      mstore\n        /* \"#utility.yul\":2631:2692   */\n      pop\n      pop\n      jump\t// out\n        /* \"#utility.yul\":2698:2816   */\n    tag_172:\n        /* \"#utility.yul\":2785:2809   */\n      tag_174\n        /* \"#utility.yul\":2803:2808   */\n      dup2\n        /* \"#utility.yul\":2785:2809   */\n      tag_175\n      jump\t// in\n    tag_174:\n        /* \"#utility.yul\":2780:2783   */\n      dup3\n        /* \"#utility.yul\":2773:2810   */\n      mstore\n        /* \"#utility.yul\":2763:2816   */\n      pop\n      pop\n      jump\t// out\n        /* \"#utility.yul\":2822:2931   */\n    tag_176:\n        /* \"#utility.yul\":2903:2924   */\n      tag_178\n        /* \"#utility.yul\":2918:2923   */\n      dup2\n        /* \"#utility.yul\":2903:2924   */\n      tag_179\n      jump\t// in\n    tag_178:\n        /* \"#utility.yul\":2898:2901   */\n      dup3\n        /* \"#utility.yul\":2891:2925   */\n      mstore\n        /* \"#utility.yul\":2881:2931   */\n      pop\n      pop\n      jump\t// out\n        /* \"#utility.yul\":2937:3301   */\n    tag_180:\n        /* \"#utility.yul\":3025:3028   */\n      0x00\n        /* \"#utility.yul\":3053:3092   */\n      tag_182\n        /* \"#utility.yul\":3086:3091   */\n      dup3\n        /* \"#utility.yul\":3053:3092   */\n      tag_183\n      jump\t// in\n    tag_182:\n        /* \"#utility.yul\":3108:3179   */\n      tag_184\n        /* \"#utility.yul\":3172:3178   */\n      dup2\n        /* \"#utility.yul\":3167:3170   */\n      dup6\n        /* \"#utility.yul\":3108:3179   */\n      tag_185\n      jump\t// in\n    tag_184:\n        /* \"#utility.yul\":3101:3179   */\n      swap4\n      pop\n        /* \"#utility.yul\":3188:3240   */\n      tag_186\n        /* \"#utility.yul\":3233:3239   */\n      dup2\n        /* \"#utility.yul\":3228:3231   */\n      dup6\n        /* \"#utility.yul\":3221:3225   */\n      0x20\n        /* \"#utility.yul\":3214:3219   */\n      dup7\n        /* \"#utility.yul\":3210:3226   */\n      add\n        /* \"#utility.yul\":3188:3240   */\n      tag_187\n      jump\t// in\n    tag_186:\n        /* \"#utility.yul\":3265:3294   */\n      tag_188\n        /* \"#utility.yul\":3287:3293   */\n      dup2\n        /* \"#utility.yul\":3265:3294   */\n      tag_189\n      jump\t// in\n    tag_188:\n        /* \"#utility.yul\":3260:3263   */\n      dup5\n        /* \"#utility.yul\":3256:3295   */\n      add\n        /* \"#utility.yul\":3249:3295   */\n      swap2\n      pop\n        /* \"#utility.yul\":3029:3301   */\n      pop\n      swap3\n      swap2\n      pop\n      pop\n      jump\t// out\n        /* \"#utility.yul\":3307:3673   */\n    tag_190:\n        /* \"#utility.yul\":3449:3452   */\n      0x00\n        /* \"#utility.yul\":3470:3537   */\n      tag_192\n        /* \"#utility.yul\":3534:3536   */\n      0x26\n        /* \"#utility.yul\":3529:3532   */\n      dup4\n        /* \"#utility.yul\":3470:3537   */\n      tag_185\n      jump\t// in\n    tag_192:\n        /* \"#utility.yul\":3463:3537   */\n      swap2\n      pop\n        /* \"#utility.yul\":3546:3639   */\n      tag_193\n        /* \"#utility.yul\":3635:3638   */\n      dup3\n        /* \"#utility.yul\":3546:3639   */\n      tag_194\n      jump\t// in\n    tag_193:\n        /* \"#utility.yul\":3664:3666   */\n      0x40\n        /* \"#utility.yul\":3659:3662   */\n      dup3\n        /* \"#utility.yul\":3655:3667   */\n      add\n        /* \"#utility.yul\":3648:3667   */\n      swap1\n      pop\n        /* \"#utility.yul\":3453:3673   */\n      swap2\n      swap1\n      pop\n      jump\t// out\n        /* \"#utility.yul\":3679:4045   */\n    tag_195:\n        /* \"#utility.yul\":3821:3824   */\n      0x00\n        /* \"#utility.yul\":3842:3909   */\n      tag_197\n        /* \"#utility.yul\":3906:3908   */\n      0x4c\n        /* \"#utility.yul\":3901:3904   */\n      dup4\n        /* \"#utility.yul\":3842:3909   */\n      tag_185\n      jump\t// in\n    tag_197:\n        /* \"#utility.yul\":3835:3909   */\n      swap2\n      pop\n        /* \"#utility.yul\":3918:4011   */\n      tag_198\n        /* \"#utility.yul\":4007:4010   */\n      dup3\n        /* \"#utility.yul\":3918:4011   */\n      tag_199\n      jump\t// in\n    tag_198:\n        /* \"#utility.yul\":4036:4038   */\n      0x60\n        /* \"#utility.yul\":4031:4034   */\n      dup3\n        /* \"#utility.yul\":4027:4039   */\n      add\n        /* \"#utility.yul\":4020:4039   */\n      swap1\n      pop\n        /* \"#utility.yul\":3825:4045   */\n      swap2\n      swap1\n      pop\n      jump\t// out\n        /* \"#utility.yul\":4051:4417   */\n    tag_200:\n        /* \"#utility.yul\":4193:4196   */\n      0x00\n        /* \"#utility.yul\":4214:4281   */\n      tag_202\n        /* \"#utility.yul\":4278:4280   */\n      0x22\n        /* \"#utility.yul\":4273:4276   */\n      dup4\n        /* \"#utility.yul\":4214:4281   */\n      tag_185\n      jump\t// in\n    tag_202:\n        /* \"#utility.yul\":4207:4281   */\n      swap2\n      pop\n        /* \"#utility.yul\":4290:4383   */\n      tag_203\n        /* \"#utility.yul\":4379:4382   */\n      dup3\n        /* \"#utility.yul\":4290:4383   */\n      tag_204\n      jump\t// in\n    tag_203:\n        /* \"#utility.yul\":4408:4410   */\n      0x40\n        /* \"#utility.yul\":4403:4406   */\n      dup3\n        /* \"#utility.yul\":4399:4411   */\n      add\n        /* \"#utility.yul\":4392:4411   */\n      swap1\n      pop\n        /* \"#utility.yul\":4197:4417   */\n      swap2\n      swap1\n      pop\n      jump\t// out\n        /* \"#utility.yul\":4423:4789   */\n    tag_205:\n        /* \"#utility.yul\":4565:4568   */\n      0x00\n        /* \"#utility.yul\":4586:4653   */\n      tag_207\n        /* \"#utility.yul\":4650:4652   */\n      0x16\n        /* \"#utility.yul\":4645:4648   */\n      dup4\n        /* \"#utility.yul\":4586:4653   */\n      tag_185\n      jump\t// in\n    tag_207:\n        /* \"#utility.yul\":4579:4653   */\n      swap2\n      pop\n        /* \"#utility.yul\":4662:4755   */\n      tag_208\n        /* \"#utility.yul\":4751:4754   */\n      dup3\n        /* \"#utility.yul\":4662:4755   */\n      tag_209\n      jump\t// in\n    tag_208:\n        /* \"#utility.yul\":4780:4782   */\n      0x20\n        /* \"#utility.yul\":4775:4778   */\n      dup3\n        /* \"#utility.yul\":4771:4783   */\n      add\n        /* \"#utility.yul\":4764:4783   */\n      swap1\n      pop\n        /* \"#utility.yul\":4569:4789   */\n      swap2\n      swap1\n      pop\n      jump\t// out\n        /* \"#utility.yul\":4795:5161   */\n    tag_210:\n        /* \"#utility.yul\":4937:4940   */\n      0x00\n        /* \"#utility.yul\":4958:5025   */\n      tag_212\n        /* \"#utility.yul\":5022:5024   */\n      0x1a\n        /* \"#utility.yul\":5017:5020   */\n      dup4\n        /* \"#utility.yul\":4958:5025   */\n      tag_185\n      jump\t// in\n    tag_212:\n        /* \"#utility.yul\":4951:5025   */\n      swap2\n      pop\n        /* \"#utility.yul\":5034:5127   */\n      tag_213\n        /* \"#utility.yul\":5123:5126   */\n      dup3\n        /* \"#utility.yul\":5034:5127   */\n      tag_214\n      jump\t// in\n    tag_213:\n        /* \"#utility.yul\":5152:5154   */\n      0x20\n        /* \"#utility.yul\":5147:5150   */\n      dup3\n        /* \"#utility.yul\":5143:5155   */\n      add\n        /* \"#utility.yul\":5136:5155   */\n      swap1\n      pop\n        /* \"#utility.yul\":4941:5161   */\n      swap2\n      swap1\n      pop\n      jump\t// out\n        /* \"#utility.yul\":5167:5533   */\n    tag_215:\n        /* \"#utility.yul\":5309:5312   */\n      0x00\n        /* \"#utility.yul\":5330:5397   */\n      tag_217\n        /* \"#utility.yul\":5394:5396   */\n      0x26\n        /* \"#utility.yul\":5389:5392   */\n      dup4\n        /* \"#utility.yul\":5330:5397   */\n      tag_185\n      jump\t// in\n    tag_217:\n        /* \"#utility.yul\":5323:5397   */\n      swap2\n      pop\n        /* \"#utility.yul\":5406:5499   */\n      tag_218\n        /* \"#utility.yul\":5495:5498   */\n      dup3\n        /* \"#utility.yul\":5406:5499   */\n      tag_219\n      jump\t// in\n    tag_218:\n        /* \"#utility.yul\":5524:5526   */\n      0x40\n        /* \"#utility.yul\":5519:5522   */\n      dup3\n        /* \"#utility.yul\":5515:5527   */\n      add\n        /* \"#utility.yul\":5508:5527   */\n      swap1\n      pop\n        /* \"#utility.yul\":5313:5533   */\n      swap2\n      swap1\n      pop\n      jump\t// out\n        /* \"#utility.yul\":5539:5905   */\n    tag_220:\n        /* \"#utility.yul\":5681:5684   */\n      0x00\n        /* \"#utility.yul\":5702:5769   */\n      tag_222\n        /* \"#utility.yul\":5766:5768   */\n      0x3f\n        /* \"#utility.yul\":5761:5764   */\n      dup4\n        /* \"#utility.yul\":5702:5769   */\n      tag_185\n      jump\t// in\n    tag_222:\n        /* \"#utility.yul\":5695:5769   */\n      swap2\n      pop\n        /* \"#utility.yul\":5778:5871   */\n      tag_223\n        /* \"#utility.yul\":5867:5870   */\n      dup3\n        /* \"#utility.yul\":5778:5871   */\n      tag_224\n      jump\t// in\n    tag_223:\n        /* \"#utility.yul\":5896:5898   */\n      0x40\n        /* \"#utility.yul\":5891:5894   */\n      dup3\n        /* \"#utility.yul\":5887:5899   */\n      add\n        /* \"#utility.yul\":5880:5899   */\n      swap1\n      pop\n        /* \"#utility.yul\":5685:5905   */\n      swap2\n      swap1\n      pop\n      jump\t// out\n        /* \"#utility.yul\":5911:6029   */\n    tag_225:\n        /* \"#utility.yul\":5998:6022   */\n      tag_227\n        /* \"#utility.yul\":6016:6021   */\n      dup2\n        /* \"#utility.yul\":5998:6022   */\n      tag_228\n      jump\t// in\n    tag_227:\n        /* \"#utility.yul\":5993:5996   */\n      dup3\n        /* \"#utility.yul\":5986:6023   */\n      mstore\n        /* \"#utility.yul\":5976:6029   */\n      pop\n      pop\n      jump\t// out\n        /* \"#utility.yul\":6035:6257   */\n    tag_38:\n        /* \"#utility.yul\":6128:6132   */\n      0x00\n        /* \"#utility.yul\":6166:6168   */\n      0x20\n        /* \"#utility.yul\":6155:6164   */\n      dup3\n        /* \"#utility.yul\":6151:6169   */\n      add\n        /* \"#utility.yul\":6143:6169   */\n      swap1\n      pop\n        /* \"#utility.yul\":6179:6250   */\n      tag_230\n        /* \"#utility.yul\":6247:6248   */\n      0x00\n        /* \"#utility.yul\":6236:6245   */\n      dup4\n        /* \"#utility.yul\":6232:6249   */\n      add\n        /* \"#utility.yul\":6223:6229   */\n      dup5\n        /* \"#utility.yul\":6179:6250   */\n      tag_172\n      jump\t// in\n    tag_230:\n        /* \"#utility.yul\":6133:6257   */\n      swap3\n      swap2\n      pop\n      pop\n      jump\t// out\n        /* \"#utility.yul\":6263:6473   */\n    tag_33:\n        /* \"#utility.yul\":6350:6354   */\n      0x00\n        /* \"#utility.yul\":6388:6390   */\n      0x20\n        /* \"#utility.yul\":6377:6386   */\n      dup3\n        /* \"#utility.yul\":6373:6391   */\n      add\n        /* \"#utility.yul\":6365:6391   */\n      swap1\n      pop\n        /* \"#utility.yul\":6401:6466   */\n      tag_232\n        /* \"#utility.yul\":6463:6464   */\n      0x00\n        /* \"#utility.yul\":6452:6461   */\n      dup4\n        /* \"#utility.yul\":6448:6465   */\n      add\n        /* \"#utility.yul\":6439:6445   */\n      dup5\n        /* \"#utility.yul\":6401:6466   */\n      tag_176\n      jump\t// in\n    tag_232:\n        /* \"#utility.yul\":6355:6473   */\n      swap3\n      swap2\n      pop\n      pop\n      jump\t// out\n        /* \"#utility.yul\":6479:7254   */\n    tag_44:\n        /* \"#utility.yul\":6714:6718   */\n      0x00\n        /* \"#utility.yul\":6752:6755   */\n      0xa0\n        /* \"#utility.yul\":6741:6750   */\n      dup3\n        /* \"#utility.yul\":6737:6756   */\n      add\n        /* \"#utility.yul\":6729:6756   */\n      swap1\n      pop\n        /* \"#utility.yul\":6802:6811   */\n      dup2\n        /* \"#utility.yul\":6796:6800   */\n      dup2\n        /* \"#utility.yul\":6792:6812   */\n      sub\n        /* \"#utility.yul\":6788:6789   */\n      0x00\n        /* \"#utility.yul\":6777:6786   */\n      dup4\n        /* \"#utility.yul\":6773:6790   */\n      add\n        /* \"#utility.yul\":6766:6813   */\n      mstore\n        /* \"#utility.yul\":6830:6908   */\n      tag_234\n        /* \"#utility.yul\":6903:6907   */\n      dup2\n        /* \"#utility.yul\":6894:6900   */\n      dup9\n        /* \"#utility.yul\":6830:6908   */\n      tag_180\n      jump\t// in\n    tag_234:\n        /* \"#utility.yul\":6822:6908   */\n      swap1\n      pop\n        /* \"#utility.yul\":6918:6990   */\n      tag_235\n        /* \"#utility.yul\":6986:6988   */\n      0x20\n        /* \"#utility.yul\":6975:6984   */\n      dup4\n        /* \"#utility.yul\":6971:6989   */\n      add\n        /* \"#utility.yul\":6962:6968   */\n      dup8\n        /* \"#utility.yul\":6918:6990   */\n      tag_225\n      jump\t// in\n    tag_235:\n        /* \"#utility.yul\":7000:7088   */\n      tag_236\n        /* \"#utility.yul\":7084:7086   */\n      0x40\n        /* \"#utility.yul\":7073:7082   */\n      dup4\n        /* \"#utility.yul\":7069:7087   */\n      add\n        /* \"#utility.yul\":7060:7066   */\n      dup7\n        /* \"#utility.yul\":7000:7088   */\n      tag_168\n      jump\t// in\n    tag_236:\n        /* \"#utility.yul\":7098:7164   */\n      tag_237\n        /* \"#utility.yul\":7160:7162   */\n      0x60\n        /* \"#utility.yul\":7149:7158   */\n      dup4\n        /* \"#utility.yul\":7145:7163   */\n      add\n        /* \"#utility.yul\":7136:7142   */\n      dup6\n        /* \"#utility.yul\":7098:7164   */\n      tag_176\n      jump\t// in\n    tag_237:\n        /* \"#utility.yul\":7174:7247   */\n      tag_238\n        /* \"#utility.yul\":7242:7245   */\n      0x80\n        /* \"#utility.yul\":7231:7240   */\n      dup4\n        /* \"#utility.yul\":7227:7246   */\n      add\n        /* \"#utility.yul\":7218:7224   */\n      dup5\n        /* \"#utility.yul\":7174:7247   */\n      tag_225\n      jump\t// in\n    tag_238:\n        /* \"#utility.yul\":6719:7254   */\n      swap7\n      swap6\n      pop\n      pop\n      pop\n      pop\n      pop\n      pop\n      jump\t// out\n        /* \"#utility.yul\":7260:7679   */\n    tag_86:\n        /* \"#utility.yul\":7426:7430   */\n      0x00\n        /* \"#utility.yul\":7464:7466   */\n      0x20\n        /* \"#utility.yul\":7453:7462   */\n      dup3\n        /* \"#utility.yul\":7449:7467   */\n      add\n        /* \"#utility.yul\":7441:7467   */\n      swap1\n      pop\n        /* \"#utility.yul\":7513:7522   */\n      dup2\n        /* \"#utility.yul\":7507:7511   */\n      dup2\n        /* \"#utility.yul\":7503:7523   */\n      sub\n        /* \"#utility.yul\":7499:7500   */\n      0x00\n        /* \"#utility.yul\":7488:7497   */\n      dup4\n        /* \"#utility.yul\":7484:7501   */\n      add\n        /* \"#utility.yul\":7477:7524   */\n      mstore\n        /* \"#utility.yul\":7541:7672   */\n      tag_240\n        /* \"#utility.yul\":7667:7671   */\n      dup2\n        /* \"#utility.yul\":7541:7672   */\n      tag_190\n      jump\t// in\n    tag_240:\n        /* \"#utility.yul\":7533:7672   */\n      swap1\n      pop\n        /* \"#utility.yul\":7431:7679   */\n      swap2\n      swap1\n      pop\n      jump\t// out\n        /* \"#utility.yul\":7685:8104   */\n    tag_83:\n        /* \"#utility.yul\":7851:7855   */\n      0x00\n        /* \"#utility.yul\":7889:7891   */\n      0x20\n        /* \"#utility.yul\":7878:7887   */\n      dup3\n        /* \"#utility.yul\":7874:7892   */\n      add\n        /* \"#utility.yul\":7866:7892   */\n      swap1\n      pop\n        /* \"#utility.yul\":7938:7947   */\n      dup2\n        /* \"#utility.yul\":7932:7936   */\n      dup2\n        /* \"#utility.yul\":7928:7948   */\n      sub\n        /* \"#utility.yul\":7924:7925   */\n      0x00\n        /* \"#utility.yul\":7913:7922   */\n      dup4\n        /* \"#utility.yul\":7909:7926   */\n      add\n        /* \"#utility.yul\":7902:7949   */\n      mstore\n        /* \"#utility.yul\":7966:8097   */\n      tag_242\n        /* \"#utility.yul\":8092:8096   */\n      dup2\n        /* \"#utility.yul\":7966:8097   */\n      tag_195\n      jump\t// in\n    tag_242:\n        /* \"#utility.yul\":7958:8097   */\n      swap1\n      pop\n        /* \"#utility.yul\":7856:8104   */\n      swap2\n      swap1\n      pop\n      jump\t// out\n        /* \"#utility.yul\":8110:8529   */\n    tag_105:\n        /* \"#utility.yul\":8276:8280   */\n      0x00\n        /* \"#utility.yul\":8314:8316   */\n      0x20\n        /* \"#utility.yul\":8303:8312   */\n      dup3\n        /* \"#utility.yul\":8299:8317   */\n      add\n        /* \"#utility.yul\":8291:8317   */\n      swap1\n      pop\n        /* \"#utility.yul\":8363:8372   */\n      dup2\n        /* \"#utility.yul\":8357:8361   */\n      dup2\n        /* \"#utility.yul\":8353:8373   */\n      sub\n        /* \"#utility.yul\":8349:8350   */\n      0x00\n        /* \"#utility.yul\":8338:8347   */\n      dup4\n        /* \"#utility.yul\":8334:8351   */\n      add\n        /* \"#utility.yul\":8327:8374   */\n      mstore\n        /* \"#utility.yul\":8391:8522   */\n      tag_244\n        /* \"#utility.yul\":8517:8521   */\n      dup2\n        /* \"#utility.yul\":8391:8522   */\n      tag_200\n      jump\t// in\n    tag_244:\n        /* \"#utility.yul\":8383:8522   */\n      swap1\n      pop\n        /* \"#utility.yul\":8281:8529   */\n      swap2\n      swap1\n      pop\n      jump\t// out\n        /* \"#utility.yul\":8535:8954   */\n    tag_78:\n        /* \"#utility.yul\":8701:8705   */\n      0x00\n        /* \"#utility.yul\":8739:8741   */\n      0x20\n        /* \"#utility.yul\":8728:8737   */\n      dup3\n        /* \"#utility.yul\":8724:8742   */\n      add\n        /* \"#utility.yul\":8716:8742   */\n      swap1\n      pop\n        /* \"#utility.yul\":8788:8797   */\n      dup2\n        /* \"#utility.yul\":8782:8786   */\n      dup2\n        /* \"#utility.yul\":8778:8798   */\n      sub\n        /* \"#utility.yul\":8774:8775   */\n      0x00\n        /* \"#utility.yul\":8763:8772   */\n      dup4\n        /* \"#utility.yul\":8759:8776   */\n      add\n        /* \"#utility.yul\":8752:8799   */\n      mstore\n        /* \"#utility.yul\":8816:8947   */\n      tag_246\n        /* \"#utility.yul\":8942:8946   */\n      dup2\n        /* \"#utility.yul\":8816:8947   */\n      tag_205\n      jump\t// in\n    tag_246:\n        /* \"#utility.yul\":8808:8947   */\n      swap1\n      pop\n        /* \"#utility.yul\":8706:8954   */\n      swap2\n      swap1\n      pop\n      jump\t// out\n        /* \"#utility.yul\":8960:9379   */\n    tag_74:\n        /* \"#utility.yul\":9126:9130   */\n      0x00\n        /* \"#utility.yul\":9164:9166   */\n      0x20\n        /* \"#utility.yul\":9153:9162   */\n      dup3\n        /* \"#utility.yul\":9149:9167   */\n      add\n        /* \"#utility.yul\":9141:9167   */\n      swap1\n      pop\n        /* \"#utility.yul\":9213:9222   */\n      dup2\n        /* \"#utility.yul\":9207:9211   */\n      dup2\n        /* \"#utility.yul\":9203:9223   */\n      sub\n        /* \"#utility.yul\":9199:9200   */\n      0x00\n        /* \"#utility.yul\":9188:9197   */\n      dup4\n        /* \"#utility.yul\":9184:9201   */\n      add\n        /* \"#utility.yul\":9177:9224   */\n      mstore\n        /* \"#utility.yul\":9241:9372   */\n      tag_248\n        /* \"#utility.yul\":9367:9371   */\n      dup2\n        /* \"#utility.yul\":9241:9372   */\n      tag_210\n      jump\t// in\n    tag_248:\n        /* \"#utility.yul\":9233:9372   */\n      swap1\n      pop\n        /* \"#utility.yul\":9131:9379   */\n      swap2\n      swap1\n      pop\n      jump\t// out\n        /* \"#utility.yul\":9385:9804   */\n    tag_111:\n        /* \"#utility.yul\":9551:9555   */\n      0x00\n        /* \"#utility.yul\":9589:9591   */\n      0x20\n        /* \"#utility.yul\":9578:9587   */\n      dup3\n        /* \"#utility.yul\":9574:9592   */\n      add\n        /* \"#utility.yul\":9566:9592   */\n      swap1\n      pop\n        /* \"#utility.yul\":9638:9647   */\n      dup2\n        /* \"#utility.yul\":9632:9636   */\n      dup2\n        /* \"#utility.yul\":9628:9648   */\n      sub\n        /* \"#utility.yul\":9624:9625   */\n      0x00\n        /* \"#utility.yul\":9613:9622   */\n      dup4\n        /* \"#utility.yul\":9609:9626   */\n      add\n        /* \"#utility.yul\":9602:9649   */\n      mstore\n        /* \"#utility.yul\":9666:9797   */\n      tag_250\n        /* \"#utility.yul\":9792:9796   */\n      dup2\n        /* \"#utility.yul\":9666:9797   */\n      tag_215\n      jump\t// in\n    tag_250:\n        /* \"#utility.yul\":9658:9797   */\n      swap1\n      pop\n        /* \"#utility.yul\":9556:9804   */\n      swap2\n      swap1\n      pop\n      jump\t// out\n        /* \"#utility.yul\":9810:10229   */\n    tag_18:\n        /* \"#utility.yul\":9976:9980   */\n      0x00\n        /* \"#utility.yul\":10014:10016   */\n      0x20\n        /* \"#utility.yul\":10003:10012   */\n      dup3\n        /* \"#utility.yul\":9999:10017   */\n      add\n        /* \"#utility.yul\":9991:10017   */\n      swap1\n      pop\n        /* \"#utility.yul\":10063:10072   */\n      dup2\n        /* \"#utility.yul\":10057:10061   */\n      dup2\n        /* \"#utility.yul\":10053:10073   */\n      sub\n        /* \"#utility.yul\":10049:10050   */\n      0x00\n        /* \"#utility.yul\":10038:10047   */\n      dup4\n        /* \"#utility.yul\":10034:10051   */\n      add\n        /* \"#utility.yul\":10027:10074   */\n      mstore\n        /* \"#utility.yul\":10091:10222   */\n      tag_252\n        /* \"#utility.yul\":10217:10221   */\n      dup2\n        /* \"#utility.yul\":10091:10222   */\n      tag_220\n      jump\t// in\n    tag_252:\n        /* \"#utility.yul\":10083:10222   */\n      swap1\n      pop\n        /* \"#utility.yul\":9981:10229   */\n      swap2\n      swap1\n      pop\n      jump\t// out\n        /* \"#utility.yul\":10235:10457   */\n    tag_49:\n        /* \"#utility.yul\":10328:10332   */\n      0x00\n        /* \"#utility.yul\":10366:10368   */\n      0x20\n        /* \"#utility.yul\":10355:10364   */\n      dup3\n        /* \"#utility.yul\":10351:10369   */\n      add\n        /* \"#utility.yul\":10343:10369   */\n      swap1\n      pop\n        /* \"#utility.yul\":10379:10450   */\n      tag_254\n        /* \"#utility.yul\":10447:10448   */\n      0x00\n        /* \"#utility.yul\":10436:10445   */\n      dup4\n        /* \"#utility.yul\":10432:10449   */\n      add\n        /* \"#utility.yul\":10423:10429   */\n      dup5\n        /* \"#utility.yul\":10379:10450   */\n      tag_225\n      jump\t// in\n    tag_254:\n        /* \"#utility.yul\":10333:10457   */\n      swap3\n      swap2\n      pop\n      pop\n      jump\t// out\n        /* \"#utility.yul\":10463:10592   */\n    tag_130:\n        /* \"#utility.yul\":10497:10503   */\n      0x00\n        /* \"#utility.yul\":10524:10544   */\n      tag_256\n      tag_257\n      jump\t// in\n    tag_256:\n        /* \"#utility.yul\":10514:10544   */\n      swap1\n      pop\n        /* \"#utility.yul\":10553:10586   */\n      tag_258\n        /* \"#utility.yul\":10581:10585   */\n      dup3\n        /* \"#utility.yul\":10573:10579   */\n      dup3\n        /* \"#utility.yul\":10553:10586   */\n      tag_259\n      jump\t// in\n    tag_258:\n        /* \"#utility.yul\":10504:10592   */\n      swap2\n      swap1\n      pop\n      jump\t// out\n        /* \"#utility.yul\":10598:10673   */\n    tag_257:\n        /* \"#utility.yul\":10631:10637   */\n      0x00\n        /* \"#utility.yul\":10664:10666   */\n      0x40\n        /* \"#utility.yul\":10658:10667   */\n      mload\n        /* \"#utility.yul\":10648:10667   */\n      swap1\n      pop\n        /* \"#utility.yul\":10638:10673   */\n      swap1\n      jump\t// out\n        /* \"#utility.yul\":10679:10987   */\n    tag_129:\n        /* \"#utility.yul\":10741:10745   */\n      0x00\n        /* \"#utility.yul\":10831:10849   */\n      0xffffffffffffffff\n        /* \"#utility.yul\":10823:10829   */\n      dup3\n        /* \"#utility.yul\":10820:10850   */\n      gt\n        /* \"#utility.yul\":10817:10819   */\n      iszero\n      tag_262\n      jumpi\n        /* \"#utility.yul\":10853:10871   */\n      tag_263\n      tag_264\n      jump\t// in\n    tag_263:\n        /* \"#utility.yul\":10817:10819   */\n    tag_262:\n        /* \"#utility.yul\":10891:10920   */\n      tag_265\n        /* \"#utility.yul\":10913:10919   */\n      dup3\n        /* \"#utility.yul\":10891:10920   */\n      tag_189\n      jump\t// in\n    tag_265:\n        /* \"#utility.yul\":10883:10920   */\n      swap1\n      pop\n        /* \"#utility.yul\":10975:10979   */\n      0x20\n        /* \"#utility.yul\":10969:10973   */\n      dup2\n        /* \"#utility.yul\":10965:10980   */\n      add\n        /* \"#utility.yul\":10957:10980   */\n      swap1\n      pop\n        /* \"#utility.yul\":10746:10987   */\n      swap2\n      swap1\n      pop\n      jump\t// out\n        /* \"#utility.yul\":10993:11092   */\n    tag_183:\n        /* \"#utility.yul\":11045:11051   */\n      0x00\n        /* \"#utility.yul\":11079:11084   */\n      dup2\n        /* \"#utility.yul\":11073:11085   */\n      mload\n        /* \"#utility.yul\":11063:11085   */\n      swap1\n      pop\n        /* \"#utility.yul\":11052:11092   */\n      swap2\n      swap1\n      pop\n      jump\t// out\n        /* \"#utility.yul\":11098:11267   */\n    tag_185:\n        /* \"#utility.yul\":11182:11193   */\n      0x00\n        /* \"#utility.yul\":11216:11222   */\n      dup3\n        /* \"#utility.yul\":11211:11214   */\n      dup3\n        /* \"#utility.yul\":11204:11223   */\n      mstore\n        /* \"#utility.yul\":11256:11260   */\n      0x20\n        /* \"#utility.yul\":11251:11254   */\n      dup3\n        /* \"#utility.yul\":11247:11261   */\n      add\n        /* \"#utility.yul\":11232:11261   */\n      swap1\n      pop\n        /* \"#utility.yul\":11194:11267   */\n      swap3\n      swap2\n      pop\n      pop\n      jump\t// out\n        /* \"#utility.yul\":11273:11458   */\n    tag_80:\n        /* \"#utility.yul\":11313:11314   */\n      0x00\n        /* \"#utility.yul\":11330:11350   */\n      tag_269\n        /* \"#utility.yul\":11348:11349   */\n      dup3\n        /* \"#utility.yul\":11330:11350   */\n      tag_228\n      jump\t// in\n    tag_269:\n        /* \"#utility.yul\":11325:11350   */\n      swap2\n      pop\n        /* \"#utility.yul\":11364:11384   */\n      tag_270\n        /* \"#utility.yul\":11382:11383   */\n      dup4\n        /* \"#utility.yul\":11364:11384   */\n      tag_228\n      jump\t// in\n    tag_270:\n        /* \"#utility.yul\":11359:11384   */\n      swap3\n      pop\n        /* \"#utility.yul\":11403:11404   */\n      dup3\n        /* \"#utility.yul\":11393:11395   */\n      tag_271\n      jumpi\n        /* \"#utility.yul\":11408:11426   */\n      tag_272\n      tag_273\n      jump\t// in\n    tag_272:\n        /* \"#utility.yul\":11393:11395   */\n    tag_271:\n        /* \"#utility.yul\":11450:11451   */\n      dup3\n        /* \"#utility.yul\":11447:11448   */\n      dup3\n        /* \"#utility.yul\":11443:11452   */\n      div\n        /* \"#utility.yul\":11438:11452   */\n      swap1\n      pop\n        /* \"#utility.yul\":11315:11458   */\n      swap3\n      swap2\n      pop\n      pop\n      jump\t// out\n        /* \"#utility.yul\":11464:11560   */\n    tag_175:\n        /* \"#utility.yul\":11501:11508   */\n      0x00\n        /* \"#utility.yul\":11530:11554   */\n      tag_275\n        /* \"#utility.yul\":11548:11553   */\n      dup3\n        /* \"#utility.yul\":11530:11554   */\n      tag_276\n      jump\t// in\n    tag_275:\n        /* \"#utility.yul\":11519:11554   */\n      swap1\n      pop\n        /* \"#utility.yul\":11509:11560   */\n      swap2\n      swap1\n      pop\n      jump\t// out\n        /* \"#utility.yul\":11566:11670   */\n    tag_171:\n        /* \"#utility.yul\":11611:11618   */\n      0x00\n        /* \"#utility.yul\":11640:11664   */\n      tag_278\n        /* \"#utility.yul\":11658:11663   */\n      dup3\n        /* \"#utility.yul\":11640:11664   */\n      tag_276\n      jump\t// in\n    tag_278:\n        /* \"#utility.yul\":11629:11664   */\n      swap1\n      pop\n        /* \"#utility.yul\":11619:11670   */\n      swap2\n      swap1\n      pop\n      jump\t// out\n        /* \"#utility.yul\":11676:11766   */\n    tag_179:\n        /* \"#utility.yul\":11710:11717   */\n      0x00\n        /* \"#utility.yul\":11753:11758   */\n      dup2\n        /* \"#utility.yul\":11746:11759   */\n      iszero\n        /* \"#utility.yul\":11739:11760   */\n      iszero\n        /* \"#utility.yul\":11728:11760   */\n      swap1\n      pop\n        /* \"#utility.yul\":11718:11766   */\n      swap2\n      swap1\n      pop\n      jump\t// out\n        /* \"#utility.yul\":11772:11898   */\n    tag_276:\n        /* \"#utility.yul\":11809:11816   */\n      0x00\n        /* \"#utility.yul\":11849:11891   */\n      0xffffffffffffffffffffffffffffffffffffffff\n        /* \"#utility.yul\":11842:11847   */\n      dup3\n        /* \"#utility.yul\":11838:11892   */\n      and\n        /* \"#utility.yul\":11827:11892   */\n      swap1\n      pop\n        /* \"#utility.yul\":11817:11898   */\n      swap2\n      swap1\n      pop\n      jump\t// out\n        /* \"#utility.yul\":11904:11981   */\n    tag_228:\n        /* \"#utility.yul\":11941:11948   */\n      0x00\n        /* \"#utility.yul\":11970:11975   */\n      dup2\n        /* \"#utility.yul\":11959:11975   */\n      swap1\n      pop\n        /* \"#utility.yul\":11949:11981   */\n      swap2\n      swap1\n      pop\n      jump\t// out\n        /* \"#utility.yul\":11987:12141   */\n    tag_135:\n        /* \"#utility.yul\":12071:12077   */\n      dup3\n        /* \"#utility.yul\":12066:12069   */\n      dup2\n        /* \"#utility.yul\":12061:12064   */\n      dup4\n        /* \"#utility.yul\":12048:12078   */\n      calldatacopy\n        /* \"#utility.yul\":12133:12134   */\n      0x00\n        /* \"#utility.yul\":12124:12130   */\n      dup4\n        /* \"#utility.yul\":12119:12122   */\n      dup4\n        /* \"#utility.yul\":12115:12131   */\n      add\n        /* \"#utility.yul\":12108:12135   */\n      mstore\n        /* \"#utility.yul\":12038:12141   */\n      pop\n      pop\n      pop\n      jump\t// out\n        /* \"#utility.yul\":12147:12454   */\n    tag_187:\n        /* \"#utility.yul\":12215:12216   */\n      0x00\n        /* \"#utility.yul\":12225:12338   */\n    tag_284:\n        /* \"#utility.yul\":12239:12245   */\n      dup4\n        /* \"#utility.yul\":12236:12237   */\n      dup2\n        /* \"#utility.yul\":12233:12246   */\n      lt\n        /* \"#utility.yul\":12225:12338   */\n      iszero\n      tag_286\n      jumpi\n        /* \"#utility.yul\":12324:12325   */\n      dup1\n        /* \"#utility.yul\":12319:12322   */\n      dup3\n        /* \"#utility.yul\":12315:12326   */\n      add\n        /* \"#utility.yul\":12309:12327   */\n      mload\n        /* \"#utility.yul\":12305:12306   */\n      dup2\n        /* \"#utility.yul\":12300:12303   */\n      dup5\n        /* \"#utility.yul\":12296:12307   */\n      add\n        /* \"#utility.yul\":12289:12328   */\n      mstore\n        /* \"#utility.yul\":12261:12263   */\n      0x20\n        /* \"#utility.yul\":12258:12259   */\n      dup2\n        /* \"#utility.yul\":12254:12264   */\n      add\n        /* \"#utility.yul\":12249:12264   */\n      swap1\n      pop\n        /* \"#utility.yul\":12225:12338   */\n      jump(tag_284)\n    tag_286:\n        /* \"#utility.yul\":12356:12362   */\n      dup4\n        /* \"#utility.yul\":12353:12354   */\n      dup2\n        /* \"#utility.yul\":12350:12363   */\n      gt\n        /* \"#utility.yul\":12347:12349   */\n      iszero\n      tag_287\n      jumpi\n        /* \"#utility.yul\":12436:12437   */\n      0x00\n        /* \"#utility.yul\":12427:12433   */\n      dup5\n        /* \"#utility.yul\":12422:12425   */\n      dup5\n        /* \"#utility.yul\":12418:12434   */\n      add\n        /* \"#utility.yul\":12411:12438   */\n      mstore\n        /* \"#utility.yul\":12347:12349   */\n    tag_287:\n        /* \"#utility.yul\":12196:12454   */\n      pop\n      pop\n      pop\n      pop\n      jump\t// out\n        /* \"#utility.yul\":12460:12780   */\n    tag_90:\n        /* \"#utility.yul\":12504:12510   */\n      0x00\n        /* \"#utility.yul\":12541:12542   */\n      0x02\n        /* \"#utility.yul\":12535:12539   */\n      dup3\n        /* \"#utility.yul\":12531:12543   */\n      div\n        /* \"#utility.yul\":12521:12543   */\n      swap1\n      pop\n        /* \"#utility.yul\":12588:12589   */\n      0x01\n        /* \"#utility.yul\":12582:12586   */\n      dup3\n        /* \"#utility.yul\":12578:12590   */\n      and\n        /* \"#utility.yul\":12609:12627   */\n      dup1\n        /* \"#utility.yul\":12599:12601   */\n      tag_289\n      jumpi\n        /* \"#utility.yul\":12665:12669   */\n      0x7f\n        /* \"#utility.yul\":12657:12663   */\n      dup3\n        /* \"#utility.yul\":12653:12670   */\n      and\n        /* \"#utility.yul\":12643:12670   */\n      swap2\n      pop\n        /* \"#utility.yul\":12599:12601   */\n    tag_289:\n        /* \"#utility.yul\":12727:12729   */\n      0x20\n        /* \"#utility.yul\":12719:12725   */\n      dup3\n        /* \"#utility.yul\":12716:12730   */\n      lt\n        /* \"#utility.yul\":12696:12714   */\n      dup2\n        /* \"#utility.yul\":12693:12731   */\n      eq\n        /* \"#utility.yul\":12690:12692   */\n      iszero\n      tag_290\n      jumpi\n        /* \"#utility.yul\":12746:12764   */\n      tag_291\n      tag_292\n      jump\t// in\n    tag_291:\n        /* \"#utility.yul\":12690:12692   */\n    tag_290:\n        /* \"#utility.yul\":12511:12780   */\n      pop\n      swap2\n      swap1\n      pop\n      jump\t// out\n        /* \"#utility.yul\":12786:13067   */\n    tag_259:\n        /* \"#utility.yul\":12869:12896   */\n      tag_294\n        /* \"#utility.yul\":12891:12895   */\n      dup3\n        /* \"#utility.yul\":12869:12896   */\n      tag_189\n      jump\t// in\n    tag_294:\n        /* \"#utility.yul\":12861:12867   */\n      dup2\n        /* \"#utility.yul\":12857:12897   */\n      add\n        /* \"#utility.yul\":12999:13005   */\n      dup2\n        /* \"#utility.yul\":12987:12997   */\n      dup2\n        /* \"#utility.yul\":12984:13006   */\n      lt\n        /* \"#utility.yul\":12963:12981   */\n      0xffffffffffffffff\n        /* \"#utility.yul\":12951:12961   */\n      dup3\n        /* \"#utility.yul\":12948:12982   */\n      gt\n        /* \"#utility.yul\":12945:13007   */\n      or\n        /* \"#utility.yul\":12942:12944   */\n      iszero\n      tag_295\n      jumpi\n        /* \"#utility.yul\":13010:13028   */\n      tag_296\n      tag_264\n      jump\t// in\n    tag_296:\n        /* \"#utility.yul\":12942:12944   */\n    tag_295:\n        /* \"#utility.yul\":13050:13060   */\n      dup1\n        /* \"#utility.yul\":13046:13048   */\n      0x40\n        /* \"#utility.yul\":13039:13061   */\n      mstore\n        /* \"#utility.yul\":12829:13067   */\n      pop\n      pop\n      pop\n      jump\t// out\n        /* \"#utility.yul\":13073:13306   */\n    tag_21:\n        /* \"#utility.yul\":13112:13115   */\n      0x00\n        /* \"#utility.yul\":13135:13159   */\n      tag_298\n        /* \"#utility.yul\":13153:13158   */\n      dup3\n        /* \"#utility.yul\":13135:13159   */\n      tag_228\n      jump\t// in\n    tag_298:\n        /* \"#utility.yul\":13126:13159   */\n      swap2\n      pop\n        /* \"#utility.yul\":13181:13247   */\n      0xffffffffffffffffffffffffffffffffffffffffffffffffffffffffffffffff\n        /* \"#utility.yul\":13174:13179   */\n      dup3\n        /* \"#utility.yul\":13171:13248   */\n      eq\n        /* \"#utility.yul\":13168:13170   */\n      iszero\n      tag_299\n      jumpi\n        /* \"#utility.yul\":13251:13269   */\n      tag_300\n      tag_301\n      jump\t// in\n    tag_300:\n        /* \"#utility.yul\":13168:13170   */\n    tag_299:\n        /* \"#utility.yul\":13298:13299   */\n      0x01\n        /* \"#utility.yul\":13291:13296   */\n      dup3\n        /* \"#utility.yul\":13287:13300   */\n      add\n        /* \"#utility.yul\":13280:13300   */\n      swap1\n      pop\n        /* \"#utility.yul\":13116:13306   */\n      swap2\n      swap1\n      pop\n      jump\t// out\n        /* \"#utility.yul\":13312:13492   */\n    tag_301:\n        /* \"#utility.yul\":13360:13437   */\n      0x4e487b7100000000000000000000000000000000000000000000000000000000\n        /* \"#utility.yul\":13357:13358   */\n      0x00\n        /* \"#utility.yul\":13350:13438   */\n      mstore\n        /* \"#utility.yul\":13457:13461   */\n      0x11\n        /* \"#utility.yul\":13454:13455   */\n      0x04\n        /* \"#utility.yul\":13447:13462   */\n      mstore\n        /* \"#utility.yul\":13481:13485   */\n      0x24\n        /* \"#utility.yul\":13478:13479   */\n      0x00\n        /* \"#utility.yul\":13471:13486   */\n      revert\n        /* \"#utility.yul\":13498:13678   */\n    tag_273:\n        /* \"#utility.yul\":13546:13623   */\n      0x4e487b7100000000000000000000000000000000000000000000000000000000\n        /* \"#utility.yul\":13543:13544   */\n      0x00\n        /* \"#utility.yul\":13536:13624   */\n      mstore\n        /* \"#utility.yul\":13643:13647   */\n      0x12\n        /* \"#utility.yul\":13640:13641   */\n      0x04\n        /* \"#utility.yul\":13633:13648   */\n      mstore\n        /* \"#utility.yul\":13667:13671   */\n      0x24\n        /* \"#utility.yul\":13664:13665   */\n      0x00\n        /* \"#utility.yul\":13657:13672   */\n      revert\n        /* \"#utility.yul\":13684:13864   */\n    tag_292:\n        /* \"#utility.yul\":13732:13809   */\n      0x4e487b7100000000000000000000000000000000000000000000000000000000\n        /* \"#utility.yul\":13729:13730   */\n      0x00\n        /* \"#utility.yul\":13722:13810   */\n      mstore\n        /* \"#utility.yul\":13829:13833   */\n      0x22\n        /* \"#utility.yul\":13826:13827   */\n      0x04\n        /* \"#utility.yul\":13819:13834   */\n      mstore\n        /* \"#utility.yul\":13853:13857   */\n      0x24\n        /* \"#utility.yul\":13850:13851   */\n      0x00\n        /* \"#utility.yul\":13843:13858   */\n      revert\n        /* \"#utility.yul\":13870:14050   */\n    tag_264:\n        /* \"#utility.yul\":13918:13995   */\n      0x4e487b7100000000000000000000000000000000000000000000000000000000\n        /* \"#utility.yul\":13915:13916   */\n      0x00\n        /* \"#utility.yul\":13908:13996   */\n      mstore\n        /* \"#utility.yul\":14015:14019   */\n      0x41\n        /* \"#utility.yul\":14012:14013   */\n      0x04\n        /* \"#utility.yul\":14005:14020   */\n      mstore\n        /* \"#utility.yul\":14039:14043   */\n      0x24\n        /* \"#utility.yul\":14036:14037   */\n      0x00\n        /* \"#utility.yul\":14029:14044   */\n      revert\n        /* \"#utility.yul\":14056:14173   */\n    tag_144:\n        /* \"#utility.yul\":14165:14166   */\n      0x00\n        /* \"#utility.yul\":14162:14163   */\n      dup1\n        /* \"#utility.yul\":14155:14167   */\n      revert\n        /* \"#utility.yul\":14179:14296   */\n    tag_133:\n        /* \"#utility.yul\":14288:14289   */\n      0x00\n        /* \"#utility.yul\":14285:14286   */\n      dup1\n        /* \"#utility.yul\":14278:14290   */\n      revert\n        /* \"#utility.yul\":14302:14419   */\n    tag_160:\n        /* \"#utility.yul\":14411:14412   */\n      0x00\n        /* \"#utility.yul\":14408:14409   */\n      dup1\n        /* \"#utility.yul\":14401:14413   */\n      revert\n        /* \"#utility.yul\":14425:14542   */\n    tag_153:\n        /* \"#utility.yul\":14534:14535   */\n      0x00\n        /* \"#utility.yul\":14531:14532   */\n      dup1\n        /* \"#utility.yul\":14524:14536   */\n      revert\n        /* \"#utility.yul\":14548:14650   */\n    tag_189:\n        /* \"#utility.yul\":14589:14595   */\n      0x00\n        /* \"#utility.yul\":14640:14642   */\n      0x1f\n        /* \"#utility.yul\":14636:14643   */\n      not\n        /* \"#utility.yul\":14631:14633   */\n      0x1f\n        /* \"#utility.yul\":14624:14629   */\n      dup4\n        /* \"#utility.yul\":14620:14634   */\n      add\n        /* \"#utility.yul\":14616:14644   */\n      and\n        /* \"#utility.yul\":14606:14644   */\n      swap1\n      pop\n        /* \"#utility.yul\":14596:14650   */\n      swap2\n      swap1\n      pop\n      jump\t// out\n        /* \"#utility.yul\":14656:14881   */\n    tag_194:\n        /* \"#utility.yul\":14796:14830   */\n      0x7265717565737420697320616c7265616479206d61726b656420617320636f6d\n        /* \"#utility.yul\":14792:14793   */\n      0x00\n        /* \"#utility.yul\":14784:14790   */\n      dup3\n        /* \"#utility.yul\":14780:14794   */\n      add\n        /* \"#utility.yul\":14773:14831   */\n      mstore\n        /* \"#utility.yul\":14865:14873   */\n      0x706c657465640000000000000000000000000000000000000000000000000000\n        /* \"#utility.yul\":14860:14862   */\n      0x20\n        /* \"#utility.yul\":14852:14858   */\n      dup3\n        /* \"#utility.yul\":14848:14863   */\n      add\n        /* \"#utility.yul\":14841:14874   */\n      mstore\n        /* \"#utility.yul\":14762:14881   */\n      pop\n      jump\t// out\n        /* \"#utility.yul\":14887:15187   */\n    tag_199:\n        /* \"#utility.yul\":15027:15061   */\n      0x726571756573742063616e6e6f7420626520636f6d706c657465642c20617320\n        /* \"#utility.yul\":15023:15024   */\n      0x00\n        /* \"#utility.yul\":15015:15021   */\n      dup3\n        /* \"#utility.yul\":15011:15025   */\n      add\n        /* \"#utility.yul\":15004:15062   */\n      mstore\n        /* \"#utility.yul\":15096:15130   */\n      0x697420646f65736e2774206d656574207265717569726564206e756d62657220\n        /* \"#utility.yul\":15091:15093   */\n      0x20\n        /* \"#utility.yul\":15083:15089   */\n      dup3\n        /* \"#utility.yul\":15079:15094   */\n      add\n        /* \"#utility.yul\":15072:15131   */\n      mstore\n        /* \"#utility.yul\":15165:15179   */\n      0x6f6620617070726f76616c730000000000000000000000000000000000000000\n        /* \"#utility.yul\":15160:15162   */\n      0x40\n        /* \"#utility.yul\":15152:15158   */\n      dup3\n        /* \"#utility.yul\":15148:15163   */\n      add\n        /* \"#utility.yul\":15141:15180   */\n      mstore\n        /* \"#utility.yul\":14993:15187   */\n      pop\n      jump\t// out\n        /* \"#utility.yul\":15193:15414   */\n    tag_204:\n        /* \"#utility.yul\":15333:15367   */\n      0x796f7520617265206e6f7420616e20617574686f72697a656420617070726f76\n        /* \"#utility.yul\":15329:15330   */\n      0x00\n        /* \"#utility.yul\":15321:15327   */\n      dup3\n        /* \"#utility.yul\":15317:15331   */\n      add\n        /* \"#utility.yul\":15310:15368   */\n      mstore\n        /* \"#utility.yul\":15402:15406   */\n      0x6572000000000000000000000000000000000000000000000000000000000000\n        /* \"#utility.yul\":15397:15399   */\n      0x20\n        /* \"#utility.yul\":15389:15395   */\n      dup3\n        /* \"#utility.yul\":15385:15400   */\n      add\n        /* \"#utility.yul\":15378:15407   */\n      mstore\n        /* \"#utility.yul\":15299:15414   */\n      pop\n      jump\t// out\n        /* \"#utility.yul\":15420:15592   */\n    tag_209:\n        /* \"#utility.yul\":15560:15584   */\n      0x696e76616c69642072657175657374206e756d62657200000000000000000000\n        /* \"#utility.yul\":15556:15557   */\n      0x00\n        /* \"#utility.yul\":15548:15554   */\n      dup3\n        /* \"#utility.yul\":15544:15558   */\n      add\n        /* \"#utility.yul\":15537:15585   */\n      mstore\n        /* \"#utility.yul\":15526:15592   */\n      pop\n      jump\t// out\n        /* \"#utility.yul\":15598:15774   */\n    tag_214:\n        /* \"#utility.yul\":15738:15766   */\n      0x4f6e6c79206d616e6167657220697320617574686f72697a6564000000000000\n        /* \"#utility.yul\":15734:15735   */\n      0x00\n        /* \"#utility.yul\":15726:15732   */\n      dup3\n        /* \"#utility.yul\":15722:15736   */\n      add\n        /* \"#utility.yul\":15715:15767   */\n      mstore\n        /* \"#utility.yul\":15704:15774   */\n      pop\n      jump\t// out\n        /* \"#utility.yul\":15780:16005   */\n    tag_219:\n        /* \"#utility.yul\":15920:15954   */\n      0x796f75206861766520616c726561647920617070726f76656420746869732072\n        /* \"#utility.yul\":15916:15917   */\n      0x00\n        /* \"#utility.yul\":15908:15914   */\n      dup3\n        /* \"#utility.yul\":15904:15918   */\n      add\n        /* \"#utility.yul\":15897:15955   */\n      mstore\n        /* \"#utility.yul\":15989:15997   */\n      0x6571756573740000000000000000000000000000000000000000000000000000\n        /* \"#utility.yul\":15984:15986   */\n      0x20\n        /* \"#utility.yul\":15976:15982   */\n      dup3\n        /* \"#utility.yul\":15972:15987   */\n      add\n        /* \"#utility.yul\":15965:15998   */\n      mstore\n        /* \"#utility.yul\":15886:16005   */\n      pop\n      jump\t// out\n        /* \"#utility.yul\":16011:16261   */\n    tag_224:\n        /* \"#utility.yul\":16151:16185   */\n      0x636f6e747269627574696f6e2073656e64206e6565647320746f206d65657420\n        /* \"#utility.yul\":16147:16148   */\n      0x00\n        /* \"#utility.yul\":16139:16145   */\n      dup3\n        /* \"#utility.yul\":16135:16149   */\n      add\n        /* \"#utility.yul\":16128:16186   */\n      mstore\n        /* \"#utility.yul\":16220:16253   */\n      0x746865206d696e696d756d20636f6e747269627574696f6e20616d6f756e7400\n        /* \"#utility.yul\":16215:16217   */\n      0x20\n        /* \"#utility.yul\":16207:16213   */\n      dup3\n        /* \"#utility.yul\":16203:16218   */\n      add\n        /* \"#utility.yul\":16196:16254   */\n      mstore\n        /* \"#utility.yul\":16117:16261   */\n      pop\n      jump\t// out\n        /* \"#utility.yul\":16267:16389   */\n    tag_139:\n        /* \"#utility.yul\":16340:16364   */\n      tag_319\n        /* \"#utility.yul\":16358:16363   */\n      dup2\n        /* \"#utility.yul\":16340:16364   */\n      tag_175\n      jump\t// in\n    tag_319:\n        /* \"#utility.yul\":16333:16338   */\n      dup2\n        /* \"#utility.yul\":16330:16365   */\n      eq\n        /* \"#utility.yul\":16320:16322   */\n      tag_320\n      jumpi\n        /* \"#utility.yul\":16379:16380   */\n      0x00\n        /* \"#utility.yul\":16376:16377   */\n      dup1\n        /* \"#utility.yul\":16369:16381   */\n      revert\n        /* \"#utility.yul\":16320:16322   */\n    tag_320:\n        /* \"#utility.yul\":16310:16389   */\n      pop\n      jump\t// out\n        /* \"#utility.yul\":16395:16517   */\n    tag_149:\n        /* \"#utility.yul\":16468:16492   */\n      tag_322\n        /* \"#utility.yul\":16486:16491   */\n      dup2\n        /* \"#utility.yul\":16468:16492   */\n      tag_228\n      jump\t// in\n    tag_322:\n        /* \"#utility.yul\":16461:16466   */\n      dup2\n        /* \"#utility.yul\":16458:16493   */\n      eq\n        /* \"#utility.yul\":16448:16450   */\n      tag_323\n      jumpi\n        /* \"#utility.yul\":16507:16508   */\n      0x00\n        /* \"#utility.yul\":16504:16505   */\n      dup1\n        /* \"#utility.yul\":16497:16509   */\n      revert\n        /* \"#utility.yul\":16448:16450   */\n    tag_323:\n        /* \"#utility.yul\":16438:16517   */\n      pop\n      jump\t// out\n\n    auxdata: 0xa2646970667358221220e5ddac0ae8786da41dccd0d5ca3d7a516582f1955ab62a39ef6ea9e46384e1d564736f6c63430008060033\n}\n","bytecode":{"linkReferences":{},"object":"60806040523480156200001157600080fd5b50604051620015e0380380620015e08339818101604052810190620000379190620000b5565b80600260006101000a81548173ffffffffffffffffffffffffffffffffffffffff021916908373ffffffffffffffffffffffffffffffffffffffff16021790555081600381905550505062000173565b60008151905062000098816200013f565b92915050565b600081519050620000af8162000159565b92915050565b60008060408385031215620000cf57620000ce6200013a565b5b6000620000df858286016200009e565b9250506020620000f28582860162000087565b9150509250929050565b6000620001098262000110565b9050919050565b600073ffffffffffffffffffffffffffffffffffffffff82169050919050565b6000819050919050565b600080fd5b6200014a81620000fc565b81146200015657600080fd5b50565b620001648162000130565b81146200017057600080fd5b50565b61145d80620001836000396000f3fe6080604052600436106100955760003560e01c80638a9cfd55116100595780638a9cfd55146102a5578063937e09b1146102ce578063b6290e76146102f9578063d7d1bbdb14610324578063eb8bbd281461034d576101a3565b806303441006146101a85780630a144391146101d1578063481c6a751461020e57806381d12c581461023957806382fde0931461027a576101a3565b366101a3576003543410156100df576040517f08c379a00000000000000000000000000000000000000000000000000000000081526004016100d690610eef565b60405180910390fd5b600560003373ffffffffffffffffffffffffffffffffffffffff1673ffffffffffffffffffffffffffffffffffffffff16815260200190815260200160002060009054906101000a900460ff166101a1576001600560003373ffffffffffffffffffffffffffffffffffffffff1673ffffffffffffffffffffffffffffffffffffffff16815260200190815260200160002060006101000a81548160ff0219169083151502179055506004600081548092919061019b906110cc565b91905055505b005b600080fd5b3480156101b457600080fd5b506101cf60048036038101906101ca9190610c08565b610378565b005b3480156101dd57600080fd5b506101f860048036038101906101f39190610b6c565b61059a565b6040516102059190610dba565b60405180910390f35b34801561021a57600080fd5b506102236105ba565b6040516102309190610d9f565b60405180910390f35b34801561024557600080fd5b50610260600480360381019061025b9190610c08565b6105e0565b604051610271959493929190610dd5565b60405180910390f35b34801561028657600080fd5b5061028f6106cb565b60405161029c9190610f0f565b60405180910390f35b3480156102b157600080fd5b506102cc60048036038101906102c79190610b99565b6106d1565b005b3480156102da57600080fd5b506102e361081f565b6040516102f09190610f0f565b60405180910390f35b34801561030557600080fd5b5061030e610825565b60405161031b9190610f0f565b60405180910390f35b34801561033057600080fd5b5061034b60048036038101906103469190610c08565b61082b565b005b34801561035957600080fd5b50610362610a27565b60405161036f9190610f0f565b60405180910390f35b600260009054906101000a900473ffffffffffffffffffffffffffffffffffffffff1673ffffffffffffffffffffffffffffffffffffffff163373ffffffffffffffffffffffffffffffffffffffff1614610408576040517f08c379a00000000000000000000000000000000000000000000000000000000081526004016103ff90610eaf565b60405180910390fd5b60005481111561044d576040517f08c379a000000000000000000000000000000000000000000000000000000000815260040161044490610e8f565b60405180910390fd5b600060016000838152602001908152602001600020905060026004546104739190610f9c565b8160030154116104b8576040517f08c379a00000000000000000000000000000000000000000000000000000000081526004016104af90610e4f565b60405180910390fd5b8060020160149054906101000a900460ff161561050a576040517f08c379a000000000000000000000000000000000000000000000000000000000815260040161050190610e2f565b60405180910390fd5b8060020160009054906101000a900473ffffffffffffffffffffffffffffffffffffffff1673ffffffffffffffffffffffffffffffffffffffff166108fc82600101549081150290604051600060405180830381858888f19350505050158015610578573d6000803e3d6000fd5b5060018160020160146101000a81548160ff0219169083151502179055505050565b60056020528060005260406000206000915054906101000a900460ff1681565b600260009054906101000a900473ffffffffffffffffffffffffffffffffffffffff1681565b600160205280600052604060002060009150905080600001805461060390611069565b80601f016020809104026020016040519081016040528092919081815260200182805461062f90611069565b801561067c5780601f106106515761010080835404028352916020019161067c565b820191906000526020600020905b81548152906001019060200180831161065f57829003601f168201915b5050505050908060010154908060020160009054906101000a900473ffffffffffffffffffffffffffffffffffffffff16908060020160149054906101000a900460ff16908060030154905085565b60045481565b600260009054906101000a900473ffffffffffffffffffffffffffffffffffffffff1673ffffffffffffffffffffffffffffffffffffffff163373ffffffffffffffffffffffffffffffffffffffff1614610761576040517f08c379a000000000000000000000000000000000000000000000000000000000815260040161075890610eaf565b60405180910390fd5b600060016000806000815480929190610779906110cc565b9190505581526020019081526020016000209050838160000190805190602001906107a5929190610a2f565b50828160010181905550818160020160006101000a81548173ffffffffffffffffffffffffffffffffffffffff021916908373ffffffffffffffffffffffffffffffffffffffff16021790555060008160020160146101000a81548160ff0219169083151502179055506000816003018190555050505050565b60035481565b60005481565b600560003373ffffffffffffffffffffffffffffffffffffffff1673ffffffffffffffffffffffffffffffffffffffff16815260200190815260200160002060009054906101000a900460ff166108b7576040517f08c379a00000000000000000000000000000000000000000000000000000000081526004016108ae90610e6f565b60405180910390fd5b600081101580156108ca57506000548111155b610909576040517f08c379a000000000000000000000000000000000000000000000000000000000815260040161090090610e8f565b60405180910390fd5b60006001600083815260200190815260200160002090508060040160003373ffffffffffffffffffffffffffffffffffffffff1673ffffffffffffffffffffffffffffffffffffffff16815260200190815260200160002060009054906101000a900460ff16156109af576040517f08c379a00000000000000000000000000000000000000000000000000000000081526004016109a690610ecf565b60405180910390fd5b60018160040160003373ffffffffffffffffffffffffffffffffffffffff1673ffffffffffffffffffffffffffffffffffffffff16815260200190815260200160002060006101000a81548160ff021916908315150217905550806003016000815480929190610a1e906110cc565b91905055505050565b600047905090565b828054610a3b90611069565b90600052602060002090601f016020900481019282610a5d5760008555610aa4565b82601f10610a7657805160ff1916838001178555610aa4565b82800160010185558215610aa4579182015b82811115610aa3578251825591602001919060010190610a88565b5b509050610ab19190610ab5565b5090565b5b80821115610ace576000816000905550600101610ab6565b5090565b6000610ae5610ae084610f4f565b610f2a565b905082815260208101848484011115610b0157610b006111d6565b5b610b0c848285611027565b509392505050565b600081359050610b23816113f9565b92915050565b600082601f830112610b3e57610b3d6111d1565b5b8135610b4e848260208601610ad2565b91505092915050565b600081359050610b6681611410565b92915050565b600060208284031215610b8257610b816111e0565b5b6000610b9084828501610b14565b91505092915050565b600080600060608486031215610bb257610bb16111e0565b5b600084013567ffffffffffffffff811115610bd057610bcf6111db565b5b610bdc86828701610b29565b9350506020610bed86828701610b57565b9250506040610bfe86828701610b14565b9150509250925092565b600060208284031215610c1e57610c1d6111e0565b5b6000610c2c84828501610b57565b91505092915050565b610c3e81610fdf565b82525050565b610c4d81610fcd565b82525050565b610c5c81610ff1565b82525050565b6000610c6d82610f80565b610c778185610f8b565b9350610c87818560208601611036565b610c90816111e5565b840191505092915050565b6000610ca8602683610f8b565b9150610cb3826111f6565b604082019050919050565b6000610ccb604c83610f8b565b9150610cd682611245565b606082019050919050565b6000610cee602283610f8b565b9150610cf9826112ba565b604082019050919050565b6000610d11601683610f8b565b9150610d1c82611309565b602082019050919050565b6000610d34601a83610f8b565b9150610d3f82611332565b602082019050919050565b6000610d57602683610f8b565b9150610d628261135b565b604082019050919050565b6000610d7a603f83610f8b565b9150610d85826113aa565b604082019050919050565b610d998161101d565b82525050565b6000602082019050610db46000830184610c44565b92915050565b6000602082019050610dcf6000830184610c53565b92915050565b600060a0820190508181036000830152610def8188610c62565b9050610dfe6020830187610d90565b610e0b6040830186610c35565b610e186060830185610c53565b610e256080830184610d90565b9695505050505050565b60006020820190508181036000830152610e4881610c9b565b9050919050565b60006020820190508181036000830152610e6881610cbe565b9050919050565b60006020820190508181036000830152610e8881610ce1565b9050919050565b60006020820190508181036000830152610ea881610d04565b9050919050565b60006020820190508181036000830152610ec881610d27565b9050919050565b60006020820190508181036000830152610ee881610d4a565b9050919050565b60006020820190508181036000830152610f0881610d6d565b9050919050565b6000602082019050610f246000830184610d90565b92915050565b6000610f34610f45565b9050610f40828261109b565b919050565b6000604051905090565b600067ffffffffffffffff821115610f6a57610f696111a2565b5b610f73826111e5565b9050602081019050919050565b600081519050919050565b600082825260208201905092915050565b6000610fa78261101d565b9150610fb28361101d565b925082610fc257610fc1611144565b5b828204905092915050565b6000610fd882610ffd565b9050919050565b6000610fea82610ffd565b9050919050565b60008115159050919050565b600073ffffffffffffffffffffffffffffffffffffffff82169050919050565b6000819050919050565b82818337600083830152505050565b60005b83811015611054578082015181840152602081019050611039565b83811115611063576000848401525b50505050565b6000600282049050600182168061108157607f821691505b6020821081141561109557611094611173565b5b50919050565b6110a4826111e5565b810181811067ffffffffffffffff821117156110c3576110c26111a2565b5b80604052505050565b60006110d78261101d565b91507fffffffffffffffffffffffffffffffffffffffffffffffffffffffffffffffff82141561110a57611109611115565b5b600182019050919050565b7f4e487b7100000000000000000000000000000000000000000000000000000000600052601160045260246000fd5b7f4e487b7100000000000000000000000000000000000000000000000000000000600052601260045260246000fd5b7f4e487b7100000000000000000000000000000000000000000000000000000000600052602260045260246000fd5b7f4e487b7100000000000000000000000000000000000000000000000000000000600052604160045260246000fd5b600080fd5b600080fd5b600080fd5b600080fd5b6000601f19601f8301169050919050565b7f7265717565737420697320616c7265616479206d61726b656420617320636f6d60008201527f706c657465640000000000000000000000000000000000000000000000000000602082015250565b7f726571756573742063616e6e6f7420626520636f6d706c657465642c2061732060008201527f697420646f65736e2774206d656574207265717569726564206e756d6265722060208201527f6f6620617070726f76616c730000000000000000000000000000000000000000604082015250565b7f796f7520617265206e6f7420616e20617574686f72697a656420617070726f7660008201527f6572000000000000000000000000000000000000000000000000000000000000602082015250565b7f696e76616c69642072657175657374206e756d62657200000000000000000000600082015250565b7f4f6e6c79206d616e6167657220697320617574686f72697a6564000000000000600082015250565b7f796f75206861766520616c726561647920617070726f7665642074686973207260008201527f6571756573740000000000000000000000000000000000000000000000000000602082015250565b7f636f6e747269627574696f6e2073656e64206e6565647320746f206d6565742060008201527f746865206d696e696d756d20636f6e747269627574696f6e20616d6f756e7400602082015250565b61140281610fcd565b811461140d57600080fd5b50565b6114198161101d565b811461142457600080fd5b5056fea2646970667358221220e5ddac0ae8786da41dccd0d5ca3d7a516582f1955ab62a39ef6ea9e46384e1d564736f6c63430008060033","opcodes":"PUSH1 0x80 PUSH1 0x40 MSTORE CALLVALUE DUP1 ISZERO PUSH3 0x11 JUMPI PUSH1 0x0 DUP1 REVERT JUMPDEST POP PUSH1 0x40 MLOAD PUSH3 0x15E0 CODESIZE SUB DUP1 PUSH3 0x15E0 DUP4 CODECOPY DUP2 DUP2 ADD PUSH1 0x40 MSTORE DUP2 ADD SWAP1 PUSH3 0x37 SWAP2 SWAP1 PUSH3 0xB5 JUMP JUMPDEST DUP1 PUSH1 0x2 PUSH1 0x0 PUSH2 0x100 EXP DUP2 SLOAD DUP2 PUSH20 0xFFFFFFFFFFFFFFFFFFFFFFFFFFFFFFFFFFFFFFFF MUL NOT AND SWAP1 DUP4 PUSH20 0xFFFFFFFFFFFFFFFFFFFFFFFFFFFFFFFFFFFFFFFF AND MUL OR SWAP1 SSTORE POP DUP2 PUSH1 0x3 DUP2 SWAP1 SSTORE POP POP POP PUSH3 0x173 JUMP JUMPDEST PUSH1 0x0 DUP2 MLOAD SWAP1 POP PUSH3 0x98 DUP2 PUSH3 0x13F JUMP JUMPDEST SWAP3 SWAP2 POP POP JUMP JUMPDEST PUSH1 0x0 DUP2 MLOAD SWAP1 POP PUSH3 0xAF DUP2 PUSH3 0x159 JUMP JUMPDEST SWAP3 SWAP2 POP POP JUMP JUMPDEST PUSH1 0x0 DUP1 PUSH1 0x40 DUP4 DUP6 SUB SLT ISZERO PUSH3 0xCF JUMPI PUSH3 0xCE PUSH3 0x13A JUMP JUMPDEST JUMPDEST PUSH1 0x0 PUSH3 0xDF DUP6 DUP3 DUP7 ADD PUSH3 0x9E JUMP JUMPDEST SWAP3 POP POP PUSH1 0x20 PUSH3 0xF2 DUP6 DUP3 DUP7 ADD PUSH3 0x87 JUMP JUMPDEST SWAP2 POP POP SWAP3 POP SWAP3 SWAP1 POP JUMP JUMPDEST PUSH1 0x0 PUSH3 0x109 DUP3 PUSH3 0x110 JUMP JUMPDEST SWAP1 POP SWAP2 SWAP1 POP JUMP JUMPDEST PUSH1 0x0 PUSH20 0xFFFFFFFFFFFFFFFFFFFFFFFFFFFFFFFFFFFFFFFF DUP3 AND SWAP1 POP SWAP2 SWAP1 POP JUMP JUMPDEST PUSH1 0x0 DUP2 SWAP1 POP SWAP2 SWAP1 POP JUMP JUMPDEST PUSH1 0x0 DUP1 REVERT JUMPDEST PUSH3 0x14A DUP2 PUSH3 0xFC JUMP JUMPDEST DUP2 EQ PUSH3 0x156 JUMPI PUSH1 0x0 DUP1 REVERT JUMPDEST POP JUMP JUMPDEST PUSH3 0x164 DUP2 PUSH3 0x130 JUMP JUMPDEST DUP2 EQ PUSH3 0x170 JUMPI PUSH1 0x0 DUP1 REVERT JUMPDEST POP JUMP JUMPDEST PUSH2 0x145D DUP1 PUSH3 0x183 PUSH1 0x0 CODECOPY PUSH1 0x0 RETURN INVALID PUSH1 0x80 PUSH1 0x40 MSTORE PUSH1 0x4 CALLDATASIZE LT PUSH2 0x95 JUMPI PUSH1 0x0 CALLDATALOAD PUSH1 0xE0 SHR DUP1 PUSH4 0x8A9CFD55 GT PUSH2 0x59 JUMPI DUP1 PUSH4 0x8A9CFD55 EQ PUSH2 0x2A5 JUMPI DUP1 PUSH4 0x937E09B1 EQ PUSH2 0x2CE JUMPI DUP1 PUSH4 0xB6290E76 EQ PUSH2 0x2F9 JUMPI DUP1 PUSH4 0xD7D1BBDB EQ PUSH2 0x324 JUMPI DUP1 PUSH4 0xEB8BBD28 EQ PUSH2 0x34D JUMPI PUSH2 0x1A3 JUMP JUMPDEST DUP1 PUSH4 0x3441006 EQ PUSH2 0x1A8 JUMPI DUP1 PUSH4 0xA144391 EQ PUSH2 0x1D1 JUMPI DUP1 PUSH4 0x481C6A75 EQ PUSH2 0x20E JUMPI DUP1 PUSH4 0x81D12C58 EQ PUSH2 0x239 JUMPI DUP1 PUSH4 0x82FDE093 EQ PUSH2 0x27A JUMPI PUSH2 0x1A3 JUMP JUMPDEST CALLDATASIZE PUSH2 0x1A3 JUMPI PUSH1 0x3 SLOAD CALLVALUE LT ISZERO PUSH2 0xDF JUMPI PUSH1 0x40 MLOAD PUSH32 0x8C379A000000000000000000000000000000000000000000000000000000000 DUP2 MSTORE PUSH1 0x4 ADD PUSH2 0xD6 SWAP1 PUSH2 0xEEF JUMP JUMPDEST PUSH1 0x40 MLOAD DUP1 SWAP2 SUB SWAP1 REVERT JUMPDEST PUSH1 0x5 PUSH1 0x0 CALLER PUSH20 0xFFFFFFFFFFFFFFFFFFFFFFFFFFFFFFFFFFFFFFFF AND PUSH20 0xFFFFFFFFFFFFFFFFFFFFFFFFFFFFFFFFFFFFFFFF AND DUP2 MSTORE PUSH1 0x20 ADD SWAP1 DUP2 MSTORE PUSH1 0x20 ADD PUSH1 0x0 KECCAK256 PUSH1 0x0 SWAP1 SLOAD SWAP1 PUSH2 0x100 EXP SWAP1 DIV PUSH1 0xFF AND PUSH2 0x1A1 JUMPI PUSH1 0x1 PUSH1 0x5 PUSH1 0x0 CALLER PUSH20 0xFFFFFFFFFFFFFFFFFFFFFFFFFFFFFFFFFFFFFFFF AND PUSH20 0xFFFFFFFFFFFFFFFFFFFFFFFFFFFFFFFFFFFFFFFF AND DUP2 MSTORE PUSH1 0x20 ADD SWAP1 DUP2 MSTORE PUSH1 0x20 ADD PUSH1 0x0 KECCAK256 PUSH1 0x0 PUSH2 0x100 EXP DUP2 SLOAD DUP2 PUSH1 0xFF MUL NOT AND SWAP1 DUP4 ISZERO ISZERO MUL OR SWAP1 SSTORE POP PUSH1 0x4 PUSH1 0x0 DUP2 SLOAD DUP1 SWAP3 SWAP2 SWAP1 PUSH2 0x19B SWAP1 PUSH2 0x10CC JUMP JUMPDEST SWAP2 SWAP1 POP SSTORE POP JUMPDEST STOP JUMPDEST PUSH1 0x0 DUP1 REVERT JUMPDEST CALLVALUE DUP1 ISZERO PUSH2 0x1B4 JUMPI PUSH1 0x0 DUP1 REVERT JUMPDEST POP PUSH2 0x1CF PUSH1 0x4 DUP1 CALLDATASIZE SUB DUP2 ADD SWAP1 PUSH2 0x1CA SWAP2 SWAP1 PUSH2 0xC08 JUMP JUMPDEST PUSH2 0x378 JUMP JUMPDEST STOP JUMPDEST CALLVALUE DUP1 ISZERO PUSH2 0x1DD JUMPI PUSH1 0x0 DUP1 REVERT JUMPDEST POP PUSH2 0x1F8 PUSH1 0x4 DUP1 CALLDATASIZE SUB DUP2 ADD SWAP1 PUSH2 0x1F3 SWAP2 SWAP1 PUSH2 0xB6C JUMP JUMPDEST PUSH2 0x59A JUMP JUMPDEST PUSH1 0x40 MLOAD PUSH2 0x205 SWAP2 SWAP1 PUSH2 0xDBA JUMP JUMPDEST PUSH1 0x40 MLOAD DUP1 SWAP2 SUB SWAP1 RETURN JUMPDEST CALLVALUE DUP1 ISZERO PUSH2 0x21A JUMPI PUSH1 0x0 DUP1 REVERT JUMPDEST POP PUSH2 0x223 PUSH2 0x5BA JUMP JUMPDEST PUSH1 0x40 MLOAD PUSH2 0x230 SWAP2 SWAP1 PUSH2 0xD9F JUMP JUMPDEST PUSH1 0x40 MLOAD DUP1 SWAP2 SUB SWAP1 RETURN JUMPDEST CALLVALUE DUP1 ISZERO PUSH2 0x245 JUMPI PUSH1 0x0 DUP1 REVERT JUMPDEST POP PUSH2 0x260 PUSH1 0x4 DUP1 CALLDATASIZE SUB DUP2 ADD SWAP1 PUSH2 0x25B SWAP2 SWAP1 PUSH2 0xC08 JUMP JUMPDEST PUSH2 0x5E0 JUMP JUMPDEST PUSH1 0x40 MLOAD PUSH2 0x271 SWAP6 SWAP5 SWAP4 SWAP3 SWAP2 SWAP1 PUSH2 0xDD5 JUMP JUMPDEST PUSH1 0x40 MLOAD DUP1 SWAP2 SUB SWAP1 RETURN JUMPDEST CALLVALUE DUP1 ISZERO PUSH2 0x286 JUMPI PUSH1 0x0 DUP1 REVERT JUMPDEST POP PUSH2 0x28F PUSH2 0x6CB JUMP JUMPDEST PUSH1 0x40 MLOAD PUSH2 0x29C SWAP2 SWAP1 PUSH2 0xF0F JUMP JUMPDEST PUSH1 0x40 MLOAD DUP1 SWAP2 SUB SWAP1 RETURN JUMPDEST CALLVALUE DUP1 ISZERO PUSH2 0x2B1 JUMPI PUSH1 0x0 DUP1 REVERT JUMPDEST POP PUSH2 0x2CC PUSH1 0x4 DUP1 CALLDATASIZE SUB DUP2 ADD SWAP1 PUSH2 0x2C7 SWAP2 SWAP1 PUSH2 0xB99 JUMP JUMPDEST PUSH2 0x6D1 JUMP JUMPDEST STOP JUMPDEST CALLVALUE DUP1 ISZERO PUSH2 0x2DA JUMPI PUSH1 0x0 DUP1 REVERT JUMPDEST POP PUSH2 0x2E3 PUSH2 0x81F JUMP JUMPDEST PUSH1 0x40 MLOAD PUSH2 0x2F0 SWAP2 SWAP1 PUSH2 0xF0F JUMP JUMPDEST PUSH1 0x40 MLOAD DUP1 SWAP2 SUB SWAP1 RETURN JUMPDEST CALLVALUE DUP1 ISZERO PUSH2 0x305 JUMPI PUSH1 0x0 DUP1 REVERT JUMPDEST POP PUSH2 0x30E PUSH2 0x825 JUMP JUMPDEST PUSH1 0x40 MLOAD PUSH2 0x31B SWAP2 SWAP1 PUSH2 0xF0F JUMP JUMPDEST PUSH1 0x40 MLOAD DUP1 SWAP2 SUB SWAP1 RETURN JUMPDEST CALLVALUE DUP1 ISZERO PUSH2 0x330 JUMPI PUSH1 0x0 DUP1 REVERT JUMPDEST POP PUSH2 0x34B PUSH1 0x4 DUP1 CALLDATASIZE SUB DUP2 ADD SWAP1 PUSH2 0x346 SWAP2 SWAP1 PUSH2 0xC08 JUMP JUMPDEST PUSH2 0x82B JUMP JUMPDEST STOP JUMPDEST CALLVALUE DUP1 ISZERO PUSH2 0x359 JUMPI PUSH1 0x0 DUP1 REVERT JUMPDEST POP PUSH2 0x362 PUSH2 0xA27 JUMP JUMPDEST PUSH1 0x40 MLOAD PUSH2 0x36F SWAP2 SWAP1 PUSH2 0xF0F JUMP JUMPDEST PUSH1 0x40 MLOAD DUP1 SWAP2 SUB SWAP1 RETURN JUMPDEST PUSH1 0x2 PUSH1 0x0 SWAP1 SLOAD SWAP1 PUSH2 0x100 EXP SWAP1 DIV PUSH20 0xFFFFFFFFFFFFFFFFFFFFFFFFFFFFFFFFFFFFFFFF AND PUSH20 0xFFFFFFFFFFFFFFFFFFFFFFFFFFFFFFFFFFFFFFFF AND CALLER PUSH20 0xFFFFFFFFFFFFFFFFFFFFFFFFFFFFFFFFFFFFFFFF AND EQ PUSH2 0x408 JUMPI PUSH1 0x40 MLOAD PUSH32 0x8C379A000000000000000000000000000000000000000000000000000000000 DUP2 MSTORE PUSH1 0x4 ADD PUSH2 0x3FF SWAP1 PUSH2 0xEAF JUMP JUMPDEST PUSH1 0x40 MLOAD DUP1 SWAP2 SUB SWAP1 REVERT JUMPDEST PUSH1 0x0 SLOAD DUP2 GT ISZERO PUSH2 0x44D JUMPI PUSH1 0x40 MLOAD PUSH32 0x8C379A000000000000000000000000000000000000000000000000000000000 DUP2 MSTORE PUSH1 0x4 ADD PUSH2 0x444 SWAP1 PUSH2 0xE8F JUMP JUMPDEST PUSH1 0x40 MLOAD DUP1 SWAP2 SUB SWAP1 REVERT JUMPDEST PUSH1 0x0 PUSH1 0x1 PUSH1 0x0 DUP4 DUP2 MSTORE PUSH1 0x20 ADD SWAP1 DUP2 MSTORE PUSH1 0x20 ADD PUSH1 0x0 KECCAK256 SWAP1 POP PUSH1 0x2 PUSH1 0x4 SLOAD PUSH2 0x473 SWAP2 SWAP1 PUSH2 0xF9C JUMP JUMPDEST DUP2 PUSH1 0x3 ADD SLOAD GT PUSH2 0x4B8 JUMPI PUSH1 0x40 MLOAD PUSH32 0x8C379A000000000000000000000000000000000000000000000000000000000 DUP2 MSTORE PUSH1 0x4 ADD PUSH2 0x4AF SWAP1 PUSH2 0xE4F JUMP JUMPDEST PUSH1 0x40 MLOAD DUP1 SWAP2 SUB SWAP1 REVERT JUMPDEST DUP1 PUSH1 0x2 ADD PUSH1 0x14 SWAP1 SLOAD SWAP1 PUSH2 0x100 EXP SWAP1 DIV PUSH1 0xFF AND ISZERO PUSH2 0x50A JUMPI PUSH1 0x40 MLOAD PUSH32 0x8C379A000000000000000000000000000000000000000000000000000000000 DUP2 MSTORE PUSH1 0x4 ADD PUSH2 0x501 SWAP1 PUSH2 0xE2F JUMP JUMPDEST PUSH1 0x40 MLOAD DUP1 SWAP2 SUB SWAP1 REVERT JUMPDEST DUP1 PUSH1 0x2 ADD PUSH1 0x0 SWAP1 SLOAD SWAP1 PUSH2 0x100 EXP SWAP1 DIV PUSH20 0xFFFFFFFFFFFFFFFFFFFFFFFFFFFFFFFFFFFFFFFF AND PUSH20 0xFFFFFFFFFFFFFFFFFFFFFFFFFFFFFFFFFFFFFFFF AND PUSH2 0x8FC DUP3 PUSH1 0x1 ADD SLOAD SWAP1 DUP2 ISZERO MUL SWAP1 PUSH1 0x40 MLOAD PUSH1 0x0 PUSH1 0x40 MLOAD DUP1 DUP4 SUB DUP2 DUP6 DUP9 DUP9 CALL SWAP4 POP POP POP POP ISZERO DUP1 ISZERO PUSH2 0x578 JUMPI RETURNDATASIZE PUSH1 0x0 DUP1 RETURNDATACOPY RETURNDATASIZE PUSH1 0x0 REVERT JUMPDEST POP PUSH1 0x1 DUP2 PUSH1 0x2 ADD PUSH1 0x14 PUSH2 0x100 EXP DUP2 SLOAD DUP2 PUSH1 0xFF MUL NOT AND SWAP1 DUP4 ISZERO ISZERO MUL OR SWAP1 SSTORE POP POP POP JUMP JUMPDEST PUSH1 0x5 PUSH1 0x20 MSTORE DUP1 PUSH1 0x0 MSTORE PUSH1 0x40 PUSH1 0x0 KECCAK256 PUSH1 0x0 SWAP2 POP SLOAD SWAP1 PUSH2 0x100 EXP SWAP1 DIV PUSH1 0xFF AND DUP2 JUMP JUMPDEST PUSH1 0x2 PUSH1 0x0 SWAP1 SLOAD SWAP1 PUSH2 0x100 EXP SWAP1 DIV PUSH20 0xFFFFFFFFFFFFFFFFFFFFFFFFFFFFFFFFFFFFFFFF AND DUP2 JUMP JUMPDEST PUSH1 0x1 PUSH1 0x20 MSTORE DUP1 PUSH1 0x0 MSTORE PUSH1 0x40 PUSH1 0x0 KECCAK256 PUSH1 0x0 SWAP2 POP SWAP1 POP DUP1 PUSH1 0x0 ADD DUP1 SLOAD PUSH2 0x603 SWAP1 PUSH2 0x1069 JUMP JUMPDEST DUP1 PUSH1 0x1F ADD PUSH1 0x20 DUP1 SWAP2 DIV MUL PUSH1 0x20 ADD PUSH1 0x40 MLOAD SWAP1 DUP2 ADD PUSH1 0x40 MSTORE DUP1 SWAP3 SWAP2 SWAP1 DUP2 DUP2 MSTORE PUSH1 0x20 ADD DUP3 DUP1 SLOAD PUSH2 0x62F SWAP1 PUSH2 0x1069 JUMP JUMPDEST DUP1 ISZERO PUSH2 0x67C JUMPI DUP1 PUSH1 0x1F LT PUSH2 0x651 JUMPI PUSH2 0x100 DUP1 DUP4 SLOAD DIV MUL DUP4 MSTORE SWAP2 PUSH1 0x20 ADD SWAP2 PUSH2 0x67C JUMP JUMPDEST DUP3 ADD SWAP2 SWAP1 PUSH1 0x0 MSTORE PUSH1 0x20 PUSH1 0x0 KECCAK256 SWAP1 JUMPDEST DUP2 SLOAD DUP2 MSTORE SWAP1 PUSH1 0x1 ADD SWAP1 PUSH1 0x20 ADD DUP1 DUP4 GT PUSH2 0x65F JUMPI DUP3 SWAP1 SUB PUSH1 0x1F AND DUP3 ADD SWAP2 JUMPDEST POP POP POP POP POP SWAP1 DUP1 PUSH1 0x1 ADD SLOAD SWAP1 DUP1 PUSH1 0x2 ADD PUSH1 0x0 SWAP1 SLOAD SWAP1 PUSH2 0x100 EXP SWAP1 DIV PUSH20 0xFFFFFFFFFFFFFFFFFFFFFFFFFFFFFFFFFFFFFFFF AND SWAP1 DUP1 PUSH1 0x2 ADD PUSH1 0x14 SWAP1 SLOAD SWAP1 PUSH2 0x100 EXP SWAP1 DIV PUSH1 0xFF AND SWAP1 DUP1 PUSH1 0x3 ADD SLOAD SWAP1 POP DUP6 JUMP JUMPDEST PUSH1 0x4 SLOAD DUP2 JUMP JUMPDEST PUSH1 0x2 PUSH1 0x0 SWAP1 SLOAD SWAP1 PUSH2 0x100 EXP SWAP1 DIV PUSH20 0xFFFFFFFFFFFFFFFFFFFFFFFFFFFFFFFFFFFFFFFF AND PUSH20 0xFFFFFFFFFFFFFFFFFFFFFFFFFFFFFFFFFFFFFFFF AND CALLER PUSH20 0xFFFFFFFFFFFFFFFFFFFFFFFFFFFFFFFFFFFFFFFF AND EQ PUSH2 0x761 JUMPI PUSH1 0x40 MLOAD PUSH32 0x8C379A000000000000000000000000000000000000000000000000000000000 DUP2 MSTORE PUSH1 0x4 ADD PUSH2 0x758 SWAP1 PUSH2 0xEAF JUMP JUMPDEST PUSH1 0x40 MLOAD DUP1 SWAP2 SUB SWAP1 REVERT JUMPDEST PUSH1 0x0 PUSH1 0x1 PUSH1 0x0 DUP1 PUSH1 0x0 DUP2 SLOAD DUP1 SWAP3 SWAP2 SWAP1 PUSH2 0x779 SWAP1 PUSH2 0x10CC JUMP JUMPDEST SWAP2 SWAP1 POP SSTORE DUP2 MSTORE PUSH1 0x20 ADD SWAP1 DUP2 MSTORE PUSH1 0x20 ADD PUSH1 0x0 KECCAK256 SWAP1 POP DUP4 DUP2 PUSH1 0x0 ADD SWAP1 DUP1 MLOAD SWAP1 PUSH1 0x20 ADD SWAP1 PUSH2 0x7A5 SWAP3 SWAP2 SWAP1 PUSH2 0xA2F JUMP JUMPDEST POP DUP3 DUP2 PUSH1 0x1 ADD DUP2 SWAP1 SSTORE POP DUP2 DUP2 PUSH1 0x2 ADD PUSH1 0x0 PUSH2 0x100 EXP DUP2 SLOAD DUP2 PUSH20 0xFFFFFFFFFFFFFFFFFFFFFFFFFFFFFFFFFFFFFFFF MUL NOT AND SWAP1 DUP4 PUSH20 0xFFFFFFFFFFFFFFFFFFFFFFFFFFFFFFFFFFFFFFFF AND MUL OR SWAP1 SSTORE POP PUSH1 0x0 DUP2 PUSH1 0x2 ADD PUSH1 0x14 PUSH2 0x100 EXP DUP2 SLOAD DUP2 PUSH1 0xFF MUL NOT AND SWAP1 DUP4 ISZERO ISZERO MUL OR SWAP1 SSTORE POP PUSH1 0x0 DUP2 PUSH1 0x3 ADD DUP2 SWAP1 SSTORE POP POP POP POP POP JUMP JUMPDEST PUSH1 0x3 SLOAD DUP2 JUMP JUMPDEST PUSH1 0x0 SLOAD DUP2 JUMP JUMPDEST PUSH1 0x5 PUSH1 0x0 CALLER PUSH20 0xFFFFFFFFFFFFFFFFFFFFFFFFFFFFFFFFFFFFFFFF AND PUSH20 0xFFFFFFFFFFFFFFFFFFFFFFFFFFFFFFFFFFFFFFFF AND DUP2 MSTORE PUSH1 0x20 ADD SWAP1 DUP2 MSTORE PUSH1 0x20 ADD PUSH1 0x0 KECCAK256 PUSH1 0x0 SWAP1 SLOAD SWAP1 PUSH2 0x100 EXP SWAP1 DIV PUSH1 0xFF AND PUSH2 0x8B7 JUMPI PUSH1 0x40 MLOAD PUSH32 0x8C379A000000000000000000000000000000000000000000000000000000000 DUP2 MSTORE PUSH1 0x4 ADD PUSH2 0x8AE SWAP1 PUSH2 0xE6F JUMP JUMPDEST PUSH1 0x40 MLOAD DUP1 SWAP2 SUB SWAP1 REVERT JUMPDEST PUSH1 0x0 DUP2 LT ISZERO DUP1 ISZERO PUSH2 0x8CA JUMPI POP PUSH1 0x0 SLOAD DUP2 GT ISZERO JUMPDEST PUSH2 0x909 JUMPI PUSH1 0x40 MLOAD PUSH32 0x8C379A000000000000000000000000000000000000000000000000000000000 DUP2 MSTORE PUSH1 0x4 ADD PUSH2 0x900 SWAP1 PUSH2 0xE8F JUMP JUMPDEST PUSH1 0x40 MLOAD DUP1 SWAP2 SUB SWAP1 REVERT JUMPDEST PUSH1 0x0 PUSH1 0x1 PUSH1 0x0 DUP4 DUP2 MSTORE PUSH1 0x20 ADD SWAP1 DUP2 MSTORE PUSH1 0x20 ADD PUSH1 0x0 KECCAK256 SWAP1 POP DUP1 PUSH1 0x4 ADD PUSH1 0x0 CALLER PUSH20 0xFFFFFFFFFFFFFFFFFFFFFFFFFFFFFFFFFFFFFFFF AND PUSH20 0xFFFFFFFFFFFFFFFFFFFFFFFFFFFFFFFFFFFFFFFF AND DUP2 MSTORE PUSH1 0x20 ADD SWAP1 DUP2 MSTORE PUSH1 0x20 ADD PUSH1 0x0 KECCAK256 PUSH1 0x0 SWAP1 SLOAD SWAP1 PUSH2 0x100 EXP SWAP1 DIV PUSH1 0xFF AND ISZERO PUSH2 0x9AF JUMPI PUSH1 0x40 MLOAD PUSH32 0x8C379A000000000000000000000000000000000000000000000000000000000 DUP2 MSTORE PUSH1 0x4 ADD PUSH2 0x9A6 SWAP1 PUSH2 0xECF JUMP JUMPDEST PUSH1 0x40 MLOAD DUP1 SWAP2 SUB SWAP1 REVERT JUMPDEST PUSH1 0x1 DUP2 PUSH1 0x4 ADD PUSH1 0x0 CALLER PUSH20 0xFFFFFFFFFFFFFFFFFFFFFFFFFFFFFFFFFFFFFFFF AND PUSH20 0xFFFFFFFFFFFFFFFFFFFFFFFFFFFFFFFFFFFFFFFF AND DUP2 MSTORE PUSH1 0x20 ADD SWAP1 DUP2 MSTORE PUSH1 0x20 ADD PUSH1 0x0 KECCAK256 PUSH1 0x0 PUSH2 0x100 EXP DUP2 SLOAD DUP2 PUSH1 0xFF MUL NOT AND SWAP1 DUP4 ISZERO ISZERO MUL OR SWAP1 SSTORE POP DUP1 PUSH1 0x3 ADD PUSH1 0x0 DUP2 SLOAD DUP1 SWAP3 SWAP2 SWAP1 PUSH2 0xA1E SWAP1 PUSH2 0x10CC JUMP JUMPDEST SWAP2 SWAP1 POP SSTORE POP POP POP JUMP JUMPDEST PUSH1 0x0 SELFBALANCE SWAP1 POP SWAP1 JUMP JUMPDEST DUP3 DUP1 SLOAD PUSH2 0xA3B SWAP1 PUSH2 0x1069 JUMP JUMPDEST SWAP1 PUSH1 0x0 MSTORE PUSH1 0x20 PUSH1 0x0 KECCAK256 SWAP1 PUSH1 0x1F ADD PUSH1 0x20 SWAP1 DIV DUP2 ADD SWAP3 DUP3 PUSH2 0xA5D JUMPI PUSH1 0x0 DUP6 SSTORE PUSH2 0xAA4 JUMP JUMPDEST DUP3 PUSH1 0x1F LT PUSH2 0xA76 JUMPI DUP1 MLOAD PUSH1 0xFF NOT AND DUP4 DUP1 ADD OR DUP6 SSTORE PUSH2 0xAA4 JUMP JUMPDEST DUP3 DUP1 ADD PUSH1 0x1 ADD DUP6 SSTORE DUP3 ISZERO PUSH2 0xAA4 JUMPI SWAP2 DUP3 ADD JUMPDEST DUP3 DUP2 GT ISZERO PUSH2 0xAA3 JUMPI DUP3 MLOAD DUP3 SSTORE SWAP2 PUSH1 0x20 ADD SWAP2 SWAP1 PUSH1 0x1 ADD SWAP1 PUSH2 0xA88 JUMP JUMPDEST JUMPDEST POP SWAP1 POP PUSH2 0xAB1 SWAP2 SWAP1 PUSH2 0xAB5 JUMP JUMPDEST POP SWAP1 JUMP JUMPDEST JUMPDEST DUP1 DUP3 GT ISZERO PUSH2 0xACE JUMPI PUSH1 0x0 DUP2 PUSH1 0x0 SWAP1 SSTORE POP PUSH1 0x1 ADD PUSH2 0xAB6 JUMP JUMPDEST POP SWAP1 JUMP JUMPDEST PUSH1 0x0 PUSH2 0xAE5 PUSH2 0xAE0 DUP5 PUSH2 0xF4F JUMP JUMPDEST PUSH2 0xF2A JUMP JUMPDEST SWAP1 POP DUP3 DUP2 MSTORE PUSH1 0x20 DUP2 ADD DUP5 DUP5 DUP5 ADD GT ISZERO PUSH2 0xB01 JUMPI PUSH2 0xB00 PUSH2 0x11D6 JUMP JUMPDEST JUMPDEST PUSH2 0xB0C DUP5 DUP3 DUP6 PUSH2 0x1027 JUMP JUMPDEST POP SWAP4 SWAP3 POP POP POP JUMP JUMPDEST PUSH1 0x0 DUP2 CALLDATALOAD SWAP1 POP PUSH2 0xB23 DUP2 PUSH2 0x13F9 JUMP JUMPDEST SWAP3 SWAP2 POP POP JUMP JUMPDEST PUSH1 0x0 DUP3 PUSH1 0x1F DUP4 ADD SLT PUSH2 0xB3E JUMPI PUSH2 0xB3D PUSH2 0x11D1 JUMP JUMPDEST JUMPDEST DUP2 CALLDATALOAD PUSH2 0xB4E DUP5 DUP3 PUSH1 0x20 DUP7 ADD PUSH2 0xAD2 JUMP JUMPDEST SWAP2 POP POP SWAP3 SWAP2 POP POP JUMP JUMPDEST PUSH1 0x0 DUP2 CALLDATALOAD SWAP1 POP PUSH2 0xB66 DUP2 PUSH2 0x1410 JUMP JUMPDEST SWAP3 SWAP2 POP POP JUMP JUMPDEST PUSH1 0x0 PUSH1 0x20 DUP3 DUP5 SUB SLT ISZERO PUSH2 0xB82 JUMPI PUSH2 0xB81 PUSH2 0x11E0 JUMP JUMPDEST JUMPDEST PUSH1 0x0 PUSH2 0xB90 DUP5 DUP3 DUP6 ADD PUSH2 0xB14 JUMP JUMPDEST SWAP2 POP POP SWAP3 SWAP2 POP POP JUMP JUMPDEST PUSH1 0x0 DUP1 PUSH1 0x0 PUSH1 0x60 DUP5 DUP7 SUB SLT ISZERO PUSH2 0xBB2 JUMPI PUSH2 0xBB1 PUSH2 0x11E0 JUMP JUMPDEST JUMPDEST PUSH1 0x0 DUP5 ADD CALLDATALOAD PUSH8 0xFFFFFFFFFFFFFFFF DUP2 GT ISZERO PUSH2 0xBD0 JUMPI PUSH2 0xBCF PUSH2 0x11DB JUMP JUMPDEST JUMPDEST PUSH2 0xBDC DUP7 DUP3 DUP8 ADD PUSH2 0xB29 JUMP JUMPDEST SWAP4 POP POP PUSH1 0x20 PUSH2 0xBED DUP7 DUP3 DUP8 ADD PUSH2 0xB57 JUMP JUMPDEST SWAP3 POP POP PUSH1 0x40 PUSH2 0xBFE DUP7 DUP3 DUP8 ADD PUSH2 0xB14 JUMP JUMPDEST SWAP2 POP POP SWAP3 POP SWAP3 POP SWAP3 JUMP JUMPDEST PUSH1 0x0 PUSH1 0x20 DUP3 DUP5 SUB SLT ISZERO PUSH2 0xC1E JUMPI PUSH2 0xC1D PUSH2 0x11E0 JUMP JUMPDEST JUMPDEST PUSH1 0x0 PUSH2 0xC2C DUP5 DUP3 DUP6 ADD PUSH2 0xB57 JUMP JUMPDEST SWAP2 POP POP SWAP3 SWAP2 POP POP JUMP JUMPDEST PUSH2 0xC3E DUP2 PUSH2 0xFDF JUMP JUMPDEST DUP3 MSTORE POP POP JUMP JUMPDEST PUSH2 0xC4D DUP2 PUSH2 0xFCD JUMP JUMPDEST DUP3 MSTORE POP POP JUMP JUMPDEST PUSH2 0xC5C DUP2 PUSH2 0xFF1 JUMP JUMPDEST DUP3 MSTORE POP POP JUMP JUMPDEST PUSH1 0x0 PUSH2 0xC6D DUP3 PUSH2 0xF80 JUMP JUMPDEST PUSH2 0xC77 DUP2 DUP6 PUSH2 0xF8B JUMP JUMPDEST SWAP4 POP PUSH2 0xC87 DUP2 DUP6 PUSH1 0x20 DUP7 ADD PUSH2 0x1036 JUMP JUMPDEST PUSH2 0xC90 DUP2 PUSH2 0x11E5 JUMP JUMPDEST DUP5 ADD SWAP2 POP POP SWAP3 SWAP2 POP POP JUMP JUMPDEST PUSH1 0x0 PUSH2 0xCA8 PUSH1 0x26 DUP4 PUSH2 0xF8B JUMP JUMPDEST SWAP2 POP PUSH2 0xCB3 DUP3 PUSH2 0x11F6 JUMP JUMPDEST PUSH1 0x40 DUP3 ADD SWAP1 POP SWAP2 SWAP1 POP JUMP JUMPDEST PUSH1 0x0 PUSH2 0xCCB PUSH1 0x4C DUP4 PUSH2 0xF8B JUMP JUMPDEST SWAP2 POP PUSH2 0xCD6 DUP3 PUSH2 0x1245 JUMP JUMPDEST PUSH1 0x60 DUP3 ADD SWAP1 POP SWAP2 SWAP1 POP JUMP JUMPDEST PUSH1 0x0 PUSH2 0xCEE PUSH1 0x22 DUP4 PUSH2 0xF8B JUMP JUMPDEST SWAP2 POP PUSH2 0xCF9 DUP3 PUSH2 0x12BA JUMP JUMPDEST PUSH1 0x40 DUP3 ADD SWAP1 POP SWAP2 SWAP1 POP JUMP JUMPDEST PUSH1 0x0 PUSH2 0xD11 PUSH1 0x16 DUP4 PUSH2 0xF8B JUMP JUMPDEST SWAP2 POP PUSH2 0xD1C DUP3 PUSH2 0x1309 JUMP JUMPDEST PUSH1 0x20 DUP3 ADD SWAP1 POP SWAP2 SWAP1 POP JUMP JUMPDEST PUSH1 0x0 PUSH2 0xD34 PUSH1 0x1A DUP4 PUSH2 0xF8B JUMP JUMPDEST SWAP2 POP PUSH2 0xD3F DUP3 PUSH2 0x1332 JUMP JUMPDEST PUSH1 0x20 DUP3 ADD SWAP1 POP SWAP2 SWAP1 POP JUMP JUMPDEST PUSH1 0x0 PUSH2 0xD57 PUSH1 0x26 DUP4 PUSH2 0xF8B JUMP JUMPDEST SWAP2 POP PUSH2 0xD62 DUP3 PUSH2 0x135B JUMP JUMPDEST PUSH1 0x40 DUP3 ADD SWAP1 POP SWAP2 SWAP1 POP JUMP JUMPDEST PUSH1 0x0 PUSH2 0xD7A PUSH1 0x3F DUP4 PUSH2 0xF8B JUMP JUMPDEST SWAP2 POP PUSH2 0xD85 DUP3 PUSH2 0x13AA JUMP JUMPDEST PUSH1 0x40 DUP3 ADD SWAP1 POP SWAP2 SWAP1 POP JUMP JUMPDEST PUSH2 0xD99 DUP2 PUSH2 0x101D JUMP JUMPDEST DUP3 MSTORE POP POP JUMP JUMPDEST PUSH1 0x0 PUSH1 0x20 DUP3 ADD SWAP1 POP PUSH2 0xDB4 PUSH1 0x0 DUP4 ADD DUP5 PUSH2 0xC44 JUMP JUMPDEST SWAP3 SWAP2 POP POP JUMP JUMPDEST PUSH1 0x0 PUSH1 0x20 DUP3 ADD SWAP1 POP PUSH2 0xDCF PUSH1 0x0 DUP4 ADD DUP5 PUSH2 0xC53 JUMP JUMPDEST SWAP3 SWAP2 POP POP JUMP JUMPDEST PUSH1 0x0 PUSH1 0xA0 DUP3 ADD SWAP1 POP DUP2 DUP2 SUB PUSH1 0x0 DUP4 ADD MSTORE PUSH2 0xDEF DUP2 DUP9 PUSH2 0xC62 JUMP JUMPDEST SWAP1 POP PUSH2 0xDFE PUSH1 0x20 DUP4 ADD DUP8 PUSH2 0xD90 JUMP JUMPDEST PUSH2 0xE0B PUSH1 0x40 DUP4 ADD DUP7 PUSH2 0xC35 JUMP JUMPDEST PUSH2 0xE18 PUSH1 0x60 DUP4 ADD DUP6 PUSH2 0xC53 JUMP JUMPDEST PUSH2 0xE25 PUSH1 0x80 DUP4 ADD DUP5 PUSH2 0xD90 JUMP JUMPDEST SWAP7 SWAP6 POP POP POP POP POP POP JUMP JUMPDEST PUSH1 0x0 PUSH1 0x20 DUP3 ADD SWAP1 POP DUP2 DUP2 SUB PUSH1 0x0 DUP4 ADD MSTORE PUSH2 0xE48 DUP2 PUSH2 0xC9B JUMP JUMPDEST SWAP1 POP SWAP2 SWAP1 POP JUMP JUMPDEST PUSH1 0x0 PUSH1 0x20 DUP3 ADD SWAP1 POP DUP2 DUP2 SUB PUSH1 0x0 DUP4 ADD MSTORE PUSH2 0xE68 DUP2 PUSH2 0xCBE JUMP JUMPDEST SWAP1 POP SWAP2 SWAP1 POP JUMP JUMPDEST PUSH1 0x0 PUSH1 0x20 DUP3 ADD SWAP1 POP DUP2 DUP2 SUB PUSH1 0x0 DUP4 ADD MSTORE PUSH2 0xE88 DUP2 PUSH2 0xCE1 JUMP JUMPDEST SWAP1 POP SWAP2 SWAP1 POP JUMP JUMPDEST PUSH1 0x0 PUSH1 0x20 DUP3 ADD SWAP1 POP DUP2 DUP2 SUB PUSH1 0x0 DUP4 ADD MSTORE PUSH2 0xEA8 DUP2 PUSH2 0xD04 JUMP JUMPDEST SWAP1 POP SWAP2 SWAP1 POP JUMP JUMPDEST PUSH1 0x0 PUSH1 0x20 DUP3 ADD SWAP1 POP DUP2 DUP2 SUB PUSH1 0x0 DUP4 ADD MSTORE PUSH2 0xEC8 DUP2 PUSH2 0xD27 JUMP JUMPDEST SWAP1 POP SWAP2 SWAP1 POP JUMP JUMPDEST PUSH1 0x0 PUSH1 0x20 DUP3 ADD SWAP1 POP DUP2 DUP2 SUB PUSH1 0x0 DUP4 ADD MSTORE PUSH2 0xEE8 DUP2 PUSH2 0xD4A JUMP JUMPDEST SWAP1 POP SWAP2 SWAP1 POP JUMP JUMPDEST PUSH1 0x0 PUSH1 0x20 DUP3 ADD SWAP1 POP DUP2 DUP2 SUB PUSH1 0x0 DUP4 ADD MSTORE PUSH2 0xF08 DUP2 PUSH2 0xD6D JUMP JUMPDEST SWAP1 POP SWAP2 SWAP1 POP JUMP JUMPDEST PUSH1 0x0 PUSH1 0x20 DUP3 ADD SWAP1 POP PUSH2 0xF24 PUSH1 0x0 DUP4 ADD DUP5 PUSH2 0xD90 JUMP JUMPDEST SWAP3 SWAP2 POP POP JUMP JUMPDEST PUSH1 0x0 PUSH2 0xF34 PUSH2 0xF45 JUMP JUMPDEST SWAP1 POP PUSH2 0xF40 DUP3 DUP3 PUSH2 0x109B JUMP JUMPDEST SWAP2 SWAP1 POP JUMP JUMPDEST PUSH1 0x0 PUSH1 0x40 MLOAD SWAP1 POP SWAP1 JUMP JUMPDEST PUSH1 0x0 PUSH8 0xFFFFFFFFFFFFFFFF DUP3 GT ISZERO PUSH2 0xF6A JUMPI PUSH2 0xF69 PUSH2 0x11A2 JUMP JUMPDEST JUMPDEST PUSH2 0xF73 DUP3 PUSH2 0x11E5 JUMP JUMPDEST SWAP1 POP PUSH1 0x20 DUP2 ADD SWAP1 POP SWAP2 SWAP1 POP JUMP JUMPDEST PUSH1 0x0 DUP2 MLOAD SWAP1 POP SWAP2 SWAP1 POP JUMP JUMPDEST PUSH1 0x0 DUP3 DUP3 MSTORE PUSH1 0x20 DUP3 ADD SWAP1 POP SWAP3 SWAP2 POP POP JUMP JUMPDEST PUSH1 0x0 PUSH2 0xFA7 DUP3 PUSH2 0x101D JUMP JUMPDEST SWAP2 POP PUSH2 0xFB2 DUP4 PUSH2 0x101D JUMP JUMPDEST SWAP3 POP DUP3 PUSH2 0xFC2 JUMPI PUSH2 0xFC1 PUSH2 0x1144 JUMP JUMPDEST JUMPDEST DUP3 DUP3 DIV SWAP1 POP SWAP3 SWAP2 POP POP JUMP JUMPDEST PUSH1 0x0 PUSH2 0xFD8 DUP3 PUSH2 0xFFD JUMP JUMPDEST SWAP1 POP SWAP2 SWAP1 POP JUMP JUMPDEST PUSH1 0x0 PUSH2 0xFEA DUP3 PUSH2 0xFFD JUMP JUMPDEST SWAP1 POP SWAP2 SWAP1 POP JUMP JUMPDEST PUSH1 0x0 DUP2 ISZERO ISZERO SWAP1 POP SWAP2 SWAP1 POP JUMP JUMPDEST PUSH1 0x0 PUSH20 0xFFFFFFFFFFFFFFFFFFFFFFFFFFFFFFFFFFFFFFFF DUP3 AND SWAP1 POP SWAP2 SWAP1 POP JUMP JUMPDEST PUSH1 0x0 DUP2 SWAP1 POP SWAP2 SWAP1 POP JUMP JUMPDEST DUP3 DUP2 DUP4 CALLDATACOPY PUSH1 0x0 DUP4 DUP4 ADD MSTORE POP POP POP JUMP JUMPDEST PUSH1 0x0 JUMPDEST DUP4 DUP2 LT ISZERO PUSH2 0x1054 JUMPI DUP1 DUP3 ADD MLOAD DUP2 DUP5 ADD MSTORE PUSH1 0x20 DUP2 ADD SWAP1 POP PUSH2 0x1039 JUMP JUMPDEST DUP4 DUP2 GT ISZERO PUSH2 0x1063 JUMPI PUSH1 0x0 DUP5 DUP5 ADD MSTORE JUMPDEST POP POP POP POP JUMP JUMPDEST PUSH1 0x0 PUSH1 0x2 DUP3 DIV SWAP1 POP PUSH1 0x1 DUP3 AND DUP1 PUSH2 0x1081 JUMPI PUSH1 0x7F DUP3 AND SWAP2 POP JUMPDEST PUSH1 0x20 DUP3 LT DUP2 EQ ISZERO PUSH2 0x1095 JUMPI PUSH2 0x1094 PUSH2 0x1173 JUMP JUMPDEST JUMPDEST POP SWAP2 SWAP1 POP JUMP JUMPDEST PUSH2 0x10A4 DUP3 PUSH2 0x11E5 JUMP JUMPDEST DUP2 ADD DUP2 DUP2 LT PUSH8 0xFFFFFFFFFFFFFFFF DUP3 GT OR ISZERO PUSH2 0x10C3 JUMPI PUSH2 0x10C2 PUSH2 0x11A2 JUMP JUMPDEST JUMPDEST DUP1 PUSH1 0x40 MSTORE POP POP POP JUMP JUMPDEST PUSH1 0x0 PUSH2 0x10D7 DUP3 PUSH2 0x101D JUMP JUMPDEST SWAP2 POP PUSH32 0xFFFFFFFFFFFFFFFFFFFFFFFFFFFFFFFFFFFFFFFFFFFFFFFFFFFFFFFFFFFFFFFF DUP3 EQ ISZERO PUSH2 0x110A JUMPI PUSH2 0x1109 PUSH2 0x1115 JUMP JUMPDEST JUMPDEST PUSH1 0x1 DUP3 ADD SWAP1 POP SWAP2 SWAP1 POP JUMP JUMPDEST PUSH32 0x4E487B7100000000000000000000000000000000000000000000000000000000 PUSH1 0x0 MSTORE PUSH1 0x11 PUSH1 0x4 MSTORE PUSH1 0x24 PUSH1 0x0 REVERT JUMPDEST PUSH32 0x4E487B7100000000000000000000000000000000000000000000000000000000 PUSH1 0x0 MSTORE PUSH1 0x12 PUSH1 0x4 MSTORE PUSH1 0x24 PUSH1 0x0 REVERT JUMPDEST PUSH32 0x4E487B7100000000000000000000000000000000000000000000000000000000 PUSH1 0x0 MSTORE PUSH1 0x22 PUSH1 0x4 MSTORE PUSH1 0x24 PUSH1 0x0 REVERT JUMPDEST PUSH32 0x4E487B7100000000000000000000000000000000000000000000000000000000 PUSH1 0x0 MSTORE PUSH1 0x41 PUSH1 0x4 MSTORE PUSH1 0x24 PUSH1 0x0 REVERT JUMPDEST PUSH1 0x0 DUP1 REVERT JUMPDEST PUSH1 0x0 DUP1 REVERT JUMPDEST PUSH1 0x0 DUP1 REVERT JUMPDEST PUSH1 0x0 DUP1 REVERT JUMPDEST PUSH1 0x0 PUSH1 0x1F NOT PUSH1 0x1F DUP4 ADD AND SWAP1 POP SWAP2 SWAP1 POP JUMP JUMPDEST PUSH32 0x7265717565737420697320616C7265616479206D61726B656420617320636F6D PUSH1 0x0 DUP3 ADD MSTORE PUSH32 0x706C657465640000000000000000000000000000000000000000000000000000 PUSH1 0x20 DUP3 ADD MSTORE POP JUMP JUMPDEST PUSH32 0x726571756573742063616E6E6F7420626520636F6D706C657465642C20617320 PUSH1 0x0 DUP3 ADD MSTORE PUSH32 0x697420646F65736E2774206D656574207265717569726564206E756D62657220 PUSH1 0x20 DUP3 ADD MSTORE PUSH32 0x6F6620617070726F76616C730000000000000000000000000000000000000000 PUSH1 0x40 DUP3 ADD MSTORE POP JUMP JUMPDEST PUSH32 0x796F7520617265206E6F7420616E20617574686F72697A656420617070726F76 PUSH1 0x0 DUP3 ADD MSTORE PUSH32 0x6572000000000000000000000000000000000000000000000000000000000000 PUSH1 0x20 DUP3 ADD MSTORE POP JUMP JUMPDEST PUSH32 0x696E76616C69642072657175657374206E756D62657200000000000000000000 PUSH1 0x0 DUP3 ADD MSTORE POP JUMP JUMPDEST PUSH32 0x4F6E6C79206D616E6167657220697320617574686F72697A6564000000000000 PUSH1 0x0 DUP3 ADD MSTORE POP JUMP JUMPDEST PUSH32 0x796F75206861766520616C726561647920617070726F76656420746869732072 PUSH1 0x0 DUP3 ADD MSTORE PUSH32 0x6571756573740000000000000000000000000000000000000000000000000000 PUSH1 0x20 DUP3 ADD MSTORE POP JUMP JUMPDEST PUSH32 0x636F6E747269627574696F6E2073656E64206E6565647320746F206D65657420 PUSH1 0x0 DUP3 ADD MSTORE PUSH32 0x746865206D696E696D756D20636F6E747269627574696F6E20616D6F756E7400 PUSH1 0x20 DUP3 ADD MSTORE POP JUMP JUMPDEST PUSH2 0x1402 DUP2 PUSH2 0xFCD JUMP JUMPDEST DUP2 EQ PUSH2 0x140D JUMPI PUSH1 0x0 DUP1 REVERT JUMPDEST POP JUMP JUMPDEST PUSH2 0x1419 DUP2 PUSH2 0x101D JUMP JUMPDEST DUP2 EQ PUSH2 0x1424 JUMPI PUSH1 0x0 DUP1 REVERT JUMPDEST POP JUMP INVALID LOG2 PUSH5 0x6970667358 0x22 SLT KECCAK256 0xE5 0xDD 0xAC EXP 0xE8 PUSH25 0x6DA41DCCD0D5CA3D7A516582F1955AB62A39EF6EA9E46384E1 0xD5 PUSH5 0x736F6C6343 STOP ADDMOD MOD STOP CALLER "},"gasEstimates":{"creation":{"codeDepositCost":"1042600","executionCost":"infinite","totalCost":"infinite"},"external":{"approveRequest(uint256)":"infinite","approvers(address)":"2868","approversCount()":"2518","createRequest(string,uint256,address)":"infinite","finalizeRequest(uint256)":"infinite","getTotalFunds()":"427","manager()":"2559","minimumContribution()":"2451","numOfRequests()":"2473","requests(uint256)":"infinite"}},"methodIdentifiers":{"approveRequest(uint256)":"d7d1bbdb","approvers(address)":"0a144391","approversCount()":"82fde093","createRequest(string,uint256,address)":"8a9cfd55","finalizeRequest(uint256)":"03441006","getTotalFunds()":"eb8bbd28","manager()":"481c6a75","minimumContribution()":"937e09b1","numOfRequests()":"b6290e76","requests(uint256)":"81d12c58"}},"storageLayout":{"storage":[{"astId":56,"contract":"Campaign.sol:Campaign","label":"numOfRequests","offset":0,"slot":"0","type":"t_uint256"},{"astId":61,"contract":"Campaign.sol:Campaign","label":"requests","offset":0,"slot":"1","type":"t_mapping(t_uint256,t_struct(Request)54_storage)"},{"astId":63,"contract":"Campaign.sol:Campaign","label":"manager","offset":0,"slot":"2","type":"t_address"},{"astId":65,"contract":"Campaign.sol:Campaign","label":"minimumContribution","offset":0,"slot":"3","type":"t_uint256"},{"astId":67,"contract":"Campaign.sol:Campaign","label":"approversCount","offset":0,"slot":"4","type":"t_uint256"},{"astId":71,"contract":"Campaign.sol:Campaign","label":"approvers","offset":0,"slot":"5","type":"t_mapping(t_address,t_bool)"}],"types":{"t_address":{"encoding":"inplace","label":"address","numberOfBytes":"20"},"t_address_payable":{"encoding":"inplace","label":"address payable","numberOfBytes":"20"},"t_bool":{"encoding":"inplace","label":"bool","numberOfBytes":"1"},"t_mapping(t_address,t_bool)":{"encoding":"mapping","key":"t_address","label":"mapping(address => bool)","numberOfBytes":"32","value":"t_bool"},"t_mapping(t_uint256,t_struct(Request)54_storage)":{"encoding":"mapping","key":"t_uint256","label":"mapping(uint256 => struct Campaign.Request)","numberOfBytes":"32","value":"t_struct(Request)54_storage"},"t_string_storage":{"encoding":"bytes","label":"string","numberOfBytes":"32"},"t_struct(Request)54_storage":{"encoding":"inplace","label":"struct Campaign.Request","members":[{"astId":41,"contract":"Campaign.sol:Campaign","label":"description","offset":0,"slot":"0","type":"t_string_storage"},{"astId":43,"contract":"Campaign.sol:Campaign","label":"value","offset":0,"slot":"1","type":"t_uint256"},{"astId":45,"contract":"Campaign.sol:Campaign","label":"recipient","offset":0,"slot":"2","type":"t_address_payable"},{"astId":47,"contract":"Campaign.sol:Campaign","label":"completed","offset":20,"slot":"2","type":"t_bool"},{"astId":49,"contract":"Campaign.sol:Campaign","label":"approvalCount","offset":0,"slot":"3","type":"t_uint256"},{"astId":53,"contract":"Campaign.sol:Campaign","label":"approvals","offset":0,"slot":"4","type":"t_mapping(t_address,t_bool)"}],"numberOfBytes":"160"},"t_uint256":{"encoding":"inplace","label":"uint256","numberOfBytes":"32"}}},"userdoc":{"kind":"user","methods":{},"version":1}}