{"abi":[{"inputs":[{"internalType":"uint256","name":"_minimumContribution","type":"uint256"}],"name":"createCampaign","outputs":[],"stateMutability":"nonpayable","type":"function"},{"inputs":[],"name":"getDeployedCampaigns","outputs":[{"internalType":"address[]","name":"","type":"address[]"}],"stateMutability":"view","type":"function"}],"devdoc":{"kind":"dev","methods":{},"version":1},"evm":{"assembly":"    /* \"Campaign.sol\":61:468  contract CampaignFactory {... */\n  mstore(0x40, 0x80)\n  callvalue\n  dup1\n  iszero\n  tag_1\n  jumpi\n  0x00\n  dup1\n  revert\ntag_1:\n  pop\n  dataSize(sub_0)\n  dup1\n  dataOffset(sub_0)\n  0x00\n  codecopy\n  0x00\n  return\nstop\n\nsub_0: assembly {\n        /* \"Campaign.sol\":61:468  contract CampaignFactory {... */\n      mstore(0x40, 0x80)\n      callvalue\n      dup1\n      iszero\n      tag_1\n      jumpi\n      0x00\n      dup1\n      revert\n    tag_1:\n      pop\n      jumpi(tag_2, lt(calldatasize, 0x04))\n      shr(0xe0, calldataload(0x00))\n      dup1\n      0x4acb9d4f\n      eq\n      tag_3\n      jumpi\n      dup1\n      0xa3303a75\n      eq\n      tag_4\n      jumpi\n    tag_2:\n      0x00\n      dup1\n      revert\n        /* \"Campaign.sol\":354:466  function getDeployedCampaigns() public view returns (address[] memory) {... */\n    tag_3:\n      tag_5\n      tag_6\n      jump\t// in\n    tag_5:\n      mload(0x40)\n      tag_7\n      swap2\n      swap1\n      tag_8\n      jump\t// in\n    tag_7:\n      mload(0x40)\n      dup1\n      swap2\n      sub\n      swap1\n      return\n        /* \"Campaign.sol\":126:348  function createCampaign(uint256 _minimumContribution) public {... */\n    tag_4:\n      tag_9\n      0x04\n      dup1\n      calldatasize\n      sub\n      dup2\n      add\n      swap1\n      tag_10\n      swap2\n      swap1\n      tag_11\n      jump\t// in\n    tag_10:\n      tag_12\n      jump\t// in\n    tag_9:\n      stop\n        /* \"Campaign.sol\":354:466  function getDeployedCampaigns() public view returns (address[] memory) {... */\n    tag_6:\n        /* \"Campaign.sol\":407:423  address[] memory */\n      0x60\n        /* \"Campaign.sol\":442:459  deployedCampaigns */\n      0x00\n        /* \"Campaign.sol\":435:459  return deployedCampaigns */\n      dup1\n      sload\n      dup1\n      0x20\n      mul\n      0x20\n      add\n      mload(0x40)\n      swap1\n      dup2\n      add\n      0x40\n      mstore\n      dup1\n      swap3\n      swap2\n      swap1\n      dup2\n      dup2\n      mstore\n      0x20\n      add\n      dup3\n      dup1\n      sload\n      dup1\n      iszero\n      tag_14\n      jumpi\n      0x20\n      mul\n      dup3\n      add\n      swap2\n      swap1\n      0x00\n      mstore\n      keccak256(0x00, 0x20)\n      swap1\n    tag_15:\n      dup2\n      0x00\n      swap1\n      sload\n      swap1\n      0x0100\n      exp\n      swap1\n      div\n      0xffffffffffffffffffffffffffffffffffffffff\n      and\n      0xffffffffffffffffffffffffffffffffffffffff\n      and\n      dup2\n      mstore\n      0x20\n      add\n      swap1\n      0x01\n      add\n      swap1\n      dup1\n      dup4\n      gt\n      tag_15\n      jumpi\n    tag_14:\n      pop\n      pop\n      pop\n      pop\n      pop\n      swap1\n      pop\n        /* \"Campaign.sol\":354:466  function getDeployedCampaigns() public view returns (address[] memory) {... */\n      swap1\n      jump\t// out\n        /* \"Campaign.sol\":126:348  function createCampaign(uint256 _minimumContribution) public {... */\n    tag_12:\n        /* \"Campaign.sol\":197:216  address newCampaign */\n      0x00\n        /* \"Campaign.sol\":253:273  _minimumContribution */\n      dup2\n        /* \"Campaign.sol\":275:285  msg.sender */\n      caller\n        /* \"Campaign.sol\":240:286  new Campaign(_minimumContribution, msg.sender) */\n      mload(0x40)\n      tag_17\n      swap1\n      tag_18\n      jump\t// in\n    tag_17:\n      tag_19\n      swap3\n      swap2\n      swap1\n      tag_20\n      jump\t// in\n    tag_19:\n      mload(0x40)\n      dup1\n      swap2\n      sub\n      swap1\n      0x00\n      create\n      dup1\n      iszero\n      dup1\n      iszero\n      tag_21\n      jumpi\n      returndatasize\n      0x00\n      dup1\n      returndatacopy\n      revert(0x00, returndatasize)\n    tag_21:\n      pop\n        /* \"Campaign.sol\":197:296  address newCampaign = address(... */\n      swap1\n      pop\n        /* \"Campaign.sol\":306:323  deployedCampaigns */\n      0x00\n        /* \"Campaign.sol\":329:340  newCampaign */\n      dup2\n        /* \"Campaign.sol\":306:341  deployedCampaigns.push(newCampaign) */\n      swap1\n      dup1\n      0x01\n      dup2\n      sload\n      add\n      dup1\n      dup3\n      sstore\n      dup1\n      swap2\n      pop\n      pop\n      0x01\n      swap1\n      sub\n      swap1\n      0x00\n      mstore\n      keccak256(0x00, 0x20)\n      add\n      0x00\n      swap1\n      swap2\n      swap1\n      swap2\n      swap1\n      swap2\n      0x0100\n      exp\n      dup2\n      sload\n      dup2\n      0xffffffffffffffffffffffffffffffffffffffff\n      mul\n      not\n      and\n      swap1\n      dup4\n      0xffffffffffffffffffffffffffffffffffffffff\n      and\n      mul\n      or\n      swap1\n      sstore\n      pop\n        /* \"Campaign.sol\":187:348  {... */\n      pop\n        /* \"Campaign.sol\":126:348  function createCampaign(uint256 _minimumContribution) public {... */\n      pop\n      jump\t// out\n    tag_18:\n      dataSize(sub_0)\n      dup1\n      dataOffset(sub_0)\n      dup4\n      codecopy\n      add\n      swap1\n      jump\t// out\n        /* \"#utility.yul\":7:146   */\n    tag_24:\n        /* \"#utility.yul\":53:58   */\n      0x00\n        /* \"#utility.yul\":91:97   */\n      dup2\n        /* \"#utility.yul\":78:98   */\n      calldataload\n        /* \"#utility.yul\":69:98   */\n      swap1\n      pop\n        /* \"#utility.yul\":107:140   */\n      tag_26\n        /* \"#utility.yul\":134:139   */\n      dup2\n        /* \"#utility.yul\":107:140   */\n      tag_27\n      jump\t// in\n    tag_26:\n        /* \"#utility.yul\":59:146   */\n      swap3\n      swap2\n      pop\n      pop\n      jump\t// out\n        /* \"#utility.yul\":152:481   */\n    tag_11:\n        /* \"#utility.yul\":211:217   */\n      0x00\n        /* \"#utility.yul\":260:262   */\n      0x20\n        /* \"#utility.yul\":248:257   */\n      dup3\n        /* \"#utility.yul\":239:246   */\n      dup5\n        /* \"#utility.yul\":235:258   */\n      sub\n        /* \"#utility.yul\":231:263   */\n      slt\n        /* \"#utility.yul\":228:230   */\n      iszero\n      tag_29\n      jumpi\n        /* \"#utility.yul\":266:345   */\n      tag_30\n      tag_31\n      jump\t// in\n    tag_30:\n        /* \"#utility.yul\":228:230   */\n    tag_29:\n        /* \"#utility.yul\":386:387   */\n      0x00\n        /* \"#utility.yul\":411:464   */\n      tag_32\n        /* \"#utility.yul\":456:463   */\n      dup5\n        /* \"#utility.yul\":447:453   */\n      dup3\n        /* \"#utility.yul\":436:445   */\n      dup6\n        /* \"#utility.yul\":432:454   */\n      add\n        /* \"#utility.yul\":411:464   */\n      tag_24\n      jump\t// in\n    tag_32:\n        /* \"#utility.yul\":401:464   */\n      swap2\n      pop\n        /* \"#utility.yul\":357:474   */\n      pop\n        /* \"#utility.yul\":218:481   */\n      swap3\n      swap2\n      pop\n      pop\n      jump\t// out\n        /* \"#utility.yul\":487:666   */\n    tag_33:\n        /* \"#utility.yul\":556:566   */\n      0x00\n        /* \"#utility.yul\":577:623   */\n      tag_35\n        /* \"#utility.yul\":619:622   */\n      dup4\n        /* \"#utility.yul\":611:617   */\n      dup4\n        /* \"#utility.yul\":577:623   */\n      tag_36\n      jump\t// in\n    tag_35:\n        /* \"#utility.yul\":655:659   */\n      0x20\n        /* \"#utility.yul\":650:653   */\n      dup4\n        /* \"#utility.yul\":646:660   */\n      add\n        /* \"#utility.yul\":632:660   */\n      swap1\n      pop\n        /* \"#utility.yul\":567:666   */\n      swap3\n      swap2\n      pop\n      pop\n      jump\t// out\n        /* \"#utility.yul\":672:780   */\n    tag_36:\n        /* \"#utility.yul\":749:773   */\n      tag_38\n        /* \"#utility.yul\":767:772   */\n      dup2\n        /* \"#utility.yul\":749:773   */\n      tag_39\n      jump\t// in\n    tag_38:\n        /* \"#utility.yul\":744:747   */\n      dup3\n        /* \"#utility.yul\":737:774   */\n      mstore\n        /* \"#utility.yul\":727:780   */\n      pop\n      pop\n      jump\t// out\n        /* \"#utility.yul\":786:904   */\n    tag_40:\n        /* \"#utility.yul\":873:897   */\n      tag_42\n        /* \"#utility.yul\":891:896   */\n      dup2\n        /* \"#utility.yul\":873:897   */\n      tag_39\n      jump\t// in\n    tag_42:\n        /* \"#utility.yul\":868:871   */\n      dup3\n        /* \"#utility.yul\":861:898   */\n      mstore\n        /* \"#utility.yul\":851:904   */\n      pop\n      pop\n      jump\t// out\n        /* \"#utility.yul\":940:1672   */\n    tag_43:\n        /* \"#utility.yul\":1059:1062   */\n      0x00\n        /* \"#utility.yul\":1088:1142   */\n      tag_45\n        /* \"#utility.yul\":1136:1141   */\n      dup3\n        /* \"#utility.yul\":1088:1142   */\n      tag_46\n      jump\t// in\n    tag_45:\n        /* \"#utility.yul\":1158:1244   */\n      tag_47\n        /* \"#utility.yul\":1237:1243   */\n      dup2\n        /* \"#utility.yul\":1232:1235   */\n      dup6\n        /* \"#utility.yul\":1158:1244   */\n      tag_48\n      jump\t// in\n    tag_47:\n        /* \"#utility.yul\":1151:1244   */\n      swap4\n      pop\n        /* \"#utility.yul\":1268:1324   */\n      tag_49\n        /* \"#utility.yul\":1318:1323   */\n      dup4\n        /* \"#utility.yul\":1268:1324   */\n      tag_50\n      jump\t// in\n    tag_49:\n        /* \"#utility.yul\":1347:1354   */\n      dup1\n        /* \"#utility.yul\":1378:1379   */\n      0x00\n        /* \"#utility.yul\":1363:1647   */\n    tag_51:\n        /* \"#utility.yul\":1388:1394   */\n      dup4\n        /* \"#utility.yul\":1385:1386   */\n      dup2\n        /* \"#utility.yul\":1382:1395   */\n      lt\n        /* \"#utility.yul\":1363:1647   */\n      iszero\n      tag_53\n      jumpi\n        /* \"#utility.yul\":1464:1470   */\n      dup2\n        /* \"#utility.yul\":1458:1471   */\n      mload\n        /* \"#utility.yul\":1491:1554   */\n      tag_54\n        /* \"#utility.yul\":1550:1553   */\n      dup9\n        /* \"#utility.yul\":1535:1548   */\n      dup3\n        /* \"#utility.yul\":1491:1554   */\n      tag_33\n      jump\t// in\n    tag_54:\n        /* \"#utility.yul\":1484:1554   */\n      swap8\n      pop\n        /* \"#utility.yul\":1577:1637   */\n      tag_55\n        /* \"#utility.yul\":1630:1636   */\n      dup4\n        /* \"#utility.yul\":1577:1637   */\n      tag_56\n      jump\t// in\n    tag_55:\n        /* \"#utility.yul\":1567:1637   */\n      swap3\n      pop\n        /* \"#utility.yul\":1423:1647   */\n      pop\n        /* \"#utility.yul\":1410:1411   */\n      0x01\n        /* \"#utility.yul\":1407:1408   */\n      dup2\n        /* \"#utility.yul\":1403:1412   */\n      add\n        /* \"#utility.yul\":1398:1412   */\n      swap1\n      pop\n        /* \"#utility.yul\":1363:1647   */\n      jump(tag_51)\n    tag_53:\n        /* \"#utility.yul\":1367:1381   */\n      pop\n        /* \"#utility.yul\":1663:1666   */\n      dup6\n        /* \"#utility.yul\":1656:1666   */\n      swap4\n      pop\n        /* \"#utility.yul\":1064:1672   */\n      pop\n      pop\n      pop\n      swap3\n      swap2\n      pop\n      pop\n      jump\t// out\n        /* \"#utility.yul\":1678:1796   */\n    tag_57:\n        /* \"#utility.yul\":1765:1789   */\n      tag_59\n        /* \"#utility.yul\":1783:1788   */\n      dup2\n        /* \"#utility.yul\":1765:1789   */\n      tag_60\n      jump\t// in\n    tag_59:\n        /* \"#utility.yul\":1760:1763   */\n      dup3\n        /* \"#utility.yul\":1753:1790   */\n      mstore\n        /* \"#utility.yul\":1743:1796   */\n      pop\n      pop\n      jump\t// out\n        /* \"#utility.yul\":1802:2175   */\n    tag_8:\n        /* \"#utility.yul\":1945:1949   */\n      0x00\n        /* \"#utility.yul\":1983:1985   */\n      0x20\n        /* \"#utility.yul\":1972:1981   */\n      dup3\n        /* \"#utility.yul\":1968:1986   */\n      add\n        /* \"#utility.yul\":1960:1986   */\n      swap1\n      pop\n        /* \"#utility.yul\":2032:2041   */\n      dup2\n        /* \"#utility.yul\":2026:2030   */\n      dup2\n        /* \"#utility.yul\":2022:2042   */\n      sub\n        /* \"#utility.yul\":2018:2019   */\n      0x00\n        /* \"#utility.yul\":2007:2016   */\n      dup4\n        /* \"#utility.yul\":2003:2020   */\n      add\n        /* \"#utility.yul\":1996:2043   */\n      mstore\n        /* \"#utility.yul\":2060:2168   */\n      tag_62\n        /* \"#utility.yul\":2163:2167   */\n      dup2\n        /* \"#utility.yul\":2154:2160   */\n      dup5\n        /* \"#utility.yul\":2060:2168   */\n      tag_43\n      jump\t// in\n    tag_62:\n        /* \"#utility.yul\":2052:2168   */\n      swap1\n      pop\n        /* \"#utility.yul\":1950:2175   */\n      swap3\n      swap2\n      pop\n      pop\n      jump\t// out\n        /* \"#utility.yul\":2181:2513   */\n    tag_20:\n        /* \"#utility.yul\":2302:2306   */\n      0x00\n        /* \"#utility.yul\":2340:2342   */\n      0x40\n        /* \"#utility.yul\":2329:2338   */\n      dup3\n        /* \"#utility.yul\":2325:2343   */\n      add\n        /* \"#utility.yul\":2317:2343   */\n      swap1\n      pop\n        /* \"#utility.yul\":2353:2424   */\n      tag_64\n        /* \"#utility.yul\":2421:2422   */\n      0x00\n        /* \"#utility.yul\":2410:2419   */\n      dup4\n        /* \"#utility.yul\":2406:2423   */\n      add\n        /* \"#utility.yul\":2397:2403   */\n      dup6\n        /* \"#utility.yul\":2353:2424   */\n      tag_57\n      jump\t// in\n    tag_64:\n        /* \"#utility.yul\":2434:2506   */\n      tag_65\n        /* \"#utility.yul\":2502:2504   */\n      0x20\n        /* \"#utility.yul\":2491:2500   */\n      dup4\n        /* \"#utility.yul\":2487:2505   */\n      add\n        /* \"#utility.yul\":2478:2484   */\n      dup5\n        /* \"#utility.yul\":2434:2506   */\n      tag_40\n      jump\t// in\n    tag_65:\n        /* \"#utility.yul\":2307:2513   */\n      swap4\n      swap3\n      pop\n      pop\n      pop\n      jump\t// out\n        /* \"#utility.yul\":2600:2732   */\n    tag_50:\n        /* \"#utility.yul\":2667:2671   */\n      0x00\n        /* \"#utility.yul\":2690:2693   */\n      dup2\n        /* \"#utility.yul\":2682:2693   */\n      swap1\n      pop\n        /* \"#utility.yul\":2720:2724   */\n      0x20\n        /* \"#utility.yul\":2715:2718   */\n      dup3\n        /* \"#utility.yul\":2711:2725   */\n      add\n        /* \"#utility.yul\":2703:2725   */\n      swap1\n      pop\n        /* \"#utility.yul\":2672:2732   */\n      swap2\n      swap1\n      pop\n      jump\t// out\n        /* \"#utility.yul\":2738:2852   */\n    tag_46:\n        /* \"#utility.yul\":2805:2811   */\n      0x00\n        /* \"#utility.yul\":2839:2844   */\n      dup2\n        /* \"#utility.yul\":2833:2845   */\n      mload\n        /* \"#utility.yul\":2823:2845   */\n      swap1\n      pop\n        /* \"#utility.yul\":2812:2852   */\n      swap2\n      swap1\n      pop\n      jump\t// out\n        /* \"#utility.yul\":2858:2971   */\n    tag_56:\n        /* \"#utility.yul\":2928:2932   */\n      0x00\n        /* \"#utility.yul\":2960:2964   */\n      0x20\n        /* \"#utility.yul\":2955:2958   */\n      dup3\n        /* \"#utility.yul\":2951:2965   */\n      add\n        /* \"#utility.yul\":2943:2965   */\n      swap1\n      pop\n        /* \"#utility.yul\":2933:2971   */\n      swap2\n      swap1\n      pop\n      jump\t// out\n        /* \"#utility.yul\":2977:3161   */\n    tag_48:\n        /* \"#utility.yul\":3076:3087   */\n      0x00\n        /* \"#utility.yul\":3110:3116   */\n      dup3\n        /* \"#utility.yul\":3105:3108   */\n      dup3\n        /* \"#utility.yul\":3098:3117   */\n      mstore\n        /* \"#utility.yul\":3150:3154   */\n      0x20\n        /* \"#utility.yul\":3145:3148   */\n      dup3\n        /* \"#utility.yul\":3141:3155   */\n      add\n        /* \"#utility.yul\":3126:3155   */\n      swap1\n      pop\n        /* \"#utility.yul\":3088:3161   */\n      swap3\n      swap2\n      pop\n      pop\n      jump\t// out\n        /* \"#utility.yul\":3167:3263   */\n    tag_39:\n        /* \"#utility.yul\":3204:3211   */\n      0x00\n        /* \"#utility.yul\":3233:3257   */\n      tag_73\n        /* \"#utility.yul\":3251:3256   */\n      dup3\n        /* \"#utility.yul\":3233:3257   */\n      tag_74\n      jump\t// in\n    tag_73:\n        /* \"#utility.yul\":3222:3257   */\n      swap1\n      pop\n        /* \"#utility.yul\":3212:3263   */\n      swap2\n      swap1\n      pop\n      jump\t// out\n        /* \"#utility.yul\":3269:3395   */\n    tag_74:\n        /* \"#utility.yul\":3306:3313   */\n      0x00\n        /* \"#utility.yul\":3346:3388   */\n      0xffffffffffffffffffffffffffffffffffffffff\n        /* \"#utility.yul\":3339:3344   */\n      dup3\n        /* \"#utility.yul\":3335:3389   */\n      and\n        /* \"#utility.yul\":3324:3389   */\n      swap1\n      pop\n        /* \"#utility.yul\":3314:3395   */\n      swap2\n      swap1\n      pop\n      jump\t// out\n        /* \"#utility.yul\":3401:3478   */\n    tag_60:\n        /* \"#utility.yul\":3438:3445   */\n      0x00\n        /* \"#utility.yul\":3467:3472   */\n      dup2\n        /* \"#utility.yul\":3456:3472   */\n      swap1\n      pop\n        /* \"#utility.yul\":3446:3478   */\n      swap2\n      swap1\n      pop\n      jump\t// out\n        /* \"#utility.yul\":3607:3724   */\n    tag_31:\n        /* \"#utility.yul\":3716:3717   */\n      0x00\n        /* \"#utility.yul\":3713:3714   */\n      dup1\n        /* \"#utility.yul\":3706:3718   */\n      revert\n        /* \"#utility.yul\":3730:3852   */\n    tag_27:\n        /* \"#utility.yul\":3803:3827   */\n      tag_81\n        /* \"#utility.yul\":3821:3826   */\n      dup2\n        /* \"#utility.yul\":3803:3827   */\n      tag_60\n      jump\t// in\n    tag_81:\n        /* \"#utility.yul\":3796:3801   */\n      dup2\n        /* \"#utility.yul\":3793:3828   */\n      eq\n        /* \"#utility.yul\":3783:3785   */\n      tag_82\n      jumpi\n        /* \"#utility.yul\":3842:3843   */\n      0x00\n        /* \"#utility.yul\":3839:3840   */\n      dup1\n        /* \"#utility.yul\":3832:3844   */\n      revert\n        /* \"#utility.yul\":3783:3785   */\n    tag_82:\n        /* \"#utility.yul\":3773:3852   */\n      pop\n      jump\t// out\n    stop\n\n    sub_0: assembly {\n            /* \"Campaign.sol\":470:3512  contract Campaign {... */\n          mstore(0x40, 0x80)\n            /* \"Campaign.sol\":1061:1208  constructor(uint256 _minimumContribution, address _manager) {... */\n          callvalue\n          dup1\n          iszero\n          tag_1\n          jumpi\n          0x00\n          dup1\n          revert\n        tag_1:\n          pop\n          mload(0x40)\n          sub(codesize, bytecodeSize)\n          dup1\n          bytecodeSize\n          dup4\n          codecopy\n          dup2\n          dup2\n          add\n          0x40\n          mstore\n          dup2\n          add\n          swap1\n          tag_2\n          swap2\n          swap1\n          tag_3\n          jump\t// in\n        tag_2:\n            /* \"Campaign.sol\":1141:1149  _manager */\n          dup1\n            /* \"Campaign.sol\":1131:1138  manager */\n          0x02\n          0x00\n            /* \"Campaign.sol\":1131:1149  manager = _manager */\n          0x0100\n          exp\n          dup2\n          sload\n          dup2\n          0xffffffffffffffffffffffffffffffffffffffff\n          mul\n          not\n          and\n          swap1\n          dup4\n          0xffffffffffffffffffffffffffffffffffffffff\n          and\n          mul\n          or\n          swap1\n          sstore\n          pop\n            /* \"Campaign.sol\":1181:1201  _minimumContribution */\n          dup2\n            /* \"Campaign.sol\":1159:1178  minimumContribution */\n          0x03\n            /* \"Campaign.sol\":1159:1201  minimumContribution = _minimumContribution */\n          dup2\n          swap1\n          sstore\n          pop\n            /* \"Campaign.sol\":1061:1208  constructor(uint256 _minimumContribution, address _manager) {... */\n          pop\n          pop\n            /* \"Campaign.sol\":470:3512  contract Campaign {... */\n          jump(tag_6)\n            /* \"#utility.yul\":7:150   */\n        tag_8:\n            /* \"#utility.yul\":64:69   */\n          0x00\n            /* \"#utility.yul\":95:101   */\n          dup2\n            /* \"#utility.yul\":89:102   */\n          mload\n            /* \"#utility.yul\":80:102   */\n          swap1\n          pop\n            /* \"#utility.yul\":111:144   */\n          tag_10\n            /* \"#utility.yul\":138:143   */\n          dup2\n            /* \"#utility.yul\":111:144   */\n          tag_11\n          jump\t// in\n        tag_10:\n            /* \"#utility.yul\":70:150   */\n          swap3\n          swap2\n          pop\n          pop\n          jump\t// out\n            /* \"#utility.yul\":156:299   */\n        tag_12:\n            /* \"#utility.yul\":213:218   */\n          0x00\n            /* \"#utility.yul\":244:250   */\n          dup2\n            /* \"#utility.yul\":238:251   */\n          mload\n            /* \"#utility.yul\":229:251   */\n          swap1\n          pop\n            /* \"#utility.yul\":260:293   */\n          tag_14\n            /* \"#utility.yul\":287:292   */\n          dup2\n            /* \"#utility.yul\":260:293   */\n          tag_15\n          jump\t// in\n        tag_14:\n            /* \"#utility.yul\":219:299   */\n          swap3\n          swap2\n          pop\n          pop\n          jump\t// out\n            /* \"#utility.yul\":305:812   */\n        tag_3:\n            /* \"#utility.yul\":384:390   */\n          0x00\n            /* \"#utility.yul\":392:398   */\n          dup1\n            /* \"#utility.yul\":441:443   */\n          0x40\n            /* \"#utility.yul\":429:438   */\n          dup4\n            /* \"#utility.yul\":420:427   */\n          dup6\n            /* \"#utility.yul\":416:439   */\n          sub\n            /* \"#utility.yul\":412:444   */\n          slt\n            /* \"#utility.yul\":409:411   */\n          iszero\n          tag_17\n          jumpi\n            /* \"#utility.yul\":447:526   */\n          tag_18\n          tag_19\n          jump\t// in\n        tag_18:\n            /* \"#utility.yul\":409:411   */\n        tag_17:\n            /* \"#utility.yul\":567:568   */\n          0x00\n            /* \"#utility.yul\":592:656   */\n          tag_20\n            /* \"#utility.yul\":648:655   */\n          dup6\n            /* \"#utility.yul\":639:645   */\n          dup3\n            /* \"#utility.yul\":628:637   */\n          dup7\n            /* \"#utility.yul\":624:646   */\n          add\n            /* \"#utility.yul\":592:656   */\n          tag_12\n          jump\t// in\n        tag_20:\n            /* \"#utility.yul\":582:656   */\n          swap3\n          pop\n            /* \"#utility.yul\":538:666   */\n          pop\n            /* \"#utility.yul\":705:707   */\n          0x20\n            /* \"#utility.yul\":731:795   */\n          tag_21\n            /* \"#utility.yul\":787:794   */\n          dup6\n            /* \"#utility.yul\":778:784   */\n          dup3\n            /* \"#utility.yul\":767:776   */\n          dup7\n            /* \"#utility.yul\":763:785   */\n          add\n            /* \"#utility.yul\":731:795   */\n          tag_8\n          jump\t// in\n        tag_21:\n            /* \"#utility.yul\":721:795   */\n          swap2\n          pop\n            /* \"#utility.yul\":676:805   */\n          pop\n            /* \"#utility.yul\":399:812   */\n          swap3\n          pop\n          swap3\n          swap1\n          pop\n          jump\t// out\n            /* \"#utility.yul\":899:995   */\n        tag_24:\n            /* \"#utility.yul\":936:943   */\n          0x00\n            /* \"#utility.yul\":965:989   */\n          tag_26\n            /* \"#utility.yul\":983:988   */\n          dup3\n            /* \"#utility.yul\":965:989   */\n          tag_27\n          jump\t// in\n        tag_26:\n            /* \"#utility.yul\":954:989   */\n          swap1\n          pop\n            /* \"#utility.yul\":944:995   */\n          swap2\n          swap1\n          pop\n          jump\t// out\n            /* \"#utility.yul\":1001:1127   */\n        tag_27:\n            /* \"#utility.yul\":1038:1045   */\n          0x00\n            /* \"#utility.yul\":1078:1120   */\n          0xffffffffffffffffffffffffffffffffffffffff\n            /* \"#utility.yul\":1071:1076   */\n          dup3\n            /* \"#utility.yul\":1067:1121   */\n          and\n            /* \"#utility.yul\":1056:1121   */\n          swap1\n          pop\n            /* \"#utility.yul\":1046:1127   */\n          swap2\n          swap1\n          pop\n          jump\t// out\n            /* \"#utility.yul\":1133:1210   */\n        tag_29:\n            /* \"#utility.yul\":1170:1177   */\n          0x00\n            /* \"#utility.yul\":1199:1204   */\n          dup2\n            /* \"#utility.yul\":1188:1204   */\n          swap1\n          pop\n            /* \"#utility.yul\":1178:1210   */\n          swap2\n          swap1\n          pop\n          jump\t// out\n            /* \"#utility.yul\":1339:1456   */\n        tag_19:\n            /* \"#utility.yul\":1448:1449   */\n          0x00\n            /* \"#utility.yul\":1445:1446   */\n          dup1\n            /* \"#utility.yul\":1438:1450   */\n          revert\n            /* \"#utility.yul\":1462:1584   */\n        tag_11:\n            /* \"#utility.yul\":1535:1559   */\n          tag_35\n            /* \"#utility.yul\":1553:1558   */\n          dup2\n            /* \"#utility.yul\":1535:1559   */\n          tag_24\n          jump\t// in\n        tag_35:\n            /* \"#utility.yul\":1528:1533   */\n          dup2\n            /* \"#utility.yul\":1525:1560   */\n          eq\n            /* \"#utility.yul\":1515:1517   */\n          tag_36\n          jumpi\n            /* \"#utility.yul\":1574:1575   */\n          0x00\n            /* \"#utility.yul\":1571:1572   */\n          dup1\n            /* \"#utility.yul\":1564:1576   */\n          revert\n            /* \"#utility.yul\":1515:1517   */\n        tag_36:\n            /* \"#utility.yul\":1505:1584   */\n          pop\n          jump\t// out\n            /* \"#utility.yul\":1590:1712   */\n        tag_15:\n            /* \"#utility.yul\":1663:1687   */\n          tag_38\n            /* \"#utility.yul\":1681:1686   */\n          dup2\n            /* \"#utility.yul\":1663:1687   */\n          tag_29\n          jump\t// in\n        tag_38:\n            /* \"#utility.yul\":1656:1661   */\n          dup2\n            /* \"#utility.yul\":1653:1688   */\n          eq\n            /* \"#utility.yul\":1643:1645   */\n          tag_39\n          jumpi\n            /* \"#utility.yul\":1702:1703   */\n          0x00\n            /* \"#utility.yul\":1699:1700   */\n          dup1\n            /* \"#utility.yul\":1692:1704   */\n          revert\n            /* \"#utility.yul\":1643:1645   */\n        tag_39:\n            /* \"#utility.yul\":1633:1712   */\n          pop\n          jump\t// out\n            /* \"Campaign.sol\":470:3512  contract Campaign {... */\n        tag_6:\n          dataSize(sub_0)\n          dup1\n          dataOffset(sub_0)\n          0x00\n          codecopy\n          0x00\n          return\n        stop\n\n        sub_0: assembly {\n                /* \"Campaign.sol\":470:3512  contract Campaign {... */\n              mstore(0x40, 0x80)\n              jumpi(tag_1, lt(calldatasize, 0x04))\n              shr(0xe0, calldataload(0x00))\n              dup1\n              0x82fde093\n              gt\n              tag_14\n              jumpi\n              dup1\n              0x82fde093\n              eq\n              tag_8\n              jumpi\n              dup1\n              0x8a9cfd55\n              eq\n              tag_9\n              jumpi\n              dup1\n              0x937e09b1\n              eq\n              tag_10\n              jumpi\n              dup1\n              0xb6290e76\n              eq\n              tag_11\n              jumpi\n              dup1\n              0xd7d1bbdb\n              eq\n              tag_12\n              jumpi\n              dup1\n              0xeb8bbd28\n              eq\n              tag_13\n              jumpi\n              jump(tag_2)\n            tag_14:\n              dup1\n              0x03441006\n              eq\n              tag_3\n              jumpi\n              dup1\n              0x0a144391\n              eq\n              tag_4\n              jumpi\n              dup1\n              0x4051ddac\n              eq\n              tag_5\n              jumpi\n              dup1\n              0x481c6a75\n              eq\n              tag_6\n              jumpi\n              dup1\n              0x81d12c58\n              eq\n              tag_7\n              jumpi\n              jump(tag_2)\n            tag_1:\n              jumpi(tag_2, calldatasize)\n                /* \"Campaign.sol\":3275:3294  minimumContribution */\n              sload(0x03)\n                /* \"Campaign.sol\":3262:3271  msg.value */\n              callvalue\n                /* \"Campaign.sol\":3262:3294  msg.value >= minimumContribution */\n              lt\n              iszero\n                /* \"Campaign.sol\":3241:3383  require(... */\n              tag_17\n              jumpi\n              mload(0x40)\n              0x08c379a000000000000000000000000000000000000000000000000000000000\n              dup2\n              mstore\n              0x04\n              add\n              tag_18\n              swap1\n              tag_19\n              jump\t// in\n            tag_18:\n              mload(0x40)\n              dup1\n              swap2\n              sub\n              swap1\n              revert\n            tag_17:\n                /* \"Campaign.sol\":3398:3407  approvers */\n              0x05\n                /* \"Campaign.sol\":3398:3419  approvers[msg.sender] */\n              0x00\n                /* \"Campaign.sol\":3408:3418  msg.sender */\n              caller\n                /* \"Campaign.sol\":3398:3419  approvers[msg.sender] */\n              0xffffffffffffffffffffffffffffffffffffffff\n              and\n              0xffffffffffffffffffffffffffffffffffffffff\n              and\n              dup2\n              mstore\n              0x20\n              add\n              swap1\n              dup2\n              mstore\n              0x20\n              add\n              0x00\n              keccak256\n              0x00\n              swap1\n              sload\n              swap1\n              0x0100\n              exp\n              swap1\n              div\n              0xff\n              and\n                /* \"Campaign.sol\":3393:3504  if (!approvers[msg.sender]) {... */\n              tag_20\n              jumpi\n                /* \"Campaign.sol\":3459:3463  true */\n              0x01\n                /* \"Campaign.sol\":3435:3444  approvers */\n              0x05\n                /* \"Campaign.sol\":3435:3456  approvers[msg.sender] */\n              0x00\n                /* \"Campaign.sol\":3445:3455  msg.sender */\n              caller\n                /* \"Campaign.sol\":3435:3456  approvers[msg.sender] */\n              0xffffffffffffffffffffffffffffffffffffffff\n              and\n              0xffffffffffffffffffffffffffffffffffffffff\n              and\n              dup2\n              mstore\n              0x20\n              add\n              swap1\n              dup2\n              mstore\n              0x20\n              add\n              0x00\n              keccak256\n              0x00\n                /* \"Campaign.sol\":3435:3463  approvers[msg.sender] = true */\n              0x0100\n              exp\n              dup2\n              sload\n              dup2\n              0xff\n              mul\n              not\n              and\n              swap1\n              dup4\n              iszero\n              iszero\n              mul\n              or\n              swap1\n              sstore\n              pop\n                /* \"Campaign.sol\":3477:3491  approversCount */\n              0x04\n              0x00\n                /* \"Campaign.sol\":3477:3493  approversCount++ */\n              dup2\n              sload\n              dup1\n              swap3\n              swap2\n              swap1\n              tag_21\n              swap1\n              tag_22\n              jump\t// in\n            tag_21:\n              swap2\n              swap1\n              pop\n              sstore\n              pop\n                /* \"Campaign.sol\":3393:3504  if (!approvers[msg.sender]) {... */\n            tag_20:\n                /* \"Campaign.sol\":470:3512  contract Campaign {... */\n              stop\n            tag_2:\n              0x00\n              dup1\n              revert\n                /* \"Campaign.sol\":2213:2728  function finalizeRequest(uint256 requestNumber) public onlyManager {... */\n            tag_3:\n              callvalue\n              dup1\n              iszero\n              tag_23\n              jumpi\n              0x00\n              dup1\n              revert\n            tag_23:\n              pop\n              tag_24\n              0x04\n              dup1\n              calldatasize\n              sub\n              dup2\n              add\n              swap1\n              tag_25\n              swap2\n              swap1\n              tag_26\n              jump\t// in\n            tag_25:\n              tag_27\n              jump\t// in\n            tag_24:\n              stop\n                /* \"Campaign.sol\":896:937  mapping(address => bool) public approvers */\n            tag_4:\n              callvalue\n              dup1\n              iszero\n              tag_28\n              jumpi\n              0x00\n              dup1\n              revert\n            tag_28:\n              pop\n              tag_29\n              0x04\n              dup1\n              calldatasize\n              sub\n              dup2\n              add\n              swap1\n              tag_30\n              swap2\n              swap1\n              tag_31\n              jump\t// in\n            tag_30:\n              tag_32\n              jump\t// in\n            tag_29:\n              mload(0x40)\n              tag_33\n              swap2\n              swap1\n              tag_34\n              jump\t// in\n            tag_33:\n              mload(0x40)\n              dup1\n              swap2\n              sub\n              swap1\n              return\n                /* \"Campaign.sol\":2840:3198  function getSummary()... */\n            tag_5:\n              callvalue\n              dup1\n              iszero\n              tag_35\n              jumpi\n              0x00\n              dup1\n              revert\n            tag_35:\n              pop\n              tag_36\n              tag_37\n              jump\t// in\n            tag_36:\n              mload(0x40)\n              tag_38\n              swap6\n              swap5\n              swap4\n              swap3\n              swap2\n              swap1\n              tag_39\n              jump\t// in\n            tag_38:\n              mload(0x40)\n              dup1\n              swap2\n              sub\n              swap1\n              return\n                /* \"Campaign.sol\":791:813  address public manager */\n            tag_6:\n              callvalue\n              dup1\n              iszero\n              tag_40\n              jumpi\n              0x00\n              dup1\n              revert\n            tag_40:\n              pop\n              tag_41\n              tag_42\n              jump\t// in\n            tag_41:\n              mload(0x40)\n              tag_43\n              swap2\n              swap1\n              tag_44\n              jump\t// in\n            tag_43:\n              mload(0x40)\n              dup1\n              swap2\n              sub\n              swap1\n              return\n                /* \"Campaign.sol\":741:784  mapping(uint256 => Request) public requests */\n            tag_7:\n              callvalue\n              dup1\n              iszero\n              tag_45\n              jumpi\n              0x00\n              dup1\n              revert\n            tag_45:\n              pop\n              tag_46\n              0x04\n              dup1\n              calldatasize\n              sub\n              dup2\n              add\n              swap1\n              tag_47\n              swap2\n              swap1\n              tag_26\n              jump\t// in\n            tag_47:\n              tag_48\n              jump\t// in\n            tag_46:\n              mload(0x40)\n              tag_49\n              swap6\n              swap5\n              swap4\n              swap3\n              swap2\n              swap1\n              tag_50\n              jump\t// in\n            tag_49:\n              mload(0x40)\n              dup1\n              swap2\n              sub\n              swap1\n              return\n                /* \"Campaign.sol\":861:890  uint256 public approversCount */\n            tag_8:\n              callvalue\n              dup1\n              iszero\n              tag_51\n              jumpi\n              0x00\n              dup1\n              revert\n            tag_51:\n              pop\n              tag_52\n              tag_53\n              jump\t// in\n            tag_52:\n              mload(0x40)\n              tag_54\n              swap2\n              swap1\n              tag_55\n              jump\t// in\n            tag_54:\n              mload(0x40)\n              dup1\n              swap2\n              sub\n              swap1\n              return\n                /* \"Campaign.sol\":1214:1631  function createRequest(... */\n            tag_9:\n              callvalue\n              dup1\n              iszero\n              tag_56\n              jumpi\n              0x00\n              dup1\n              revert\n            tag_56:\n              pop\n              tag_57\n              0x04\n              dup1\n              calldatasize\n              sub\n              dup2\n              add\n              swap1\n              tag_58\n              swap2\n              swap1\n              tag_59\n              jump\t// in\n            tag_58:\n              tag_60\n              jump\t// in\n            tag_57:\n              stop\n                /* \"Campaign.sol\":820:854  uint256 public minimumContribution */\n            tag_10:\n              callvalue\n              dup1\n              iszero\n              tag_61\n              jumpi\n              0x00\n              dup1\n              revert\n            tag_61:\n              pop\n              tag_62\n              tag_63\n              jump\t// in\n            tag_62:\n              mload(0x40)\n              tag_64\n              swap2\n              swap1\n              tag_55\n              jump\t// in\n            tag_64:\n              mload(0x40)\n              dup1\n              swap2\n              sub\n              swap1\n              return\n                /* \"Campaign.sol\":707:735  uint256 public numOfRequests */\n            tag_11:\n              callvalue\n              dup1\n              iszero\n              tag_65\n              jumpi\n              0x00\n              dup1\n              revert\n            tag_65:\n              pop\n              tag_66\n              tag_67\n              jump\t// in\n            tag_66:\n              mload(0x40)\n              tag_68\n              swap2\n              swap1\n              tag_55\n              jump\t// in\n            tag_68:\n              mload(0x40)\n              dup1\n              swap2\n              sub\n              swap1\n              return\n                /* \"Campaign.sol\":1637:2207  function approveRequest(uint256 requestNumber) public {... */\n            tag_12:\n              callvalue\n              dup1\n              iszero\n              tag_69\n              jumpi\n              0x00\n              dup1\n              revert\n            tag_69:\n              pop\n              tag_70\n              0x04\n              dup1\n              calldatasize\n              sub\n              dup2\n              add\n              swap1\n              tag_71\n              swap2\n              swap1\n              tag_26\n              jump\t// in\n            tag_71:\n              tag_72\n              jump\t// in\n            tag_70:\n              stop\n                /* \"Campaign.sol\":2734:2834  function getTotalFunds() public view returns (uint256) {... */\n            tag_13:\n              callvalue\n              dup1\n              iszero\n              tag_73\n              jumpi\n              0x00\n              dup1\n              revert\n            tag_73:\n              pop\n              tag_74\n              tag_75\n              jump\t// in\n            tag_74:\n              mload(0x40)\n              tag_76\n              swap2\n              swap1\n              tag_55\n              jump\t// in\n            tag_76:\n              mload(0x40)\n              dup1\n              swap2\n              sub\n              swap1\n              return\n                /* \"Campaign.sol\":2213:2728  function finalizeRequest(uint256 requestNumber) public onlyManager {... */\n            tag_27:\n                /* \"Campaign.sol\":999:1006  manager */\n              0x02\n              0x00\n              swap1\n              sload\n              swap1\n              0x0100\n              exp\n              swap1\n              div\n              0xffffffffffffffffffffffffffffffffffffffff\n              and\n                /* \"Campaign.sol\":985:1006  msg.sender == manager */\n              0xffffffffffffffffffffffffffffffffffffffff\n              and\n                /* \"Campaign.sol\":985:995  msg.sender */\n              caller\n                /* \"Campaign.sol\":985:1006  msg.sender == manager */\n              0xffffffffffffffffffffffffffffffffffffffff\n              and\n              eq\n                /* \"Campaign.sol\":977:1037  require(msg.sender == manager, \"Only manager is authorized\") */\n              tag_78\n              jumpi\n              mload(0x40)\n              0x08c379a000000000000000000000000000000000000000000000000000000000\n              dup2\n              mstore\n              0x04\n              add\n              tag_79\n              swap1\n              tag_80\n              jump\t// in\n            tag_79:\n              mload(0x40)\n              dup1\n              swap2\n              sub\n              swap1\n              revert\n            tag_78:\n                /* \"Campaign.sol\":2315:2328  numOfRequests */\n              sload(0x00)\n                /* \"Campaign.sol\":2298:2311  requestNumber */\n              dup2\n                /* \"Campaign.sol\":2298:2328  requestNumber <= numOfRequests */\n              gt\n              iszero\n                /* \"Campaign.sol\":2290:2355  require(requestNumber <= numOfRequests, \"invalid request number\") */\n              tag_82\n              jumpi\n              mload(0x40)\n              0x08c379a000000000000000000000000000000000000000000000000000000000\n              dup2\n              mstore\n              0x04\n              add\n              tag_83\n              swap1\n              tag_84\n              jump\t// in\n            tag_83:\n              mload(0x40)\n              dup1\n              swap2\n              sub\n              swap1\n              revert\n            tag_82:\n                /* \"Campaign.sol\":2366:2383  Request storage r */\n              0x00\n                /* \"Campaign.sol\":2386:2394  requests */\n              0x01\n                /* \"Campaign.sol\":2386:2409  requests[requestNumber] */\n              0x00\n                /* \"Campaign.sol\":2395:2408  requestNumber */\n              dup4\n                /* \"Campaign.sol\":2386:2409  requests[requestNumber] */\n              dup2\n              mstore\n              0x20\n              add\n              swap1\n              dup2\n              mstore\n              0x20\n              add\n              0x00\n              keccak256\n                /* \"Campaign.sol\":2366:2409  Request storage r = requests[requestNumber] */\n              swap1\n              pop\n                /* \"Campaign.sol\":2476:2477  2 */\n              0x02\n                /* \"Campaign.sol\":2459:2473  approversCount */\n              sload(0x04)\n                /* \"Campaign.sol\":2459:2477  approversCount / 2 */\n              tag_85\n              swap2\n              swap1\n              tag_86\n              jump\t// in\n            tag_85:\n                /* \"Campaign.sol\":2440:2441  r */\n              dup2\n                /* \"Campaign.sol\":2440:2455  r.approvalCount */\n              0x03\n              add\n              sload\n                /* \"Campaign.sol\":2440:2478  r.approvalCount > (approversCount / 2) */\n              gt\n                /* \"Campaign.sol\":2419:2580  require(... */\n              tag_87\n              jumpi\n              mload(0x40)\n              0x08c379a000000000000000000000000000000000000000000000000000000000\n              dup2\n              mstore\n              0x04\n              add\n              tag_88\n              swap1\n              tag_89\n              jump\t// in\n            tag_88:\n              mload(0x40)\n              dup1\n              swap2\n              sub\n              swap1\n              revert\n            tag_87:\n                /* \"Campaign.sol\":2599:2600  r */\n              dup1\n                /* \"Campaign.sol\":2599:2610  r.completed */\n              0x02\n              add\n              0x14\n              swap1\n              sload\n              swap1\n              0x0100\n              exp\n              swap1\n              div\n              0xff\n              and\n                /* \"Campaign.sol\":2598:2610  !r.completed */\n              iszero\n                /* \"Campaign.sol\":2590:2653  require(!r.completed, \"request is already marked as completed\") */\n              tag_90\n              jumpi\n              mload(0x40)\n              0x08c379a000000000000000000000000000000000000000000000000000000000\n              dup2\n              mstore\n              0x04\n              add\n              tag_91\n              swap1\n              tag_92\n              jump\t// in\n            tag_91:\n              mload(0x40)\n              dup1\n              swap2\n              sub\n              swap1\n              revert\n            tag_90:\n                /* \"Campaign.sol\":2664:2665  r */\n              dup1\n                /* \"Campaign.sol\":2664:2675  r.recipient */\n              0x02\n              add\n              0x00\n              swap1\n              sload\n              swap1\n              0x0100\n              exp\n              swap1\n              div\n              0xffffffffffffffffffffffffffffffffffffffff\n              and\n                /* \"Campaign.sol\":2664:2684  r.recipient.transfer */\n              0xffffffffffffffffffffffffffffffffffffffff\n              and\n                /* \"Campaign.sol\":2664:2693  r.recipient.transfer(r.value) */\n              0x08fc\n                /* \"Campaign.sol\":2685:2686  r */\n              dup3\n                /* \"Campaign.sol\":2685:2692  r.value */\n              0x01\n              add\n              sload\n                /* \"Campaign.sol\":2664:2693  r.recipient.transfer(r.value) */\n              swap1\n              dup2\n              iszero\n              mul\n              swap1\n              mload(0x40)\n              0x00\n              mload(0x40)\n              dup1\n              dup4\n              sub\n              dup2\n              dup6\n              dup9\n              dup9\n              call\n              swap4\n              pop\n              pop\n              pop\n              pop\n              iszero\n              dup1\n              iszero\n              tag_94\n              jumpi\n              returndatasize\n              0x00\n              dup1\n              returndatacopy\n              revert(0x00, returndatasize)\n            tag_94:\n              pop\n                /* \"Campaign.sol\":2717:2721  true */\n              0x01\n                /* \"Campaign.sol\":2703:2704  r */\n              dup2\n                /* \"Campaign.sol\":2703:2714  r.completed */\n              0x02\n              add\n              0x14\n                /* \"Campaign.sol\":2703:2721  r.completed = true */\n              0x0100\n              exp\n              dup2\n              sload\n              dup2\n              0xff\n              mul\n              not\n              and\n              swap1\n              dup4\n              iszero\n              iszero\n              mul\n              or\n              swap1\n              sstore\n              pop\n                /* \"Campaign.sol\":2280:2728  {... */\n              pop\n                /* \"Campaign.sol\":2213:2728  function finalizeRequest(uint256 requestNumber) public onlyManager {... */\n              pop\n              jump\t// out\n                /* \"Campaign.sol\":896:937  mapping(address => bool) public approvers */\n            tag_32:\n              mstore(0x20, 0x05)\n              dup1\n              0x00\n              mstore\n              keccak256(0x00, 0x40)\n              0x00\n              swap2\n              pop\n              sload\n              swap1\n              0x0100\n              exp\n              swap1\n              div\n              0xff\n              and\n              dup2\n              jump\t// out\n                /* \"Campaign.sol\":2840:3198  function getSummary()... */\n            tag_37:\n                /* \"Campaign.sol\":2920:2927  uint256 */\n              0x00\n                /* \"Campaign.sol\":2941:2948  uint256 */\n              dup1\n                /* \"Campaign.sol\":2962:2969  uint256 */\n              0x00\n                /* \"Campaign.sol\":2983:2990  uint256 */\n              dup1\n                /* \"Campaign.sol\":3004:3011  address */\n              0x00\n                /* \"Campaign.sol\":3057:3076  minimumContribution */\n              sload(0x03)\n                /* \"Campaign.sol\":3090:3105  getTotalFunds() */\n              tag_96\n                /* \"Campaign.sol\":3090:3103  getTotalFunds */\n              tag_75\n                /* \"Campaign.sol\":3090:3105  getTotalFunds() */\n              jump\t// in\n            tag_96:\n                /* \"Campaign.sol\":3119:3132  numOfRequests */\n              sload(0x00)\n                /* \"Campaign.sol\":3146:3160  approversCount */\n              sload(0x04)\n                /* \"Campaign.sol\":3174:3181  manager */\n              0x02\n              0x00\n              swap1\n              sload\n              swap1\n              0x0100\n              exp\n              swap1\n              div\n              0xffffffffffffffffffffffffffffffffffffffff\n              and\n                /* \"Campaign.sol\":3036:3191  return (... */\n              swap5\n              pop\n              swap5\n              pop\n              swap5\n              pop\n              swap5\n              pop\n              swap5\n              pop\n                /* \"Campaign.sol\":2840:3198  function getSummary()... */\n              swap1\n              swap2\n              swap3\n              swap4\n              swap5\n              jump\t// out\n                /* \"Campaign.sol\":791:813  address public manager */\n            tag_42:\n              0x02\n              0x00\n              swap1\n              sload\n              swap1\n              0x0100\n              exp\n              swap1\n              div\n              0xffffffffffffffffffffffffffffffffffffffff\n              and\n              dup2\n              jump\t// out\n                /* \"Campaign.sol\":741:784  mapping(uint256 => Request) public requests */\n            tag_48:\n              mstore(0x20, 0x01)\n              dup1\n              0x00\n              mstore\n              keccak256(0x00, 0x40)\n              0x00\n              swap2\n              pop\n              swap1\n              pop\n              dup1\n              0x00\n              add\n              dup1\n              sload\n              tag_97\n              swap1\n              tag_98\n              jump\t// in\n            tag_97:\n              dup1\n              0x1f\n              add\n              0x20\n              dup1\n              swap2\n              div\n              mul\n              0x20\n              add\n              mload(0x40)\n              swap1\n              dup2\n              add\n              0x40\n              mstore\n              dup1\n              swap3\n              swap2\n              swap1\n              dup2\n              dup2\n              mstore\n              0x20\n              add\n              dup3\n              dup1\n              sload\n              tag_99\n              swap1\n              tag_98\n              jump\t// in\n            tag_99:\n              dup1\n              iszero\n              tag_100\n              jumpi\n              dup1\n              0x1f\n              lt\n              tag_101\n              jumpi\n              0x0100\n              dup1\n              dup4\n              sload\n              div\n              mul\n              dup4\n              mstore\n              swap2\n              0x20\n              add\n              swap2\n              jump(tag_100)\n            tag_101:\n              dup3\n              add\n              swap2\n              swap1\n              0x00\n              mstore\n              keccak256(0x00, 0x20)\n              swap1\n            tag_102:\n              dup2\n              sload\n              dup2\n              mstore\n              swap1\n              0x01\n              add\n              swap1\n              0x20\n              add\n              dup1\n              dup4\n              gt\n              tag_102\n              jumpi\n              dup3\n              swap1\n              sub\n              0x1f\n              and\n              dup3\n              add\n              swap2\n            tag_100:\n              pop\n              pop\n              pop\n              pop\n              pop\n              swap1\n              dup1\n              0x01\n              add\n              sload\n              swap1\n              dup1\n              0x02\n              add\n              0x00\n              swap1\n              sload\n              swap1\n              0x0100\n              exp\n              swap1\n              div\n              0xffffffffffffffffffffffffffffffffffffffff\n              and\n              swap1\n              dup1\n              0x02\n              add\n              0x14\n              swap1\n              sload\n              swap1\n              0x0100\n              exp\n              swap1\n              div\n              0xff\n              and\n              swap1\n              dup1\n              0x03\n              add\n              sload\n              swap1\n              pop\n              dup6\n              jump\t// out\n                /* \"Campaign.sol\":861:890  uint256 public approversCount */\n            tag_53:\n              sload(0x04)\n              dup2\n              jump\t// out\n                /* \"Campaign.sol\":1214:1631  function createRequest(... */\n            tag_60:\n                /* \"Campaign.sol\":999:1006  manager */\n              0x02\n              0x00\n              swap1\n              sload\n              swap1\n              0x0100\n              exp\n              swap1\n              div\n              0xffffffffffffffffffffffffffffffffffffffff\n              and\n                /* \"Campaign.sol\":985:1006  msg.sender == manager */\n              0xffffffffffffffffffffffffffffffffffffffff\n              and\n                /* \"Campaign.sol\":985:995  msg.sender */\n              caller\n                /* \"Campaign.sol\":985:1006  msg.sender == manager */\n              0xffffffffffffffffffffffffffffffffffffffff\n              and\n              eq\n                /* \"Campaign.sol\":977:1037  require(msg.sender == manager, \"Only manager is authorized\") */\n              tag_104\n              jumpi\n              mload(0x40)\n              0x08c379a000000000000000000000000000000000000000000000000000000000\n              dup2\n              mstore\n              0x04\n              add\n              tag_105\n              swap1\n              tag_80\n              jump\t// in\n            tag_105:\n              mload(0x40)\n              dup1\n              swap2\n              sub\n              swap1\n              revert\n            tag_104:\n                /* \"Campaign.sol\":1360:1386  Request storage newRequest */\n              0x00\n                /* \"Campaign.sol\":1389:1397  requests */\n              0x01\n                /* \"Campaign.sol\":1389:1414  requests[numOfRequests++] */\n              0x00\n                /* \"Campaign.sol\":1398:1411  numOfRequests */\n              dup1\n              0x00\n                /* \"Campaign.sol\":1398:1413  numOfRequests++ */\n              dup2\n              sload\n              dup1\n              swap3\n              swap2\n              swap1\n              tag_107\n              swap1\n              tag_22\n              jump\t// in\n            tag_107:\n              swap2\n              swap1\n              pop\n              sstore\n                /* \"Campaign.sol\":1389:1414  requests[numOfRequests++] */\n              dup2\n              mstore\n              0x20\n              add\n              swap1\n              dup2\n              mstore\n              0x20\n              add\n              0x00\n              keccak256\n                /* \"Campaign.sol\":1360:1414  Request storage newRequest = requests[numOfRequests++] */\n              swap1\n              pop\n                /* \"Campaign.sol\":1449:1461  _description */\n              dup4\n                /* \"Campaign.sol\":1424:1434  newRequest */\n              dup2\n                /* \"Campaign.sol\":1424:1446  newRequest.description */\n              0x00\n              add\n                /* \"Campaign.sol\":1424:1461  newRequest.description = _description */\n              swap1\n              dup1\n              mload\n              swap1\n              0x20\n              add\n              swap1\n              tag_108\n              swap3\n              swap2\n              swap1\n              tag_109\n              jump\t// in\n            tag_108:\n              pop\n                /* \"Campaign.sol\":1490:1496  _value */\n              dup3\n                /* \"Campaign.sol\":1471:1481  newRequest */\n              dup2\n                /* \"Campaign.sol\":1471:1487  newRequest.value */\n              0x01\n              add\n                /* \"Campaign.sol\":1471:1496  newRequest.value = _value */\n              dup2\n              swap1\n              sstore\n              pop\n                /* \"Campaign.sol\":1537:1547  _recipient */\n              dup2\n                /* \"Campaign.sol\":1506:1516  newRequest */\n              dup2\n                /* \"Campaign.sol\":1506:1526  newRequest.recipient */\n              0x02\n              add\n              0x00\n                /* \"Campaign.sol\":1506:1548  newRequest.recipient = payable(_recipient) */\n              0x0100\n              exp\n              dup2\n              sload\n              dup2\n              0xffffffffffffffffffffffffffffffffffffffff\n              mul\n              not\n              and\n              swap1\n              dup4\n              0xffffffffffffffffffffffffffffffffffffffff\n              and\n              mul\n              or\n              swap1\n              sstore\n              pop\n                /* \"Campaign.sol\":1581:1586  false */\n              0x00\n                /* \"Campaign.sol\":1558:1568  newRequest */\n              dup2\n                /* \"Campaign.sol\":1558:1578  newRequest.completed */\n              0x02\n              add\n              0x14\n                /* \"Campaign.sol\":1558:1586  newRequest.completed = false */\n              0x0100\n              exp\n              dup2\n              sload\n              dup2\n              0xff\n              mul\n              not\n              and\n              swap1\n              dup4\n              iszero\n              iszero\n              mul\n              or\n              swap1\n              sstore\n              pop\n                /* \"Campaign.sol\":1623:1624  0 */\n              0x00\n                /* \"Campaign.sol\":1596:1606  newRequest */\n              dup2\n                /* \"Campaign.sol\":1596:1620  newRequest.approvalCount */\n              0x03\n              add\n                /* \"Campaign.sol\":1596:1624  newRequest.approvalCount = 0 */\n              dup2\n              swap1\n              sstore\n              pop\n                /* \"Campaign.sol\":1350:1631  {... */\n              pop\n                /* \"Campaign.sol\":1214:1631  function createRequest(... */\n              pop\n              pop\n              pop\n              jump\t// out\n                /* \"Campaign.sol\":820:854  uint256 public minimumContribution */\n            tag_63:\n              sload(0x03)\n              dup2\n              jump\t// out\n                /* \"Campaign.sol\":707:735  uint256 public numOfRequests */\n            tag_67:\n              sload(0x00)\n              dup2\n              jump\t// out\n                /* \"Campaign.sol\":1637:2207  function approveRequest(uint256 requestNumber) public {... */\n            tag_72:\n                /* \"Campaign.sol\":1709:1718  approvers */\n              0x05\n                /* \"Campaign.sol\":1709:1730  approvers[msg.sender] */\n              0x00\n                /* \"Campaign.sol\":1719:1729  msg.sender */\n              caller\n                /* \"Campaign.sol\":1709:1730  approvers[msg.sender] */\n              0xffffffffffffffffffffffffffffffffffffffff\n              and\n              0xffffffffffffffffffffffffffffffffffffffff\n              and\n              dup2\n              mstore\n              0x20\n              add\n              swap1\n              dup2\n              mstore\n              0x20\n              add\n              0x00\n              keccak256\n              0x00\n              swap1\n              sload\n              swap1\n              0x0100\n              exp\n              swap1\n              div\n              0xff\n              and\n                /* \"Campaign.sol\":1701:1769  require(approvers[msg.sender], \"you are not an authorized approver\") */\n              tag_111\n              jumpi\n              mload(0x40)\n              0x08c379a000000000000000000000000000000000000000000000000000000000\n              dup2\n              mstore\n              0x04\n              add\n              tag_112\n              swap1\n              tag_113\n              jump\t// in\n            tag_112:\n              mload(0x40)\n              dup1\n              swap2\n              sub\n              swap1\n              revert\n            tag_111:\n                /* \"Campaign.sol\":1817:1818  0 */\n              0x00\n                /* \"Campaign.sol\":1800:1813  requestNumber */\n              dup2\n                /* \"Campaign.sol\":1800:1818  requestNumber >= 0 */\n              lt\n              iszero\n                /* \"Campaign.sol\":1800:1852  requestNumber >= 0 && requestNumber <= numOfRequests */\n              dup1\n              iszero\n              tag_114\n              jumpi\n              pop\n                /* \"Campaign.sol\":1839:1852  numOfRequests */\n              sload(0x00)\n                /* \"Campaign.sol\":1822:1835  requestNumber */\n              dup2\n                /* \"Campaign.sol\":1822:1852  requestNumber <= numOfRequests */\n              gt\n              iszero\n                /* \"Campaign.sol\":1800:1852  requestNumber >= 0 && requestNumber <= numOfRequests */\n            tag_114:\n                /* \"Campaign.sol\":1779:1900  require(... */\n              tag_115\n              jumpi\n              mload(0x40)\n              0x08c379a000000000000000000000000000000000000000000000000000000000\n              dup2\n              mstore\n              0x04\n              add\n              tag_116\n              swap1\n              tag_84\n              jump\t// in\n            tag_116:\n              mload(0x40)\n              dup1\n              swap2\n              sub\n              swap1\n              revert\n            tag_115:\n                /* \"Campaign.sol\":1911:1928  Request storage r */\n              0x00\n                /* \"Campaign.sol\":1931:1939  requests */\n              0x01\n                /* \"Campaign.sol\":1931:1954  requests[requestNumber] */\n              0x00\n                /* \"Campaign.sol\":1940:1953  requestNumber */\n              dup4\n                /* \"Campaign.sol\":1931:1954  requests[requestNumber] */\n              dup2\n              mstore\n              0x20\n              add\n              swap1\n              dup2\n              mstore\n              0x20\n              add\n              0x00\n              keccak256\n                /* \"Campaign.sol\":1911:1954  Request storage r = requests[requestNumber] */\n              swap1\n              pop\n                /* \"Campaign.sol\":1986:1987  r */\n              dup1\n                /* \"Campaign.sol\":1986:1997  r.approvals */\n              0x04\n              add\n                /* \"Campaign.sol\":1986:2009  r.approvals[msg.sender] */\n              0x00\n                /* \"Campaign.sol\":1998:2008  msg.sender */\n              caller\n                /* \"Campaign.sol\":1986:2009  r.approvals[msg.sender] */\n              0xffffffffffffffffffffffffffffffffffffffff\n              and\n              0xffffffffffffffffffffffffffffffffffffffff\n              and\n              dup2\n              mstore\n              0x20\n              add\n              swap1\n              dup2\n              mstore\n              0x20\n              add\n              0x00\n              keccak256\n              0x00\n              swap1\n              sload\n              swap1\n              0x0100\n              exp\n              swap1\n              div\n              0xff\n              and\n                /* \"Campaign.sol\":1985:2009  !r.approvals[msg.sender] */\n              iszero\n                /* \"Campaign.sol\":1964:2073  require(... */\n              tag_117\n              jumpi\n              mload(0x40)\n              0x08c379a000000000000000000000000000000000000000000000000000000000\n              dup2\n              mstore\n              0x04\n              add\n              tag_118\n              swap1\n              tag_119\n              jump\t// in\n            tag_118:\n              mload(0x40)\n              dup1\n              swap2\n              sub\n              swap1\n              revert\n            tag_117:\n                /* \"Campaign.sol\":2169:2173  true */\n              0x01\n                /* \"Campaign.sol\":2143:2144  r */\n              dup2\n                /* \"Campaign.sol\":2143:2154  r.approvals */\n              0x04\n              add\n                /* \"Campaign.sol\":2143:2166  r.approvals[msg.sender] */\n              0x00\n                /* \"Campaign.sol\":2155:2165  msg.sender */\n              caller\n                /* \"Campaign.sol\":2143:2166  r.approvals[msg.sender] */\n              0xffffffffffffffffffffffffffffffffffffffff\n              and\n              0xffffffffffffffffffffffffffffffffffffffff\n              and\n              dup2\n              mstore\n              0x20\n              add\n              swap1\n              dup2\n              mstore\n              0x20\n              add\n              0x00\n              keccak256\n              0x00\n                /* \"Campaign.sol\":2143:2173  r.approvals[msg.sender] = true */\n              0x0100\n              exp\n              dup2\n              sload\n              dup2\n              0xff\n              mul\n              not\n              and\n              swap1\n              dup4\n              iszero\n              iszero\n              mul\n              or\n              swap1\n              sstore\n              pop\n                /* \"Campaign.sol\":2183:2184  r */\n              dup1\n                /* \"Campaign.sol\":2183:2198  r.approvalCount */\n              0x03\n              add\n              0x00\n                /* \"Campaign.sol\":2183:2200  r.approvalCount++ */\n              dup2\n              sload\n              dup1\n              swap3\n              swap2\n              swap1\n              tag_120\n              swap1\n              tag_22\n              jump\t// in\n            tag_120:\n              swap2\n              swap1\n              pop\n              sstore\n              pop\n                /* \"Campaign.sol\":1691:2207  {... */\n              pop\n                /* \"Campaign.sol\":1637:2207  function approveRequest(uint256 requestNumber) public {... */\n              pop\n              jump\t// out\n                /* \"Campaign.sol\":2734:2834  function getTotalFunds() public view returns (uint256) {... */\n            tag_75:\n                /* \"Campaign.sol\":2780:2787  uint256 */\n              0x00\n                /* \"Campaign.sol\":2806:2827  address(this).balance */\n              selfbalance\n                /* \"Campaign.sol\":2799:2827  return address(this).balance */\n              swap1\n              pop\n                /* \"Campaign.sol\":2734:2834  function getTotalFunds() public view returns (uint256) {... */\n              swap1\n              jump\t// out\n            tag_109:\n              dup3\n              dup1\n              sload\n              tag_122\n              swap1\n              tag_98\n              jump\t// in\n            tag_122:\n              swap1\n              0x00\n              mstore\n              keccak256(0x00, 0x20)\n              swap1\n              0x1f\n              add\n              0x20\n              swap1\n              div\n              dup2\n              add\n              swap3\n              dup3\n              tag_124\n              jumpi\n              0x00\n              dup6\n              sstore\n              jump(tag_123)\n            tag_124:\n              dup3\n              0x1f\n              lt\n              tag_125\n              jumpi\n              dup1\n              mload\n              not(0xff)\n              and\n              dup4\n              dup1\n              add\n              or\n              dup6\n              sstore\n              jump(tag_123)\n            tag_125:\n              dup3\n              dup1\n              add\n              0x01\n              add\n              dup6\n              sstore\n              dup3\n              iszero\n              tag_123\n              jumpi\n              swap2\n              dup3\n              add\n            tag_126:\n              dup3\n              dup2\n              gt\n              iszero\n              tag_127\n              jumpi\n              dup3\n              mload\n              dup3\n              sstore\n              swap2\n              0x20\n              add\n              swap2\n              swap1\n              0x01\n              add\n              swap1\n              jump(tag_126)\n            tag_127:\n            tag_123:\n              pop\n              swap1\n              pop\n              tag_128\n              swap2\n              swap1\n              tag_129\n              jump\t// in\n            tag_128:\n              pop\n              swap1\n              jump\t// out\n            tag_129:\n            tag_130:\n              dup1\n              dup3\n              gt\n              iszero\n              tag_131\n              jumpi\n              0x00\n              dup2\n              0x00\n              swap1\n              sstore\n              pop\n              0x01\n              add\n              jump(tag_130)\n            tag_131:\n              pop\n              swap1\n              jump\t// out\n                /* \"#utility.yul\":7:419   */\n            tag_133:\n                /* \"#utility.yul\":85:90   */\n              0x00\n                /* \"#utility.yul\":110:176   */\n              tag_135\n                /* \"#utility.yul\":126:175   */\n              tag_136\n                /* \"#utility.yul\":168:174   */\n              dup5\n                /* \"#utility.yul\":126:175   */\n              tag_137\n              jump\t// in\n            tag_136:\n                /* \"#utility.yul\":110:176   */\n              tag_138\n              jump\t// in\n            tag_135:\n                /* \"#utility.yul\":101:176   */\n              swap1\n              pop\n                /* \"#utility.yul\":199:205   */\n              dup3\n                /* \"#utility.yul\":192:197   */\n              dup2\n                /* \"#utility.yul\":185:206   */\n              mstore\n                /* \"#utility.yul\":237:241   */\n              0x20\n                /* \"#utility.yul\":230:235   */\n              dup2\n                /* \"#utility.yul\":226:242   */\n              add\n                /* \"#utility.yul\":275:278   */\n              dup5\n                /* \"#utility.yul\":266:272   */\n              dup5\n                /* \"#utility.yul\":261:264   */\n              dup5\n                /* \"#utility.yul\":257:273   */\n              add\n                /* \"#utility.yul\":254:279   */\n              gt\n                /* \"#utility.yul\":251:253   */\n              iszero\n              tag_139\n              jumpi\n                /* \"#utility.yul\":282:361   */\n              tag_140\n              tag_141\n              jump\t// in\n            tag_140:\n                /* \"#utility.yul\":251:253   */\n            tag_139:\n                /* \"#utility.yul\":372:413   */\n              tag_142\n                /* \"#utility.yul\":406:412   */\n              dup5\n                /* \"#utility.yul\":401:404   */\n              dup3\n                /* \"#utility.yul\":396:399   */\n              dup6\n                /* \"#utility.yul\":372:413   */\n              tag_143\n              jump\t// in\n            tag_142:\n                /* \"#utility.yul\":91:419   */\n              pop\n              swap4\n              swap3\n              pop\n              pop\n              pop\n              jump\t// out\n                /* \"#utility.yul\":425:564   */\n            tag_144:\n                /* \"#utility.yul\":471:476   */\n              0x00\n                /* \"#utility.yul\":509:515   */\n              dup2\n                /* \"#utility.yul\":496:516   */\n              calldataload\n                /* \"#utility.yul\":487:516   */\n              swap1\n              pop\n                /* \"#utility.yul\":525:558   */\n              tag_146\n                /* \"#utility.yul\":552:557   */\n              dup2\n                /* \"#utility.yul\":525:558   */\n              tag_147\n              jump\t// in\n            tag_146:\n                /* \"#utility.yul\":477:564   */\n              swap3\n              swap2\n              pop\n              pop\n              jump\t// out\n                /* \"#utility.yul\":584:924   */\n            tag_148:\n                /* \"#utility.yul\":640:645   */\n              0x00\n                /* \"#utility.yul\":689:692   */\n              dup3\n                /* \"#utility.yul\":682:686   */\n              0x1f\n                /* \"#utility.yul\":674:680   */\n              dup4\n                /* \"#utility.yul\":670:687   */\n              add\n                /* \"#utility.yul\":666:693   */\n              slt\n                /* \"#utility.yul\":656:658   */\n              tag_150\n              jumpi\n                /* \"#utility.yul\":697:776   */\n              tag_151\n              tag_152\n              jump\t// in\n            tag_151:\n                /* \"#utility.yul\":656:658   */\n            tag_150:\n                /* \"#utility.yul\":814:820   */\n              dup2\n                /* \"#utility.yul\":801:821   */\n              calldataload\n                /* \"#utility.yul\":839:918   */\n              tag_153\n                /* \"#utility.yul\":914:917   */\n              dup5\n                /* \"#utility.yul\":906:912   */\n              dup3\n                /* \"#utility.yul\":899:903   */\n              0x20\n                /* \"#utility.yul\":891:897   */\n              dup7\n                /* \"#utility.yul\":887:904   */\n              add\n                /* \"#utility.yul\":839:918   */\n              tag_133\n              jump\t// in\n            tag_153:\n                /* \"#utility.yul\":830:918   */\n              swap2\n              pop\n                /* \"#utility.yul\":646:924   */\n              pop\n              swap3\n              swap2\n              pop\n              pop\n              jump\t// out\n                /* \"#utility.yul\":930:1069   */\n            tag_154:\n                /* \"#utility.yul\":976:981   */\n              0x00\n                /* \"#utility.yul\":1014:1020   */\n              dup2\n                /* \"#utility.yul\":1001:1021   */\n              calldataload\n                /* \"#utility.yul\":992:1021   */\n              swap1\n              pop\n                /* \"#utility.yul\":1030:1063   */\n              tag_156\n                /* \"#utility.yul\":1057:1062   */\n              dup2\n                /* \"#utility.yul\":1030:1063   */\n              tag_157\n              jump\t// in\n            tag_156:\n                /* \"#utility.yul\":982:1069   */\n              swap3\n              swap2\n              pop\n              pop\n              jump\t// out\n                /* \"#utility.yul\":1075:1404   */\n            tag_31:\n                /* \"#utility.yul\":1134:1140   */\n              0x00\n                /* \"#utility.yul\":1183:1185   */\n              0x20\n                /* \"#utility.yul\":1171:1180   */\n              dup3\n                /* \"#utility.yul\":1162:1169   */\n              dup5\n                /* \"#utility.yul\":1158:1181   */\n              sub\n                /* \"#utility.yul\":1154:1186   */\n              slt\n                /* \"#utility.yul\":1151:1153   */\n              iszero\n              tag_159\n              jumpi\n                /* \"#utility.yul\":1189:1268   */\n              tag_160\n              tag_161\n              jump\t// in\n            tag_160:\n                /* \"#utility.yul\":1151:1153   */\n            tag_159:\n                /* \"#utility.yul\":1309:1310   */\n              0x00\n                /* \"#utility.yul\":1334:1387   */\n              tag_162\n                /* \"#utility.yul\":1379:1386   */\n              dup5\n                /* \"#utility.yul\":1370:1376   */\n              dup3\n                /* \"#utility.yul\":1359:1368   */\n              dup6\n                /* \"#utility.yul\":1355:1377   */\n              add\n                /* \"#utility.yul\":1334:1387   */\n              tag_144\n              jump\t// in\n            tag_162:\n                /* \"#utility.yul\":1324:1387   */\n              swap2\n              pop\n                /* \"#utility.yul\":1280:1397   */\n              pop\n                /* \"#utility.yul\":1141:1404   */\n              swap3\n              swap2\n              pop\n              pop\n              jump\t// out\n                /* \"#utility.yul\":1410:2209   */\n            tag_59:\n                /* \"#utility.yul\":1497:1503   */\n              0x00\n                /* \"#utility.yul\":1505:1511   */\n              dup1\n                /* \"#utility.yul\":1513:1519   */\n              0x00\n                /* \"#utility.yul\":1562:1564   */\n              0x60\n                /* \"#utility.yul\":1550:1559   */\n              dup5\n                /* \"#utility.yul\":1541:1548   */\n              dup7\n                /* \"#utility.yul\":1537:1560   */\n              sub\n                /* \"#utility.yul\":1533:1565   */\n              slt\n                /* \"#utility.yul\":1530:1532   */\n              iszero\n              tag_164\n              jumpi\n                /* \"#utility.yul\":1568:1647   */\n              tag_165\n              tag_161\n              jump\t// in\n            tag_165:\n                /* \"#utility.yul\":1530:1532   */\n            tag_164:\n                /* \"#utility.yul\":1716:1717   */\n              0x00\n                /* \"#utility.yul\":1705:1714   */\n              dup5\n                /* \"#utility.yul\":1701:1718   */\n              add\n                /* \"#utility.yul\":1688:1719   */\n              calldataload\n                /* \"#utility.yul\":1746:1764   */\n              0xffffffffffffffff\n                /* \"#utility.yul\":1738:1744   */\n              dup2\n                /* \"#utility.yul\":1735:1765   */\n              gt\n                /* \"#utility.yul\":1732:1734   */\n              iszero\n              tag_166\n              jumpi\n                /* \"#utility.yul\":1768:1847   */\n              tag_167\n              tag_168\n              jump\t// in\n            tag_167:\n                /* \"#utility.yul\":1732:1734   */\n            tag_166:\n                /* \"#utility.yul\":1873:1936   */\n              tag_169\n                /* \"#utility.yul\":1928:1935   */\n              dup7\n                /* \"#utility.yul\":1919:1925   */\n              dup3\n                /* \"#utility.yul\":1908:1917   */\n              dup8\n                /* \"#utility.yul\":1904:1926   */\n              add\n                /* \"#utility.yul\":1873:1936   */\n              tag_148\n              jump\t// in\n            tag_169:\n                /* \"#utility.yul\":1863:1936   */\n              swap4\n              pop\n                /* \"#utility.yul\":1659:1946   */\n              pop\n                /* \"#utility.yul\":1985:1987   */\n              0x20\n                /* \"#utility.yul\":2011:2064   */\n              tag_170\n                /* \"#utility.yul\":2056:2063   */\n              dup7\n                /* \"#utility.yul\":2047:2053   */\n              dup3\n                /* \"#utility.yul\":2036:2045   */\n              dup8\n                /* \"#utility.yul\":2032:2054   */\n              add\n                /* \"#utility.yul\":2011:2064   */\n              tag_154\n              jump\t// in\n            tag_170:\n                /* \"#utility.yul\":2001:2064   */\n              swap3\n              pop\n                /* \"#utility.yul\":1956:2074   */\n              pop\n                /* \"#utility.yul\":2113:2115   */\n              0x40\n                /* \"#utility.yul\":2139:2192   */\n              tag_171\n                /* \"#utility.yul\":2184:2191   */\n              dup7\n                /* \"#utility.yul\":2175:2181   */\n              dup3\n                /* \"#utility.yul\":2164:2173   */\n              dup8\n                /* \"#utility.yul\":2160:2182   */\n              add\n                /* \"#utility.yul\":2139:2192   */\n              tag_144\n              jump\t// in\n            tag_171:\n                /* \"#utility.yul\":2129:2192   */\n              swap2\n              pop\n                /* \"#utility.yul\":2084:2202   */\n              pop\n                /* \"#utility.yul\":1520:2209   */\n              swap3\n              pop\n              swap3\n              pop\n              swap3\n              jump\t// out\n                /* \"#utility.yul\":2215:2544   */\n            tag_26:\n                /* \"#utility.yul\":2274:2280   */\n              0x00\n                /* \"#utility.yul\":2323:2325   */\n              0x20\n                /* \"#utility.yul\":2311:2320   */\n              dup3\n                /* \"#utility.yul\":2302:2309   */\n              dup5\n                /* \"#utility.yul\":2298:2321   */\n              sub\n                /* \"#utility.yul\":2294:2326   */\n              slt\n                /* \"#utility.yul\":2291:2293   */\n              iszero\n              tag_173\n              jumpi\n                /* \"#utility.yul\":2329:2408   */\n              tag_174\n              tag_161\n              jump\t// in\n            tag_174:\n                /* \"#utility.yul\":2291:2293   */\n            tag_173:\n                /* \"#utility.yul\":2449:2450   */\n              0x00\n                /* \"#utility.yul\":2474:2527   */\n              tag_175\n                /* \"#utility.yul\":2519:2526   */\n              dup5\n                /* \"#utility.yul\":2510:2516   */\n              dup3\n                /* \"#utility.yul\":2499:2508   */\n              dup6\n                /* \"#utility.yul\":2495:2517   */\n              add\n                /* \"#utility.yul\":2474:2527   */\n              tag_154\n              jump\t// in\n            tag_175:\n                /* \"#utility.yul\":2464:2527   */\n              swap2\n              pop\n                /* \"#utility.yul\":2420:2537   */\n              pop\n                /* \"#utility.yul\":2281:2544   */\n              swap3\n              swap2\n              pop\n              pop\n              jump\t// out\n                /* \"#utility.yul\":2550:2692   */\n            tag_176:\n                /* \"#utility.yul\":2653:2685   */\n              tag_178\n                /* \"#utility.yul\":2679:2684   */\n              dup2\n                /* \"#utility.yul\":2653:2685   */\n              tag_179\n              jump\t// in\n            tag_178:\n                /* \"#utility.yul\":2648:2651   */\n              dup3\n                /* \"#utility.yul\":2641:2686   */\n              mstore\n                /* \"#utility.yul\":2631:2692   */\n              pop\n              pop\n              jump\t// out\n                /* \"#utility.yul\":2698:2816   */\n            tag_180:\n                /* \"#utility.yul\":2785:2809   */\n              tag_182\n                /* \"#utility.yul\":2803:2808   */\n              dup2\n                /* \"#utility.yul\":2785:2809   */\n              tag_183\n              jump\t// in\n            tag_182:\n                /* \"#utility.yul\":2780:2783   */\n              dup3\n                /* \"#utility.yul\":2773:2810   */\n              mstore\n                /* \"#utility.yul\":2763:2816   */\n              pop\n              pop\n              jump\t// out\n                /* \"#utility.yul\":2822:2931   */\n            tag_184:\n                /* \"#utility.yul\":2903:2924   */\n              tag_186\n                /* \"#utility.yul\":2918:2923   */\n              dup2\n                /* \"#utility.yul\":2903:2924   */\n              tag_187\n              jump\t// in\n            tag_186:\n                /* \"#utility.yul\":2898:2901   */\n              dup3\n                /* \"#utility.yul\":2891:2925   */\n              mstore\n                /* \"#utility.yul\":2881:2931   */\n              pop\n              pop\n              jump\t// out\n                /* \"#utility.yul\":2937:3301   */\n            tag_188:\n                /* \"#utility.yul\":3025:3028   */\n              0x00\n                /* \"#utility.yul\":3053:3092   */\n              tag_190\n                /* \"#utility.yul\":3086:3091   */\n              dup3\n                /* \"#utility.yul\":3053:3092   */\n              tag_191\n              jump\t// in\n            tag_190:\n                /* \"#utility.yul\":3108:3179   */\n              tag_192\n                /* \"#utility.yul\":3172:3178   */\n              dup2\n                /* \"#utility.yul\":3167:3170   */\n              dup6\n                /* \"#utility.yul\":3108:3179   */\n              tag_193\n              jump\t// in\n            tag_192:\n                /* \"#utility.yul\":3101:3179   */\n              swap4\n              pop\n                /* \"#utility.yul\":3188:3240   */\n              tag_194\n                /* \"#utility.yul\":3233:3239   */\n              dup2\n                /* \"#utility.yul\":3228:3231   */\n              dup6\n                /* \"#utility.yul\":3221:3225   */\n              0x20\n                /* \"#utility.yul\":3214:3219   */\n              dup7\n                /* \"#utility.yul\":3210:3226   */\n              add\n                /* \"#utility.yul\":3188:3240   */\n              tag_195\n              jump\t// in\n            tag_194:\n                /* \"#utility.yul\":3265:3294   */\n              tag_196\n                /* \"#utility.yul\":3287:3293   */\n              dup2\n                /* \"#utility.yul\":3265:3294   */\n              tag_197\n              jump\t// in\n            tag_196:\n                /* \"#utility.yul\":3260:3263   */\n              dup5\n                /* \"#utility.yul\":3256:3295   */\n              add\n                /* \"#utility.yul\":3249:3295   */\n              swap2\n              pop\n                /* \"#utility.yul\":3029:3301   */\n              pop\n              swap3\n              swap2\n              pop\n              pop\n              jump\t// out\n                /* \"#utility.yul\":3307:3673   */\n            tag_198:\n                /* \"#utility.yul\":3449:3452   */\n              0x00\n                /* \"#utility.yul\":3470:3537   */\n              tag_200\n                /* \"#utility.yul\":3534:3536   */\n              0x26\n                /* \"#utility.yul\":3529:3532   */\n              dup4\n                /* \"#utility.yul\":3470:3537   */\n              tag_193\n              jump\t// in\n            tag_200:\n                /* \"#utility.yul\":3463:3537   */\n              swap2\n              pop\n                /* \"#utility.yul\":3546:3639   */\n              tag_201\n                /* \"#utility.yul\":3635:3638   */\n              dup3\n                /* \"#utility.yul\":3546:3639   */\n              tag_202\n              jump\t// in\n            tag_201:\n                /* \"#utility.yul\":3664:3666   */\n              0x40\n                /* \"#utility.yul\":3659:3662   */\n              dup3\n                /* \"#utility.yul\":3655:3667   */\n              add\n                /* \"#utility.yul\":3648:3667   */\n              swap1\n              pop\n                /* \"#utility.yul\":3453:3673   */\n              swap2\n              swap1\n              pop\n              jump\t// out\n                /* \"#utility.yul\":3679:4045   */\n            tag_203:\n                /* \"#utility.yul\":3821:3824   */\n              0x00\n                /* \"#utility.yul\":3842:3909   */\n              tag_205\n                /* \"#utility.yul\":3906:3908   */\n              0x4c\n                /* \"#utility.yul\":3901:3904   */\n              dup4\n                /* \"#utility.yul\":3842:3909   */\n              tag_193\n              jump\t// in\n            tag_205:\n                /* \"#utility.yul\":3835:3909   */\n              swap2\n              pop\n                /* \"#utility.yul\":3918:4011   */\n              tag_206\n                /* \"#utility.yul\":4007:4010   */\n              dup3\n                /* \"#utility.yul\":3918:4011   */\n              tag_207\n              jump\t// in\n            tag_206:\n                /* \"#utility.yul\":4036:4038   */\n              0x60\n                /* \"#utility.yul\":4031:4034   */\n              dup3\n                /* \"#utility.yul\":4027:4039   */\n              add\n                /* \"#utility.yul\":4020:4039   */\n              swap1\n              pop\n                /* \"#utility.yul\":3825:4045   */\n              swap2\n              swap1\n              pop\n              jump\t// out\n                /* \"#utility.yul\":4051:4417   */\n            tag_208:\n                /* \"#utility.yul\":4193:4196   */\n              0x00\n                /* \"#utility.yul\":4214:4281   */\n              tag_210\n                /* \"#utility.yul\":4278:4280   */\n              0x22\n                /* \"#utility.yul\":4273:4276   */\n              dup4\n                /* \"#utility.yul\":4214:4281   */\n              tag_193\n              jump\t// in\n            tag_210:\n                /* \"#utility.yul\":4207:4281   */\n              swap2\n              pop\n                /* \"#utility.yul\":4290:4383   */\n              tag_211\n                /* \"#utility.yul\":4379:4382   */\n              dup3\n                /* \"#utility.yul\":4290:4383   */\n              tag_212\n              jump\t// in\n            tag_211:\n                /* \"#utility.yul\":4408:4410   */\n              0x40\n                /* \"#utility.yul\":4403:4406   */\n              dup3\n                /* \"#utility.yul\":4399:4411   */\n              add\n                /* \"#utility.yul\":4392:4411   */\n              swap1\n              pop\n                /* \"#utility.yul\":4197:4417   */\n              swap2\n              swap1\n              pop\n              jump\t// out\n                /* \"#utility.yul\":4423:4789   */\n            tag_213:\n                /* \"#utility.yul\":4565:4568   */\n              0x00\n                /* \"#utility.yul\":4586:4653   */\n              tag_215\n                /* \"#utility.yul\":4650:4652   */\n              0x16\n                /* \"#utility.yul\":4645:4648   */\n              dup4\n                /* \"#utility.yul\":4586:4653   */\n              tag_193\n              jump\t// in\n            tag_215:\n                /* \"#utility.yul\":4579:4653   */\n              swap2\n              pop\n                /* \"#utility.yul\":4662:4755   */\n              tag_216\n                /* \"#utility.yul\":4751:4754   */\n              dup3\n                /* \"#utility.yul\":4662:4755   */\n              tag_217\n              jump\t// in\n            tag_216:\n                /* \"#utility.yul\":4780:4782   */\n              0x20\n                /* \"#utility.yul\":4775:4778   */\n              dup3\n                /* \"#utility.yul\":4771:4783   */\n              add\n                /* \"#utility.yul\":4764:4783   */\n              swap1\n              pop\n                /* \"#utility.yul\":4569:4789   */\n              swap2\n              swap1\n              pop\n              jump\t// out\n                /* \"#utility.yul\":4795:5161   */\n            tag_218:\n                /* \"#utility.yul\":4937:4940   */\n              0x00\n                /* \"#utility.yul\":4958:5025   */\n              tag_220\n                /* \"#utility.yul\":5022:5024   */\n              0x1a\n                /* \"#utility.yul\":5017:5020   */\n              dup4\n                /* \"#utility.yul\":4958:5025   */\n              tag_193\n              jump\t// in\n            tag_220:\n                /* \"#utility.yul\":4951:5025   */\n              swap2\n              pop\n                /* \"#utility.yul\":5034:5127   */\n              tag_221\n                /* \"#utility.yul\":5123:5126   */\n              dup3\n                /* \"#utility.yul\":5034:5127   */\n              tag_222\n              jump\t// in\n            tag_221:\n                /* \"#utility.yul\":5152:5154   */\n              0x20\n                /* \"#utility.yul\":5147:5150   */\n              dup3\n                /* \"#utility.yul\":5143:5155   */\n              add\n                /* \"#utility.yul\":5136:5155   */\n              swap1\n              pop\n                /* \"#utility.yul\":4941:5161   */\n              swap2\n              swap1\n              pop\n              jump\t// out\n                /* \"#utility.yul\":5167:5533   */\n            tag_223:\n                /* \"#utility.yul\":5309:5312   */\n              0x00\n                /* \"#utility.yul\":5330:5397   */\n              tag_225\n                /* \"#utility.yul\":5394:5396   */\n              0x26\n                /* \"#utility.yul\":5389:5392   */\n              dup4\n                /* \"#utility.yul\":5330:5397   */\n              tag_193\n              jump\t// in\n            tag_225:\n                /* \"#utility.yul\":5323:5397   */\n              swap2\n              pop\n                /* \"#utility.yul\":5406:5499   */\n              tag_226\n                /* \"#utility.yul\":5495:5498   */\n              dup3\n                /* \"#utility.yul\":5406:5499   */\n              tag_227\n              jump\t// in\n            tag_226:\n                /* \"#utility.yul\":5524:5526   */\n              0x40\n                /* \"#utility.yul\":5519:5522   */\n              dup3\n                /* \"#utility.yul\":5515:5527   */\n              add\n                /* \"#utility.yul\":5508:5527   */\n              swap1\n              pop\n                /* \"#utility.yul\":5313:5533   */\n              swap2\n              swap1\n              pop\n              jump\t// out\n                /* \"#utility.yul\":5539:5905   */\n            tag_228:\n                /* \"#utility.yul\":5681:5684   */\n              0x00\n                /* \"#utility.yul\":5702:5769   */\n              tag_230\n                /* \"#utility.yul\":5766:5768   */\n              0x3f\n                /* \"#utility.yul\":5761:5764   */\n              dup4\n                /* \"#utility.yul\":5702:5769   */\n              tag_193\n              jump\t// in\n            tag_230:\n                /* \"#utility.yul\":5695:5769   */\n              swap2\n              pop\n                /* \"#utility.yul\":5778:5871   */\n              tag_231\n                /* \"#utility.yul\":5867:5870   */\n              dup3\n                /* \"#utility.yul\":5778:5871   */\n              tag_232\n              jump\t// in\n            tag_231:\n                /* \"#utility.yul\":5896:5898   */\n              0x40\n                /* \"#utility.yul\":5891:5894   */\n              dup3\n                /* \"#utility.yul\":5887:5899   */\n              add\n                /* \"#utility.yul\":5880:5899   */\n              swap1\n              pop\n                /* \"#utility.yul\":5685:5905   */\n              swap2\n              swap1\n              pop\n              jump\t// out\n                /* \"#utility.yul\":5911:6029   */\n            tag_233:\n                /* \"#utility.yul\":5998:6022   */\n              tag_235\n                /* \"#utility.yul\":6016:6021   */\n              dup2\n                /* \"#utility.yul\":5998:6022   */\n              tag_236\n              jump\t// in\n            tag_235:\n                /* \"#utility.yul\":5993:5996   */\n              dup3\n                /* \"#utility.yul\":5986:6023   */\n              mstore\n                /* \"#utility.yul\":5976:6029   */\n              pop\n              pop\n              jump\t// out\n                /* \"#utility.yul\":6035:6257   */\n            tag_44:\n                /* \"#utility.yul\":6128:6132   */\n              0x00\n                /* \"#utility.yul\":6166:6168   */\n              0x20\n                /* \"#utility.yul\":6155:6164   */\n              dup3\n                /* \"#utility.yul\":6151:6169   */\n              add\n                /* \"#utility.yul\":6143:6169   */\n              swap1\n              pop\n                /* \"#utility.yul\":6179:6250   */\n              tag_238\n                /* \"#utility.yul\":6247:6248   */\n              0x00\n                /* \"#utility.yul\":6236:6245   */\n              dup4\n                /* \"#utility.yul\":6232:6249   */\n              add\n                /* \"#utility.yul\":6223:6229   */\n              dup5\n                /* \"#utility.yul\":6179:6250   */\n              tag_180\n              jump\t// in\n            tag_238:\n                /* \"#utility.yul\":6133:6257   */\n              swap3\n              swap2\n              pop\n              pop\n              jump\t// out\n                /* \"#utility.yul\":6263:6473   */\n            tag_34:\n                /* \"#utility.yul\":6350:6354   */\n              0x00\n                /* \"#utility.yul\":6388:6390   */\n              0x20\n                /* \"#utility.yul\":6377:6386   */\n              dup3\n                /* \"#utility.yul\":6373:6391   */\n              add\n                /* \"#utility.yul\":6365:6391   */\n              swap1\n              pop\n                /* \"#utility.yul\":6401:6466   */\n              tag_240\n                /* \"#utility.yul\":6463:6464   */\n              0x00\n                /* \"#utility.yul\":6452:6461   */\n              dup4\n                /* \"#utility.yul\":6448:6465   */\n              add\n                /* \"#utility.yul\":6439:6445   */\n              dup5\n                /* \"#utility.yul\":6401:6466   */\n              tag_184\n              jump\t// in\n            tag_240:\n                /* \"#utility.yul\":6355:6473   */\n              swap3\n              swap2\n              pop\n              pop\n              jump\t// out\n                /* \"#utility.yul\":6479:7254   */\n            tag_50:\n                /* \"#utility.yul\":6714:6718   */\n              0x00\n                /* \"#utility.yul\":6752:6755   */\n              0xa0\n                /* \"#utility.yul\":6741:6750   */\n              dup3\n                /* \"#utility.yul\":6737:6756   */\n              add\n                /* \"#utility.yul\":6729:6756   */\n              swap1\n              pop\n                /* \"#utility.yul\":6802:6811   */\n              dup2\n                /* \"#utility.yul\":6796:6800   */\n              dup2\n                /* \"#utility.yul\":6792:6812   */\n              sub\n                /* \"#utility.yul\":6788:6789   */\n              0x00\n                /* \"#utility.yul\":6777:6786   */\n              dup4\n                /* \"#utility.yul\":6773:6790   */\n              add\n                /* \"#utility.yul\":6766:6813   */\n              mstore\n                /* \"#utility.yul\":6830:6908   */\n              tag_242\n                /* \"#utility.yul\":6903:6907   */\n              dup2\n                /* \"#utility.yul\":6894:6900   */\n              dup9\n                /* \"#utility.yul\":6830:6908   */\n              tag_188\n              jump\t// in\n            tag_242:\n                /* \"#utility.yul\":6822:6908   */\n              swap1\n              pop\n                /* \"#utility.yul\":6918:6990   */\n              tag_243\n                /* \"#utility.yul\":6986:6988   */\n              0x20\n                /* \"#utility.yul\":6975:6984   */\n              dup4\n                /* \"#utility.yul\":6971:6989   */\n              add\n                /* \"#utility.yul\":6962:6968   */\n              dup8\n                /* \"#utility.yul\":6918:6990   */\n              tag_233\n              jump\t// in\n            tag_243:\n                /* \"#utility.yul\":7000:7088   */\n              tag_244\n                /* \"#utility.yul\":7084:7086   */\n              0x40\n                /* \"#utility.yul\":7073:7082   */\n              dup4\n                /* \"#utility.yul\":7069:7087   */\n              add\n                /* \"#utility.yul\":7060:7066   */\n              dup7\n                /* \"#utility.yul\":7000:7088   */\n              tag_176\n              jump\t// in\n            tag_244:\n                /* \"#utility.yul\":7098:7164   */\n              tag_245\n                /* \"#utility.yul\":7160:7162   */\n              0x60\n                /* \"#utility.yul\":7149:7158   */\n              dup4\n                /* \"#utility.yul\":7145:7163   */\n              add\n                /* \"#utility.yul\":7136:7142   */\n              dup6\n                /* \"#utility.yul\":7098:7164   */\n              tag_184\n              jump\t// in\n            tag_245:\n                /* \"#utility.yul\":7174:7247   */\n              tag_246\n                /* \"#utility.yul\":7242:7245   */\n              0x80\n                /* \"#utility.yul\":7231:7240   */\n              dup4\n                /* \"#utility.yul\":7227:7246   */\n              add\n                /* \"#utility.yul\":7218:7224   */\n              dup5\n                /* \"#utility.yul\":7174:7247   */\n              tag_233\n              jump\t// in\n            tag_246:\n                /* \"#utility.yul\":6719:7254   */\n              swap7\n              swap6\n              pop\n              pop\n              pop\n              pop\n              pop\n              pop\n              jump\t// out\n                /* \"#utility.yul\":7260:7679   */\n            tag_92:\n                /* \"#utility.yul\":7426:7430   */\n              0x00\n                /* \"#utility.yul\":7464:7466   */\n              0x20\n                /* \"#utility.yul\":7453:7462   */\n              dup3\n                /* \"#utility.yul\":7449:7467   */\n              add\n                /* \"#utility.yul\":7441:7467   */\n              swap1\n              pop\n                /* \"#utility.yul\":7513:7522   */\n              dup2\n                /* \"#utility.yul\":7507:7511   */\n              dup2\n                /* \"#utility.yul\":7503:7523   */\n              sub\n                /* \"#utility.yul\":7499:7500   */\n              0x00\n                /* \"#utility.yul\":7488:7497   */\n              dup4\n                /* \"#utility.yul\":7484:7501   */\n              add\n                /* \"#utility.yul\":7477:7524   */\n              mstore\n                /* \"#utility.yul\":7541:7672   */\n              tag_248\n                /* \"#utility.yul\":7667:7671   */\n              dup2\n                /* \"#utility.yul\":7541:7672   */\n              tag_198\n              jump\t// in\n            tag_248:\n                /* \"#utility.yul\":7533:7672   */\n              swap1\n              pop\n                /* \"#utility.yul\":7431:7679   */\n              swap2\n              swap1\n              pop\n              jump\t// out\n                /* \"#utility.yul\":7685:8104   */\n            tag_89:\n                /* \"#utility.yul\":7851:7855   */\n              0x00\n                /* \"#utility.yul\":7889:7891   */\n              0x20\n                /* \"#utility.yul\":7878:7887   */\n              dup3\n                /* \"#utility.yul\":7874:7892   */\n              add\n                /* \"#utility.yul\":7866:7892   */\n              swap1\n              pop\n                /* \"#utility.yul\":7938:7947   */\n              dup2\n                /* \"#utility.yul\":7932:7936   */\n              dup2\n                /* \"#utility.yul\":7928:7948   */\n              sub\n                /* \"#utility.yul\":7924:7925   */\n              0x00\n                /* \"#utility.yul\":7913:7922   */\n              dup4\n                /* \"#utility.yul\":7909:7926   */\n              add\n                /* \"#utility.yul\":7902:7949   */\n              mstore\n                /* \"#utility.yul\":7966:8097   */\n              tag_250\n                /* \"#utility.yul\":8092:8096   */\n              dup2\n                /* \"#utility.yul\":7966:8097   */\n              tag_203\n              jump\t// in\n            tag_250:\n                /* \"#utility.yul\":7958:8097   */\n              swap1\n              pop\n                /* \"#utility.yul\":7856:8104   */\n              swap2\n              swap1\n              pop\n              jump\t// out\n                /* \"#utility.yul\":8110:8529   */\n            tag_113:\n                /* \"#utility.yul\":8276:8280   */\n              0x00\n                /* \"#utility.yul\":8314:8316   */\n              0x20\n                /* \"#utility.yul\":8303:8312   */\n              dup3\n                /* \"#utility.yul\":8299:8317   */\n              add\n                /* \"#utility.yul\":8291:8317   */\n              swap1\n              pop\n                /* \"#utility.yul\":8363:8372   */\n              dup2\n                /* \"#utility.yul\":8357:8361   */\n              dup2\n                /* \"#utility.yul\":8353:8373   */\n              sub\n                /* \"#utility.yul\":8349:8350   */\n              0x00\n                /* \"#utility.yul\":8338:8347   */\n              dup4\n                /* \"#utility.yul\":8334:8351   */\n              add\n                /* \"#utility.yul\":8327:8374   */\n              mstore\n                /* \"#utility.yul\":8391:8522   */\n              tag_252\n                /* \"#utility.yul\":8517:8521   */\n              dup2\n                /* \"#utility.yul\":8391:8522   */\n              tag_208\n              jump\t// in\n            tag_252:\n                /* \"#utility.yul\":8383:8522   */\n              swap1\n              pop\n                /* \"#utility.yul\":8281:8529   */\n              swap2\n              swap1\n              pop\n              jump\t// out\n                /* \"#utility.yul\":8535:8954   */\n            tag_84:\n                /* \"#utility.yul\":8701:8705   */\n              0x00\n                /* \"#utility.yul\":8739:8741   */\n              0x20\n                /* \"#utility.yul\":8728:8737   */\n              dup3\n                /* \"#utility.yul\":8724:8742   */\n              add\n                /* \"#utility.yul\":8716:8742   */\n              swap1\n              pop\n                /* \"#utility.yul\":8788:8797   */\n              dup2\n                /* \"#utility.yul\":8782:8786   */\n              dup2\n                /* \"#utility.yul\":8778:8798   */\n              sub\n                /* \"#utility.yul\":8774:8775   */\n              0x00\n                /* \"#utility.yul\":8763:8772   */\n              dup4\n                /* \"#utility.yul\":8759:8776   */\n              add\n                /* \"#utility.yul\":8752:8799   */\n              mstore\n                /* \"#utility.yul\":8816:8947   */\n              tag_254\n                /* \"#utility.yul\":8942:8946   */\n              dup2\n                /* \"#utility.yul\":8816:8947   */\n              tag_213\n              jump\t// in\n            tag_254:\n                /* \"#utility.yul\":8808:8947   */\n              swap1\n              pop\n                /* \"#utility.yul\":8706:8954   */\n              swap2\n              swap1\n              pop\n              jump\t// out\n                /* \"#utility.yul\":8960:9379   */\n            tag_80:\n                /* \"#utility.yul\":9126:9130   */\n              0x00\n                /* \"#utility.yul\":9164:9166   */\n              0x20\n                /* \"#utility.yul\":9153:9162   */\n              dup3\n                /* \"#utility.yul\":9149:9167   */\n              add\n                /* \"#utility.yul\":9141:9167   */\n              swap1\n              pop\n                /* \"#utility.yul\":9213:9222   */\n              dup2\n                /* \"#utility.yul\":9207:9211   */\n              dup2\n                /* \"#utility.yul\":9203:9223   */\n              sub\n                /* \"#utility.yul\":9199:9200   */\n              0x00\n                /* \"#utility.yul\":9188:9197   */\n              dup4\n                /* \"#utility.yul\":9184:9201   */\n              add\n                /* \"#utility.yul\":9177:9224   */\n              mstore\n                /* \"#utility.yul\":9241:9372   */\n              tag_256\n                /* \"#utility.yul\":9367:9371   */\n              dup2\n                /* \"#utility.yul\":9241:9372   */\n              tag_218\n              jump\t// in\n            tag_256:\n                /* \"#utility.yul\":9233:9372   */\n              swap1\n              pop\n                /* \"#utility.yul\":9131:9379   */\n              swap2\n              swap1\n              pop\n              jump\t// out\n                /* \"#utility.yul\":9385:9804   */\n            tag_119:\n                /* \"#utility.yul\":9551:9555   */\n              0x00\n                /* \"#utility.yul\":9589:9591   */\n              0x20\n                /* \"#utility.yul\":9578:9587   */\n              dup3\n                /* \"#utility.yul\":9574:9592   */\n              add\n                /* \"#utility.yul\":9566:9592   */\n              swap1\n              pop\n                /* \"#utility.yul\":9638:9647   */\n              dup2\n                /* \"#utility.yul\":9632:9636   */\n              dup2\n                /* \"#utility.yul\":9628:9648   */\n              sub\n                /* \"#utility.yul\":9624:9625   */\n              0x00\n                /* \"#utility.yul\":9613:9622   */\n              dup4\n                /* \"#utility.yul\":9609:9626   */\n              add\n                /* \"#utility.yul\":9602:9649   */\n              mstore\n                /* \"#utility.yul\":9666:9797   */\n              tag_258\n                /* \"#utility.yul\":9792:9796   */\n              dup2\n                /* \"#utility.yul\":9666:9797   */\n              tag_223\n              jump\t// in\n            tag_258:\n                /* \"#utility.yul\":9658:9797   */\n              swap1\n              pop\n                /* \"#utility.yul\":9556:9804   */\n              swap2\n              swap1\n              pop\n              jump\t// out\n                /* \"#utility.yul\":9810:10229   */\n            tag_19:\n                /* \"#utility.yul\":9976:9980   */\n              0x00\n                /* \"#utility.yul\":10014:10016   */\n              0x20\n                /* \"#utility.yul\":10003:10012   */\n              dup3\n                /* \"#utility.yul\":9999:10017   */\n              add\n                /* \"#utility.yul\":9991:10017   */\n              swap1\n              pop\n                /* \"#utility.yul\":10063:10072   */\n              dup2\n                /* \"#utility.yul\":10057:10061   */\n              dup2\n                /* \"#utility.yul\":10053:10073   */\n              sub\n                /* \"#utility.yul\":10049:10050   */\n              0x00\n                /* \"#utility.yul\":10038:10047   */\n              dup4\n                /* \"#utility.yul\":10034:10051   */\n              add\n                /* \"#utility.yul\":10027:10074   */\n              mstore\n                /* \"#utility.yul\":10091:10222   */\n              tag_260\n                /* \"#utility.yul\":10217:10221   */\n              dup2\n                /* \"#utility.yul\":10091:10222   */\n              tag_228\n              jump\t// in\n            tag_260:\n                /* \"#utility.yul\":10083:10222   */\n              swap1\n              pop\n                /* \"#utility.yul\":9981:10229   */\n              swap2\n              swap1\n              pop\n              jump\t// out\n                /* \"#utility.yul\":10235:10457   */\n            tag_55:\n                /* \"#utility.yul\":10328:10332   */\n              0x00\n                /* \"#utility.yul\":10366:10368   */\n              0x20\n                /* \"#utility.yul\":10355:10364   */\n              dup3\n                /* \"#utility.yul\":10351:10369   */\n              add\n                /* \"#utility.yul\":10343:10369   */\n              swap1\n              pop\n                /* \"#utility.yul\":10379:10450   */\n              tag_262\n                /* \"#utility.yul\":10447:10448   */\n              0x00\n                /* \"#utility.yul\":10436:10445   */\n              dup4\n                /* \"#utility.yul\":10432:10449   */\n              add\n                /* \"#utility.yul\":10423:10429   */\n              dup5\n                /* \"#utility.yul\":10379:10450   */\n              tag_233\n              jump\t// in\n            tag_262:\n                /* \"#utility.yul\":10333:10457   */\n              swap3\n              swap2\n              pop\n              pop\n              jump\t// out\n                /* \"#utility.yul\":10463:11127   */\n            tag_39:\n                /* \"#utility.yul\":10668:10672   */\n              0x00\n                /* \"#utility.yul\":10706:10709   */\n              0xa0\n                /* \"#utility.yul\":10695:10704   */\n              dup3\n                /* \"#utility.yul\":10691:10710   */\n              add\n                /* \"#utility.yul\":10683:10710   */\n              swap1\n              pop\n                /* \"#utility.yul\":10720:10791   */\n              tag_264\n                /* \"#utility.yul\":10788:10789   */\n              0x00\n                /* \"#utility.yul\":10777:10786   */\n              dup4\n                /* \"#utility.yul\":10773:10790   */\n              add\n                /* \"#utility.yul\":10764:10770   */\n              dup9\n                /* \"#utility.yul\":10720:10791   */\n              tag_233\n              jump\t// in\n            tag_264:\n                /* \"#utility.yul\":10801:10873   */\n              tag_265\n                /* \"#utility.yul\":10869:10871   */\n              0x20\n                /* \"#utility.yul\":10858:10867   */\n              dup4\n                /* \"#utility.yul\":10854:10872   */\n              add\n                /* \"#utility.yul\":10845:10851   */\n              dup8\n                /* \"#utility.yul\":10801:10873   */\n              tag_233\n              jump\t// in\n            tag_265:\n                /* \"#utility.yul\":10883:10955   */\n              tag_266\n                /* \"#utility.yul\":10951:10953   */\n              0x40\n                /* \"#utility.yul\":10940:10949   */\n              dup4\n                /* \"#utility.yul\":10936:10954   */\n              add\n                /* \"#utility.yul\":10927:10933   */\n              dup7\n                /* \"#utility.yul\":10883:10955   */\n              tag_233\n              jump\t// in\n            tag_266:\n                /* \"#utility.yul\":10965:11037   */\n              tag_267\n                /* \"#utility.yul\":11033:11035   */\n              0x60\n                /* \"#utility.yul\":11022:11031   */\n              dup4\n                /* \"#utility.yul\":11018:11036   */\n              add\n                /* \"#utility.yul\":11009:11015   */\n              dup6\n                /* \"#utility.yul\":10965:11037   */\n              tag_233\n              jump\t// in\n            tag_267:\n                /* \"#utility.yul\":11047:11120   */\n              tag_268\n                /* \"#utility.yul\":11115:11118   */\n              0x80\n                /* \"#utility.yul\":11104:11113   */\n              dup4\n                /* \"#utility.yul\":11100:11119   */\n              add\n                /* \"#utility.yul\":11091:11097   */\n              dup5\n                /* \"#utility.yul\":11047:11120   */\n              tag_180\n              jump\t// in\n            tag_268:\n                /* \"#utility.yul\":10673:11127   */\n              swap7\n              swap6\n              pop\n              pop\n              pop\n              pop\n              pop\n              pop\n              jump\t// out\n                /* \"#utility.yul\":11133:11262   */\n            tag_138:\n                /* \"#utility.yul\":11167:11173   */\n              0x00\n                /* \"#utility.yul\":11194:11214   */\n              tag_270\n              tag_271\n              jump\t// in\n            tag_270:\n                /* \"#utility.yul\":11184:11214   */\n              swap1\n              pop\n                /* \"#utility.yul\":11223:11256   */\n              tag_272\n                /* \"#utility.yul\":11251:11255   */\n              dup3\n                /* \"#utility.yul\":11243:11249   */\n              dup3\n                /* \"#utility.yul\":11223:11256   */\n              tag_273\n              jump\t// in\n            tag_272:\n                /* \"#utility.yul\":11174:11262   */\n              swap2\n              swap1\n              pop\n              jump\t// out\n                /* \"#utility.yul\":11268:11343   */\n            tag_271:\n                /* \"#utility.yul\":11301:11307   */\n              0x00\n                /* \"#utility.yul\":11334:11336   */\n              0x40\n                /* \"#utility.yul\":11328:11337   */\n              mload\n                /* \"#utility.yul\":11318:11337   */\n              swap1\n              pop\n                /* \"#utility.yul\":11308:11343   */\n              swap1\n              jump\t// out\n                /* \"#utility.yul\":11349:11657   */\n            tag_137:\n                /* \"#utility.yul\":11411:11415   */\n              0x00\n                /* \"#utility.yul\":11501:11519   */\n              0xffffffffffffffff\n                /* \"#utility.yul\":11493:11499   */\n              dup3\n                /* \"#utility.yul\":11490:11520   */\n              gt\n                /* \"#utility.yul\":11487:11489   */\n              iszero\n              tag_276\n              jumpi\n                /* \"#utility.yul\":11523:11541   */\n              tag_277\n              tag_278\n              jump\t// in\n            tag_277:\n                /* \"#utility.yul\":11487:11489   */\n            tag_276:\n                /* \"#utility.yul\":11561:11590   */\n              tag_279\n                /* \"#utility.yul\":11583:11589   */\n              dup3\n                /* \"#utility.yul\":11561:11590   */\n              tag_197\n              jump\t// in\n            tag_279:\n                /* \"#utility.yul\":11553:11590   */\n              swap1\n              pop\n                /* \"#utility.yul\":11645:11649   */\n              0x20\n                /* \"#utility.yul\":11639:11643   */\n              dup2\n                /* \"#utility.yul\":11635:11650   */\n              add\n                /* \"#utility.yul\":11627:11650   */\n              swap1\n              pop\n                /* \"#utility.yul\":11416:11657   */\n              swap2\n              swap1\n              pop\n              jump\t// out\n                /* \"#utility.yul\":11663:11762   */\n            tag_191:\n                /* \"#utility.yul\":11715:11721   */\n              0x00\n                /* \"#utility.yul\":11749:11754   */\n              dup2\n                /* \"#utility.yul\":11743:11755   */\n              mload\n                /* \"#utility.yul\":11733:11755   */\n              swap1\n              pop\n                /* \"#utility.yul\":11722:11762   */\n              swap2\n              swap1\n              pop\n              jump\t// out\n                /* \"#utility.yul\":11768:11937   */\n            tag_193:\n                /* \"#utility.yul\":11852:11863   */\n              0x00\n                /* \"#utility.yul\":11886:11892   */\n              dup3\n                /* \"#utility.yul\":11881:11884   */\n              dup3\n                /* \"#utility.yul\":11874:11893   */\n              mstore\n                /* \"#utility.yul\":11926:11930   */\n              0x20\n                /* \"#utility.yul\":11921:11924   */\n              dup3\n                /* \"#utility.yul\":11917:11931   */\n              add\n                /* \"#utility.yul\":11902:11931   */\n              swap1\n              pop\n                /* \"#utility.yul\":11864:11937   */\n              swap3\n              swap2\n              pop\n              pop\n              jump\t// out\n                /* \"#utility.yul\":11943:12128   */\n            tag_86:\n                /* \"#utility.yul\":11983:11984   */\n              0x00\n                /* \"#utility.yul\":12000:12020   */\n              tag_283\n                /* \"#utility.yul\":12018:12019   */\n              dup3\n                /* \"#utility.yul\":12000:12020   */\n              tag_236\n              jump\t// in\n            tag_283:\n                /* \"#utility.yul\":11995:12020   */\n              swap2\n              pop\n                /* \"#utility.yul\":12034:12054   */\n              tag_284\n                /* \"#utility.yul\":12052:12053   */\n              dup4\n                /* \"#utility.yul\":12034:12054   */\n              tag_236\n              jump\t// in\n            tag_284:\n                /* \"#utility.yul\":12029:12054   */\n              swap3\n              pop\n                /* \"#utility.yul\":12073:12074   */\n              dup3\n                /* \"#utility.yul\":12063:12065   */\n              tag_285\n              jumpi\n                /* \"#utility.yul\":12078:12096   */\n              tag_286\n              tag_287\n              jump\t// in\n            tag_286:\n                /* \"#utility.yul\":12063:12065   */\n            tag_285:\n                /* \"#utility.yul\":12120:12121   */\n              dup3\n                /* \"#utility.yul\":12117:12118   */\n              dup3\n                /* \"#utility.yul\":12113:12122   */\n              div\n                /* \"#utility.yul\":12108:12122   */\n              swap1\n              pop\n                /* \"#utility.yul\":11985:12128   */\n              swap3\n              swap2\n              pop\n              pop\n              jump\t// out\n                /* \"#utility.yul\":12134:12230   */\n            tag_183:\n                /* \"#utility.yul\":12171:12178   */\n              0x00\n                /* \"#utility.yul\":12200:12224   */\n              tag_289\n                /* \"#utility.yul\":12218:12223   */\n              dup3\n                /* \"#utility.yul\":12200:12224   */\n              tag_290\n              jump\t// in\n            tag_289:\n                /* \"#utility.yul\":12189:12224   */\n              swap1\n              pop\n                /* \"#utility.yul\":12179:12230   */\n              swap2\n              swap1\n              pop\n              jump\t// out\n                /* \"#utility.yul\":12236:12340   */\n            tag_179:\n                /* \"#utility.yul\":12281:12288   */\n              0x00\n                /* \"#utility.yul\":12310:12334   */\n              tag_292\n                /* \"#utility.yul\":12328:12333   */\n              dup3\n                /* \"#utility.yul\":12310:12334   */\n              tag_290\n              jump\t// in\n            tag_292:\n                /* \"#utility.yul\":12299:12334   */\n              swap1\n              pop\n                /* \"#utility.yul\":12289:12340   */\n              swap2\n              swap1\n              pop\n              jump\t// out\n                /* \"#utility.yul\":12346:12436   */\n            tag_187:\n                /* \"#utility.yul\":12380:12387   */\n              0x00\n                /* \"#utility.yul\":12423:12428   */\n              dup2\n                /* \"#utility.yul\":12416:12429   */\n              iszero\n                /* \"#utility.yul\":12409:12430   */\n              iszero\n                /* \"#utility.yul\":12398:12430   */\n              swap1\n              pop\n                /* \"#utility.yul\":12388:12436   */\n              swap2\n              swap1\n              pop\n              jump\t// out\n                /* \"#utility.yul\":12442:12568   */\n            tag_290:\n                /* \"#utility.yul\":12479:12486   */\n              0x00\n                /* \"#utility.yul\":12519:12561   */\n              0xffffffffffffffffffffffffffffffffffffffff\n                /* \"#utility.yul\":12512:12517   */\n              dup3\n                /* \"#utility.yul\":12508:12562   */\n              and\n                /* \"#utility.yul\":12497:12562   */\n              swap1\n              pop\n                /* \"#utility.yul\":12487:12568   */\n              swap2\n              swap1\n              pop\n              jump\t// out\n                /* \"#utility.yul\":12574:12651   */\n            tag_236:\n                /* \"#utility.yul\":12611:12618   */\n              0x00\n                /* \"#utility.yul\":12640:12645   */\n              dup2\n                /* \"#utility.yul\":12629:12645   */\n              swap1\n              pop\n                /* \"#utility.yul\":12619:12651   */\n              swap2\n              swap1\n              pop\n              jump\t// out\n                /* \"#utility.yul\":12657:12811   */\n            tag_143:\n                /* \"#utility.yul\":12741:12747   */\n              dup3\n                /* \"#utility.yul\":12736:12739   */\n              dup2\n                /* \"#utility.yul\":12731:12734   */\n              dup4\n                /* \"#utility.yul\":12718:12748   */\n              calldatacopy\n                /* \"#utility.yul\":12803:12804   */\n              0x00\n                /* \"#utility.yul\":12794:12800   */\n              dup4\n                /* \"#utility.yul\":12789:12792   */\n              dup4\n                /* \"#utility.yul\":12785:12801   */\n              add\n                /* \"#utility.yul\":12778:12805   */\n              mstore\n                /* \"#utility.yul\":12708:12811   */\n              pop\n              pop\n              pop\n              jump\t// out\n                /* \"#utility.yul\":12817:13124   */\n            tag_195:\n                /* \"#utility.yul\":12885:12886   */\n              0x00\n                /* \"#utility.yul\":12895:13008   */\n            tag_298:\n                /* \"#utility.yul\":12909:12915   */\n              dup4\n                /* \"#utility.yul\":12906:12907   */\n              dup2\n                /* \"#utility.yul\":12903:12916   */\n              lt\n                /* \"#utility.yul\":12895:13008   */\n              iszero\n              tag_300\n              jumpi\n                /* \"#utility.yul\":12994:12995   */\n              dup1\n                /* \"#utility.yul\":12989:12992   */\n              dup3\n                /* \"#utility.yul\":12985:12996   */\n              add\n                /* \"#utility.yul\":12979:12997   */\n              mload\n                /* \"#utility.yul\":12975:12976   */\n              dup2\n                /* \"#utility.yul\":12970:12973   */\n              dup5\n                /* \"#utility.yul\":12966:12977   */\n              add\n                /* \"#utility.yul\":12959:12998   */\n              mstore\n                /* \"#utility.yul\":12931:12933   */\n              0x20\n                /* \"#utility.yul\":12928:12929   */\n              dup2\n                /* \"#utility.yul\":12924:12934   */\n              add\n                /* \"#utility.yul\":12919:12934   */\n              swap1\n              pop\n                /* \"#utility.yul\":12895:13008   */\n              jump(tag_298)\n            tag_300:\n                /* \"#utility.yul\":13026:13032   */\n              dup4\n                /* \"#utility.yul\":13023:13024   */\n              dup2\n                /* \"#utility.yul\":13020:13033   */\n              gt\n                /* \"#utility.yul\":13017:13019   */\n              iszero\n              tag_301\n              jumpi\n                /* \"#utility.yul\":13106:13107   */\n              0x00\n                /* \"#utility.yul\":13097:13103   */\n              dup5\n                /* \"#utility.yul\":13092:13095   */\n              dup5\n                /* \"#utility.yul\":13088:13104   */\n              add\n                /* \"#utility.yul\":13081:13108   */\n              mstore\n                /* \"#utility.yul\":13017:13019   */\n            tag_301:\n                /* \"#utility.yul\":12866:13124   */\n              pop\n              pop\n              pop\n              pop\n              jump\t// out\n                /* \"#utility.yul\":13130:13450   */\n            tag_98:\n                /* \"#utility.yul\":13174:13180   */\n              0x00\n                /* \"#utility.yul\":13211:13212   */\n              0x02\n                /* \"#utility.yul\":13205:13209   */\n              dup3\n                /* \"#utility.yul\":13201:13213   */\n              div\n                /* \"#utility.yul\":13191:13213   */\n              swap1\n              pop\n                /* \"#utility.yul\":13258:13259   */\n              0x01\n                /* \"#utility.yul\":13252:13256   */\n              dup3\n                /* \"#utility.yul\":13248:13260   */\n              and\n                /* \"#utility.yul\":13279:13297   */\n              dup1\n                /* \"#utility.yul\":13269:13271   */\n              tag_303\n              jumpi\n                /* \"#utility.yul\":13335:13339   */\n              0x7f\n                /* \"#utility.yul\":13327:13333   */\n              dup3\n                /* \"#utility.yul\":13323:13340   */\n              and\n                /* \"#utility.yul\":13313:13340   */\n              swap2\n              pop\n                /* \"#utility.yul\":13269:13271   */\n            tag_303:\n                /* \"#utility.yul\":13397:13399   */\n              0x20\n                /* \"#utility.yul\":13389:13395   */\n              dup3\n                /* \"#utility.yul\":13386:13400   */\n              lt\n                /* \"#utility.yul\":13366:13384   */\n              dup2\n                /* \"#utility.yul\":13363:13401   */\n              eq\n                /* \"#utility.yul\":13360:13362   */\n              iszero\n              tag_304\n              jumpi\n                /* \"#utility.yul\":13416:13434   */\n              tag_305\n              tag_306\n              jump\t// in\n            tag_305:\n                /* \"#utility.yul\":13360:13362   */\n            tag_304:\n                /* \"#utility.yul\":13181:13450   */\n              pop\n              swap2\n              swap1\n              pop\n              jump\t// out\n                /* \"#utility.yul\":13456:13737   */\n            tag_273:\n                /* \"#utility.yul\":13539:13566   */\n              tag_308\n                /* \"#utility.yul\":13561:13565   */\n              dup3\n                /* \"#utility.yul\":13539:13566   */\n              tag_197\n              jump\t// in\n            tag_308:\n                /* \"#utility.yul\":13531:13537   */\n              dup2\n                /* \"#utility.yul\":13527:13567   */\n              add\n                /* \"#utility.yul\":13669:13675   */\n              dup2\n                /* \"#utility.yul\":13657:13667   */\n              dup2\n                /* \"#utility.yul\":13654:13676   */\n              lt\n                /* \"#utility.yul\":13633:13651   */\n              0xffffffffffffffff\n                /* \"#utility.yul\":13621:13631   */\n              dup3\n                /* \"#utility.yul\":13618:13652   */\n              gt\n                /* \"#utility.yul\":13615:13677   */\n              or\n                /* \"#utility.yul\":13612:13614   */\n              iszero\n              tag_309\n              jumpi\n                /* \"#utility.yul\":13680:13698   */\n              tag_310\n              tag_278\n              jump\t// in\n            tag_310:\n                /* \"#utility.yul\":13612:13614   */\n            tag_309:\n                /* \"#utility.yul\":13720:13730   */\n              dup1\n                /* \"#utility.yul\":13716:13718   */\n              0x40\n                /* \"#utility.yul\":13709:13731   */\n              mstore\n                /* \"#utility.yul\":13499:13737   */\n              pop\n              pop\n              pop\n              jump\t// out\n                /* \"#utility.yul\":13743:13976   */\n            tag_22:\n                /* \"#utility.yul\":13782:13785   */\n              0x00\n                /* \"#utility.yul\":13805:13829   */\n              tag_312\n                /* \"#utility.yul\":13823:13828   */\n              dup3\n                /* \"#utility.yul\":13805:13829   */\n              tag_236\n              jump\t// in\n            tag_312:\n                /* \"#utility.yul\":13796:13829   */\n              swap2\n              pop\n                /* \"#utility.yul\":13851:13917   */\n              0xffffffffffffffffffffffffffffffffffffffffffffffffffffffffffffffff\n                /* \"#utility.yul\":13844:13849   */\n              dup3\n                /* \"#utility.yul\":13841:13918   */\n              eq\n                /* \"#utility.yul\":13838:13840   */\n              iszero\n              tag_313\n              jumpi\n                /* \"#utility.yul\":13921:13939   */\n              tag_314\n              tag_315\n              jump\t// in\n            tag_314:\n                /* \"#utility.yul\":13838:13840   */\n            tag_313:\n                /* \"#utility.yul\":13968:13969   */\n              0x01\n                /* \"#utility.yul\":13961:13966   */\n              dup3\n                /* \"#utility.yul\":13957:13970   */\n              add\n                /* \"#utility.yul\":13950:13970   */\n              swap1\n              pop\n                /* \"#utility.yul\":13786:13976   */\n              swap2\n              swap1\n              pop\n              jump\t// out\n                /* \"#utility.yul\":13982:14162   */\n            tag_315:\n                /* \"#utility.yul\":14030:14107   */\n              0x4e487b7100000000000000000000000000000000000000000000000000000000\n                /* \"#utility.yul\":14027:14028   */\n              0x00\n                /* \"#utility.yul\":14020:14108   */\n              mstore\n                /* \"#utility.yul\":14127:14131   */\n              0x11\n                /* \"#utility.yul\":14124:14125   */\n              0x04\n                /* \"#utility.yul\":14117:14132   */\n              mstore\n                /* \"#utility.yul\":14151:14155   */\n              0x24\n                /* \"#utility.yul\":14148:14149   */\n              0x00\n                /* \"#utility.yul\":14141:14156   */\n              revert\n                /* \"#utility.yul\":14168:14348   */\n            tag_287:\n                /* \"#utility.yul\":14216:14293   */\n              0x4e487b7100000000000000000000000000000000000000000000000000000000\n                /* \"#utility.yul\":14213:14214   */\n              0x00\n                /* \"#utility.yul\":14206:14294   */\n              mstore\n                /* \"#utility.yul\":14313:14317   */\n              0x12\n                /* \"#utility.yul\":14310:14311   */\n              0x04\n                /* \"#utility.yul\":14303:14318   */\n              mstore\n                /* \"#utility.yul\":14337:14341   */\n              0x24\n                /* \"#utility.yul\":14334:14335   */\n              0x00\n                /* \"#utility.yul\":14327:14342   */\n              revert\n                /* \"#utility.yul\":14354:14534   */\n            tag_306:\n                /* \"#utility.yul\":14402:14479   */\n              0x4e487b7100000000000000000000000000000000000000000000000000000000\n                /* \"#utility.yul\":14399:14400   */\n              0x00\n                /* \"#utility.yul\":14392:14480   */\n              mstore\n                /* \"#utility.yul\":14499:14503   */\n              0x22\n                /* \"#utility.yul\":14496:14497   */\n              0x04\n                /* \"#utility.yul\":14489:14504   */\n              mstore\n                /* \"#utility.yul\":14523:14527   */\n              0x24\n                /* \"#utility.yul\":14520:14521   */\n              0x00\n                /* \"#utility.yul\":14513:14528   */\n              revert\n                /* \"#utility.yul\":14540:14720   */\n            tag_278:\n                /* \"#utility.yul\":14588:14665   */\n              0x4e487b7100000000000000000000000000000000000000000000000000000000\n                /* \"#utility.yul\":14585:14586   */\n              0x00\n                /* \"#utility.yul\":14578:14666   */\n              mstore\n                /* \"#utility.yul\":14685:14689   */\n              0x41\n                /* \"#utility.yul\":14682:14683   */\n              0x04\n                /* \"#utility.yul\":14675:14690   */\n              mstore\n                /* \"#utility.yul\":14709:14713   */\n              0x24\n                /* \"#utility.yul\":14706:14707   */\n              0x00\n                /* \"#utility.yul\":14699:14714   */\n              revert\n                /* \"#utility.yul\":14726:14843   */\n            tag_152:\n                /* \"#utility.yul\":14835:14836   */\n              0x00\n                /* \"#utility.yul\":14832:14833   */\n              dup1\n                /* \"#utility.yul\":14825:14837   */\n              revert\n                /* \"#utility.yul\":14849:14966   */\n            tag_141:\n                /* \"#utility.yul\":14958:14959   */\n              0x00\n                /* \"#utility.yul\":14955:14956   */\n              dup1\n                /* \"#utility.yul\":14948:14960   */\n              revert\n                /* \"#utility.yul\":14972:15089   */\n            tag_168:\n                /* \"#utility.yul\":15081:15082   */\n              0x00\n                /* \"#utility.yul\":15078:15079   */\n              dup1\n                /* \"#utility.yul\":15071:15083   */\n              revert\n                /* \"#utility.yul\":15095:15212   */\n            tag_161:\n                /* \"#utility.yul\":15204:15205   */\n              0x00\n                /* \"#utility.yul\":15201:15202   */\n              dup1\n                /* \"#utility.yul\":15194:15206   */\n              revert\n                /* \"#utility.yul\":15218:15320   */\n            tag_197:\n                /* \"#utility.yul\":15259:15265   */\n              0x00\n                /* \"#utility.yul\":15310:15312   */\n              0x1f\n                /* \"#utility.yul\":15306:15313   */\n              not\n                /* \"#utility.yul\":15301:15303   */\n              0x1f\n                /* \"#utility.yul\":15294:15299   */\n              dup4\n                /* \"#utility.yul\":15290:15304   */\n              add\n                /* \"#utility.yul\":15286:15314   */\n              and\n                /* \"#utility.yul\":15276:15314   */\n              swap1\n              pop\n                /* \"#utility.yul\":15266:15320   */\n              swap2\n              swap1\n              pop\n              jump\t// out\n                /* \"#utility.yul\":15326:15551   */\n            tag_202:\n                /* \"#utility.yul\":15466:15500   */\n              0x7265717565737420697320616c7265616479206d61726b656420617320636f6d\n                /* \"#utility.yul\":15462:15463   */\n              0x00\n                /* \"#utility.yul\":15454:15460   */\n              dup3\n                /* \"#utility.yul\":15450:15464   */\n              add\n                /* \"#utility.yul\":15443:15501   */\n              mstore\n                /* \"#utility.yul\":15535:15543   */\n              0x706c657465640000000000000000000000000000000000000000000000000000\n                /* \"#utility.yul\":15530:15532   */\n              0x20\n                /* \"#utility.yul\":15522:15528   */\n              dup3\n                /* \"#utility.yul\":15518:15533   */\n              add\n                /* \"#utility.yul\":15511:15544   */\n              mstore\n                /* \"#utility.yul\":15432:15551   */\n              pop\n              jump\t// out\n                /* \"#utility.yul\":15557:15857   */\n            tag_207:\n                /* \"#utility.yul\":15697:15731   */\n              0x726571756573742063616e6e6f7420626520636f6d706c657465642c20617320\n                /* \"#utility.yul\":15693:15694   */\n              0x00\n                /* \"#utility.yul\":15685:15691   */\n              dup3\n                /* \"#utility.yul\":15681:15695   */\n              add\n                /* \"#utility.yul\":15674:15732   */\n              mstore\n                /* \"#utility.yul\":15766:15800   */\n              0x697420646f65736e2774206d656574207265717569726564206e756d62657220\n                /* \"#utility.yul\":15761:15763   */\n              0x20\n                /* \"#utility.yul\":15753:15759   */\n              dup3\n                /* \"#utility.yul\":15749:15764   */\n              add\n                /* \"#utility.yul\":15742:15801   */\n              mstore\n                /* \"#utility.yul\":15835:15849   */\n              0x6f6620617070726f76616c730000000000000000000000000000000000000000\n                /* \"#utility.yul\":15830:15832   */\n              0x40\n                /* \"#utility.yul\":15822:15828   */\n              dup3\n                /* \"#utility.yul\":15818:15833   */\n              add\n                /* \"#utility.yul\":15811:15850   */\n              mstore\n                /* \"#utility.yul\":15663:15857   */\n              pop\n              jump\t// out\n                /* \"#utility.yul\":15863:16084   */\n            tag_212:\n                /* \"#utility.yul\":16003:16037   */\n              0x796f7520617265206e6f7420616e20617574686f72697a656420617070726f76\n                /* \"#utility.yul\":15999:16000   */\n              0x00\n                /* \"#utility.yul\":15991:15997   */\n              dup3\n                /* \"#utility.yul\":15987:16001   */\n              add\n                /* \"#utility.yul\":15980:16038   */\n              mstore\n                /* \"#utility.yul\":16072:16076   */\n              0x6572000000000000000000000000000000000000000000000000000000000000\n                /* \"#utility.yul\":16067:16069   */\n              0x20\n                /* \"#utility.yul\":16059:16065   */\n              dup3\n                /* \"#utility.yul\":16055:16070   */\n              add\n                /* \"#utility.yul\":16048:16077   */\n              mstore\n                /* \"#utility.yul\":15969:16084   */\n              pop\n              jump\t// out\n                /* \"#utility.yul\":16090:16262   */\n            tag_217:\n                /* \"#utility.yul\":16230:16254   */\n              0x696e76616c69642072657175657374206e756d62657200000000000000000000\n                /* \"#utility.yul\":16226:16227   */\n              0x00\n                /* \"#utility.yul\":16218:16224   */\n              dup3\n                /* \"#utility.yul\":16214:16228   */\n              add\n                /* \"#utility.yul\":16207:16255   */\n              mstore\n                /* \"#utility.yul\":16196:16262   */\n              pop\n              jump\t// out\n                /* \"#utility.yul\":16268:16444   */\n            tag_222:\n                /* \"#utility.yul\":16408:16436   */\n              0x4f6e6c79206d616e6167657220697320617574686f72697a6564000000000000\n                /* \"#utility.yul\":16404:16405   */\n              0x00\n                /* \"#utility.yul\":16396:16402   */\n              dup3\n                /* \"#utility.yul\":16392:16406   */\n              add\n                /* \"#utility.yul\":16385:16437   */\n              mstore\n                /* \"#utility.yul\":16374:16444   */\n              pop\n              jump\t// out\n                /* \"#utility.yul\":16450:16675   */\n            tag_227:\n                /* \"#utility.yul\":16590:16624   */\n              0x796f75206861766520616c726561647920617070726f76656420746869732072\n                /* \"#utility.yul\":16586:16587   */\n              0x00\n                /* \"#utility.yul\":16578:16584   */\n              dup3\n                /* \"#utility.yul\":16574:16588   */\n              add\n                /* \"#utility.yul\":16567:16625   */\n              mstore\n                /* \"#utility.yul\":16659:16667   */\n              0x6571756573740000000000000000000000000000000000000000000000000000\n                /* \"#utility.yul\":16654:16656   */\n              0x20\n                /* \"#utility.yul\":16646:16652   */\n              dup3\n                /* \"#utility.yul\":16642:16657   */\n              add\n                /* \"#utility.yul\":16635:16668   */\n              mstore\n                /* \"#utility.yul\":16556:16675   */\n              pop\n              jump\t// out\n                /* \"#utility.yul\":16681:16931   */\n            tag_232:\n                /* \"#utility.yul\":16821:16855   */\n              0x636f6e747269627574696f6e2073656e64206e6565647320746f206d65657420\n                /* \"#utility.yul\":16817:16818   */\n              0x00\n                /* \"#utility.yul\":16809:16815   */\n              dup3\n                /* \"#utility.yul\":16805:16819   */\n              add\n                /* \"#utility.yul\":16798:16856   */\n              mstore\n                /* \"#utility.yul\":16890:16923   */\n              0x746865206d696e696d756d20636f6e747269627574696f6e20616d6f756e7400\n                /* \"#utility.yul\":16885:16887   */\n              0x20\n                /* \"#utility.yul\":16877:16883   */\n              dup3\n                /* \"#utility.yul\":16873:16888   */\n              add\n                /* \"#utility.yul\":16866:16924   */\n              mstore\n                /* \"#utility.yul\":16787:16931   */\n              pop\n              jump\t// out\n                /* \"#utility.yul\":16937:17059   */\n            tag_147:\n                /* \"#utility.yul\":17010:17034   */\n              tag_333\n                /* \"#utility.yul\":17028:17033   */\n              dup2\n                /* \"#utility.yul\":17010:17034   */\n              tag_183\n              jump\t// in\n            tag_333:\n                /* \"#utility.yul\":17003:17008   */\n              dup2\n                /* \"#utility.yul\":17000:17035   */\n              eq\n                /* \"#utility.yul\":16990:16992   */\n              tag_334\n              jumpi\n                /* \"#utility.yul\":17049:17050   */\n              0x00\n                /* \"#utility.yul\":17046:17047   */\n              dup1\n                /* \"#utility.yul\":17039:17051   */\n              revert\n                /* \"#utility.yul\":16990:16992   */\n            tag_334:\n                /* \"#utility.yul\":16980:17059   */\n              pop\n              jump\t// out\n                /* \"#utility.yul\":17065:17187   */\n            tag_157:\n                /* \"#utility.yul\":17138:17162   */\n              tag_336\n                /* \"#utility.yul\":17156:17161   */\n              dup2\n                /* \"#utility.yul\":17138:17162   */\n              tag_236\n              jump\t// in\n            tag_336:\n                /* \"#utility.yul\":17131:17136   */\n              dup2\n                /* \"#utility.yul\":17128:17163   */\n              eq\n                /* \"#utility.yul\":17118:17120   */\n              tag_337\n              jumpi\n                /* \"#utility.yul\":17177:17178   */\n              0x00\n                /* \"#utility.yul\":17174:17175   */\n              dup1\n                /* \"#utility.yul\":17167:17179   */\n              revert\n                /* \"#utility.yul\":17118:17120   */\n            tag_337:\n                /* \"#utility.yul\":17108:17187   */\n              pop\n              jump\t// out\n\n            auxdata: 0xa2646970667358221220aab950c19f6539238c2aca254a5bbebce0b4b87da4dff0a4f49a505ad3686d0164736f6c63430008060033\n        }\n    }\n\n    auxdata: 0xa264697066735822122023358f69c2459880e7fe0e4af6209cf5dd6386c79938aa0facca46b170fcfae964736f6c63430008060033\n}\n","bytecode":{"linkReferences":{},"object":"608060405234801561001057600080fd5b50611a62806100206000396000f3fe608060405234801561001057600080fd5b50600436106100365760003560e01c80634acb9d4f1461003b578063a3303a7514610059575b600080fd5b610043610075565b6040516100509190610296565b60405180910390f35b610073600480360381019061006e91906101c6565b610103565b005b606060008054806020026020016040519081016040528092919081815260200182805480156100f957602002820191906000526020600020905b8160009054906101000a900473ffffffffffffffffffffffffffffffffffffffff1673ffffffffffffffffffffffffffffffffffffffff16815260200190600101908083116100af575b5050505050905090565b60008133604051610113906101a4565b61011e9291906102b8565b604051809103906000f08015801561013a573d6000803e3d6000fd5b5090506000819080600181540180825580915050600190039060005260206000200160009091909190916101000a81548173ffffffffffffffffffffffffffffffffffffffff021916908373ffffffffffffffffffffffffffffffffffffffff1602179055505050565b6116ba8061037383390190565b6000813590506101c08161035b565b92915050565b6000602082840312156101dc576101db610356565b5b60006101ea848285016101b1565b91505092915050565b60006101ff838361020b565b60208301905092915050565b6102148161031a565b82525050565b6102238161031a565b82525050565b6000610234826102f1565b61023e8185610309565b9350610249836102e1565b8060005b8381101561027a57815161026188826101f3565b975061026c836102fc565b92505060018101905061024d565b5085935050505092915050565b6102908161034c565b82525050565b600060208201905081810360008301526102b08184610229565b905092915050565b60006040820190506102cd6000830185610287565b6102da602083018461021a565b9392505050565b6000819050602082019050919050565b600081519050919050565b6000602082019050919050565b600082825260208201905092915050565b60006103258261032c565b9050919050565b600073ffffffffffffffffffffffffffffffffffffffff82169050919050565b6000819050919050565b600080fd5b6103648161034c565b811461036f57600080fd5b5056fe60806040523480156200001157600080fd5b50604051620016ba380380620016ba8339818101604052810190620000379190620000b5565b80600260006101000a81548173ffffffffffffffffffffffffffffffffffffffff021916908373ffffffffffffffffffffffffffffffffffffffff16021790555081600381905550505062000173565b60008151905062000098816200013f565b92915050565b600081519050620000af8162000159565b92915050565b60008060408385031215620000cf57620000ce6200013a565b5b6000620000df858286016200009e565b9250506020620000f28582860162000087565b9150509250929050565b6000620001098262000110565b9050919050565b600073ffffffffffffffffffffffffffffffffffffffff82169050919050565b6000819050919050565b600080fd5b6200014a81620000fc565b81146200015657600080fd5b50565b620001648162000130565b81146200017057600080fd5b50565b61153780620001836000396000f3fe6080604052600436106100a05760003560e01c806382fde0931161006457806382fde093146102b45780638a9cfd55146102df578063937e09b114610308578063b6290e7614610333578063d7d1bbdb1461035e578063eb8bbd2814610387576101ae565b806303441006146101b35780630a144391146101dc5780634051ddac14610219578063481c6a751461024857806381d12c5814610273576101ae565b366101ae576003543410156100ea576040517f08c379a00000000000000000000000000000000000000000000000000000000081526004016100e190610f76565b60405180910390fd5b600560003373ffffffffffffffffffffffffffffffffffffffff1673ffffffffffffffffffffffffffffffffffffffff16815260200190815260200160002060009054906101000a900460ff166101ac576001600560003373ffffffffffffffffffffffffffffffffffffffff1673ffffffffffffffffffffffffffffffffffffffff16815260200190815260200160002060006101000a81548160ff021916908315150217905550600460008154809291906101a6906111a6565b91905055505b005b600080fd5b3480156101bf57600080fd5b506101da60048036038101906101d59190610c8f565b6103b2565b005b3480156101e857600080fd5b5061020360048036038101906101fe9190610bf3565b6105d4565b6040516102109190610e41565b60405180910390f35b34801561022557600080fd5b5061022e6105f4565b60405161023f959493929190610fb1565b60405180910390f35b34801561025457600080fd5b5061025d610641565b60405161026a9190610e26565b60405180910390f35b34801561027f57600080fd5b5061029a60048036038101906102959190610c8f565b610667565b6040516102ab959493929190610e5c565b60405180910390f35b3480156102c057600080fd5b506102c9610752565b6040516102d69190610f96565b60405180910390f35b3480156102eb57600080fd5b5061030660048036038101906103019190610c20565b610758565b005b34801561031457600080fd5b5061031d6108a6565b60405161032a9190610f96565b60405180910390f35b34801561033f57600080fd5b506103486108ac565b6040516103559190610f96565b60405180910390f35b34801561036a57600080fd5b5061038560048036038101906103809190610c8f565b6108b2565b005b34801561039357600080fd5b5061039c610aae565b6040516103a99190610f96565b60405180910390f35b600260009054906101000a900473ffffffffffffffffffffffffffffffffffffffff1673ffffffffffffffffffffffffffffffffffffffff163373ffffffffffffffffffffffffffffffffffffffff1614610442576040517f08c379a000000000000000000000000000000000000000000000000000000000815260040161043990610f36565b60405180910390fd5b600054811115610487576040517f08c379a000000000000000000000000000000000000000000000000000000000815260040161047e90610f16565b60405180910390fd5b600060016000838152602001908152602001600020905060026004546104ad9190611076565b8160030154116104f2576040517f08c379a00000000000000000000000000000000000000000000000000000000081526004016104e990610ed6565b60405180910390fd5b8060020160149054906101000a900460ff1615610544576040517f08c379a000000000000000000000000000000000000000000000000000000000815260040161053b90610eb6565b60405180910390fd5b8060020160009054906101000a900473ffffffffffffffffffffffffffffffffffffffff1673ffffffffffffffffffffffffffffffffffffffff166108fc82600101549081150290604051600060405180830381858888f193505050501580156105b2573d6000803e3d6000fd5b5060018160020160146101000a81548160ff0219169083151502179055505050565b60056020528060005260406000206000915054906101000a900460ff1681565b6000806000806000600354610607610aae565b600054600454600260009054906101000a900473ffffffffffffffffffffffffffffffffffffffff16945094509450945094509091929394565b600260009054906101000a900473ffffffffffffffffffffffffffffffffffffffff1681565b600160205280600052604060002060009150905080600001805461068a90611143565b80601f01602080910402602001604051908101604052809291908181526020018280546106b690611143565b80156107035780601f106106d857610100808354040283529160200191610703565b820191906000526020600020905b8154815290600101906020018083116106e657829003601f168201915b5050505050908060010154908060020160009054906101000a900473ffffffffffffffffffffffffffffffffffffffff16908060020160149054906101000a900460ff16908060030154905085565b60045481565b600260009054906101000a900473ffffffffffffffffffffffffffffffffffffffff1673ffffffffffffffffffffffffffffffffffffffff163373ffffffffffffffffffffffffffffffffffffffff16146107e8576040517f08c379a00000000000000000000000000000000000000000000000000000000081526004016107df90610f36565b60405180910390fd5b600060016000806000815480929190610800906111a6565b91905055815260200190815260200160002090508381600001908051906020019061082c929190610ab6565b50828160010181905550818160020160006101000a81548173ffffffffffffffffffffffffffffffffffffffff021916908373ffffffffffffffffffffffffffffffffffffffff16021790555060008160020160146101000a81548160ff0219169083151502179055506000816003018190555050505050565b60035481565b60005481565b600560003373ffffffffffffffffffffffffffffffffffffffff1673ffffffffffffffffffffffffffffffffffffffff16815260200190815260200160002060009054906101000a900460ff1661093e576040517f08c379a000000000000000000000000000000000000000000000000000000000815260040161093590610ef6565b60405180910390fd5b6000811015801561095157506000548111155b610990576040517f08c379a000000000000000000000000000000000000000000000000000000000815260040161098790610f16565b60405180910390fd5b60006001600083815260200190815260200160002090508060040160003373ffffffffffffffffffffffffffffffffffffffff1673ffffffffffffffffffffffffffffffffffffffff16815260200190815260200160002060009054906101000a900460ff1615610a36576040517f08c379a0000000000000000000000000000000000000000000000000000000008152600401610a2d90610f56565b60405180910390fd5b60018160040160003373ffffffffffffffffffffffffffffffffffffffff1673ffffffffffffffffffffffffffffffffffffffff16815260200190815260200160002060006101000a81548160ff021916908315150217905550806003016000815480929190610aa5906111a6565b91905055505050565b600047905090565b828054610ac290611143565b90600052602060002090601f016020900481019282610ae45760008555610b2b565b82601f10610afd57805160ff1916838001178555610b2b565b82800160010185558215610b2b579182015b82811115610b2a578251825591602001919060010190610b0f565b5b509050610b389190610b3c565b5090565b5b80821115610b55576000816000905550600101610b3d565b5090565b6000610b6c610b6784611029565b611004565b905082815260208101848484011115610b8857610b876112b0565b5b610b93848285611101565b509392505050565b600081359050610baa816114d3565b92915050565b600082601f830112610bc557610bc46112ab565b5b8135610bd5848260208601610b59565b91505092915050565b600081359050610bed816114ea565b92915050565b600060208284031215610c0957610c086112ba565b5b6000610c1784828501610b9b565b91505092915050565b600080600060608486031215610c3957610c386112ba565b5b600084013567ffffffffffffffff811115610c5757610c566112b5565b5b610c6386828701610bb0565b9350506020610c7486828701610bde565b9250506040610c8586828701610b9b565b9150509250925092565b600060208284031215610ca557610ca46112ba565b5b6000610cb384828501610bde565b91505092915050565b610cc5816110b9565b82525050565b610cd4816110a7565b82525050565b610ce3816110cb565b82525050565b6000610cf48261105a565b610cfe8185611065565b9350610d0e818560208601611110565b610d17816112bf565b840191505092915050565b6000610d2f602683611065565b9150610d3a826112d0565b604082019050919050565b6000610d52604c83611065565b9150610d5d8261131f565b606082019050919050565b6000610d75602283611065565b9150610d8082611394565b604082019050919050565b6000610d98601683611065565b9150610da3826113e3565b602082019050919050565b6000610dbb601a83611065565b9150610dc68261140c565b602082019050919050565b6000610dde602683611065565b9150610de982611435565b604082019050919050565b6000610e01603f83611065565b9150610e0c82611484565b604082019050919050565b610e20816110f7565b82525050565b6000602082019050610e3b6000830184610ccb565b92915050565b6000602082019050610e566000830184610cda565b92915050565b600060a0820190508181036000830152610e768188610ce9565b9050610e856020830187610e17565b610e926040830186610cbc565b610e9f6060830185610cda565b610eac6080830184610e17565b9695505050505050565b60006020820190508181036000830152610ecf81610d22565b9050919050565b60006020820190508181036000830152610eef81610d45565b9050919050565b60006020820190508181036000830152610f0f81610d68565b9050919050565b60006020820190508181036000830152610f2f81610d8b565b9050919050565b60006020820190508181036000830152610f4f81610dae565b9050919050565b60006020820190508181036000830152610f6f81610dd1565b9050919050565b60006020820190508181036000830152610f8f81610df4565b9050919050565b6000602082019050610fab6000830184610e17565b92915050565b600060a082019050610fc66000830188610e17565b610fd36020830187610e17565b610fe06040830186610e17565b610fed6060830185610e17565b610ffa6080830184610ccb565b9695505050505050565b600061100e61101f565b905061101a8282611175565b919050565b6000604051905090565b600067ffffffffffffffff8211156110445761104361127c565b5b61104d826112bf565b9050602081019050919050565b600081519050919050565b600082825260208201905092915050565b6000611081826110f7565b915061108c836110f7565b92508261109c5761109b61121e565b5b828204905092915050565b60006110b2826110d7565b9050919050565b60006110c4826110d7565b9050919050565b60008115159050919050565b600073ffffffffffffffffffffffffffffffffffffffff82169050919050565b6000819050919050565b82818337600083830152505050565b60005b8381101561112e578082015181840152602081019050611113565b8381111561113d576000848401525b50505050565b6000600282049050600182168061115b57607f821691505b6020821081141561116f5761116e61124d565b5b50919050565b61117e826112bf565b810181811067ffffffffffffffff8211171561119d5761119c61127c565b5b80604052505050565b60006111b1826110f7565b91507fffffffffffffffffffffffffffffffffffffffffffffffffffffffffffffffff8214156111e4576111e36111ef565b5b600182019050919050565b7f4e487b7100000000000000000000000000000000000000000000000000000000600052601160045260246000fd5b7f4e487b7100000000000000000000000000000000000000000000000000000000600052601260045260246000fd5b7f4e487b7100000000000000000000000000000000000000000000000000000000600052602260045260246000fd5b7f4e487b7100000000000000000000000000000000000000000000000000000000600052604160045260246000fd5b600080fd5b600080fd5b600080fd5b600080fd5b6000601f19601f8301169050919050565b7f7265717565737420697320616c7265616479206d61726b656420617320636f6d60008201527f706c657465640000000000000000000000000000000000000000000000000000602082015250565b7f726571756573742063616e6e6f7420626520636f6d706c657465642c2061732060008201527f697420646f65736e2774206d656574207265717569726564206e756d6265722060208201527f6f6620617070726f76616c730000000000000000000000000000000000000000604082015250565b7f796f7520617265206e6f7420616e20617574686f72697a656420617070726f7660008201527f6572000000000000000000000000000000000000000000000000000000000000602082015250565b7f696e76616c69642072657175657374206e756d62657200000000000000000000600082015250565b7f4f6e6c79206d616e6167657220697320617574686f72697a6564000000000000600082015250565b7f796f75206861766520616c726561647920617070726f7665642074686973207260008201527f6571756573740000000000000000000000000000000000000000000000000000602082015250565b7f636f6e747269627574696f6e2073656e64206e6565647320746f206d6565742060008201527f746865206d696e696d756d20636f6e747269627574696f6e20616d6f756e7400602082015250565b6114dc816110a7565b81146114e757600080fd5b50565b6114f3816110f7565b81146114fe57600080fd5b5056fea2646970667358221220aab950c19f6539238c2aca254a5bbebce0b4b87da4dff0a4f49a505ad3686d0164736f6c63430008060033a264697066735822122023358f69c2459880e7fe0e4af6209cf5dd6386c79938aa0facca46b170fcfae964736f6c63430008060033","opcodes":"PUSH1 0x80 PUSH1 0x40 MSTORE CALLVALUE DUP1 ISZERO PUSH2 0x10 JUMPI PUSH1 0x0 DUP1 REVERT JUMPDEST POP PUSH2 0x1A62 DUP1 PUSH2 0x20 PUSH1 0x0 CODECOPY PUSH1 0x0 RETURN INVALID PUSH1 0x80 PUSH1 0x40 MSTORE CALLVALUE DUP1 ISZERO PUSH2 0x10 JUMPI PUSH1 0x0 DUP1 REVERT JUMPDEST POP PUSH1 0x4 CALLDATASIZE LT PUSH2 0x36 JUMPI PUSH1 0x0 CALLDATALOAD PUSH1 0xE0 SHR DUP1 PUSH4 0x4ACB9D4F EQ PUSH2 0x3B JUMPI DUP1 PUSH4 0xA3303A75 EQ PUSH2 0x59 JUMPI JUMPDEST PUSH1 0x0 DUP1 REVERT JUMPDEST PUSH2 0x43 PUSH2 0x75 JUMP JUMPDEST PUSH1 0x40 MLOAD PUSH2 0x50 SWAP2 SWAP1 PUSH2 0x296 JUMP JUMPDEST PUSH1 0x40 MLOAD DUP1 SWAP2 SUB SWAP1 RETURN JUMPDEST PUSH2 0x73 PUSH1 0x4 DUP1 CALLDATASIZE SUB DUP2 ADD SWAP1 PUSH2 0x6E SWAP2 SWAP1 PUSH2 0x1C6 JUMP JUMPDEST PUSH2 0x103 JUMP JUMPDEST STOP JUMPDEST PUSH1 0x60 PUSH1 0x0 DUP1 SLOAD DUP1 PUSH1 0x20 MUL PUSH1 0x20 ADD PUSH1 0x40 MLOAD SWAP1 DUP2 ADD PUSH1 0x40 MSTORE DUP1 SWAP3 SWAP2 SWAP1 DUP2 DUP2 MSTORE PUSH1 0x20 ADD DUP3 DUP1 SLOAD DUP1 ISZERO PUSH2 0xF9 JUMPI PUSH1 0x20 MUL DUP3 ADD SWAP2 SWAP1 PUSH1 0x0 MSTORE PUSH1 0x20 PUSH1 0x0 KECCAK256 SWAP1 JUMPDEST DUP2 PUSH1 0x0 SWAP1 SLOAD SWAP1 PUSH2 0x100 EXP SWAP1 DIV PUSH20 0xFFFFFFFFFFFFFFFFFFFFFFFFFFFFFFFFFFFFFFFF AND PUSH20 0xFFFFFFFFFFFFFFFFFFFFFFFFFFFFFFFFFFFFFFFF AND DUP2 MSTORE PUSH1 0x20 ADD SWAP1 PUSH1 0x1 ADD SWAP1 DUP1 DUP4 GT PUSH2 0xAF JUMPI JUMPDEST POP POP POP POP POP SWAP1 POP SWAP1 JUMP JUMPDEST PUSH1 0x0 DUP2 CALLER PUSH1 0x40 MLOAD PUSH2 0x113 SWAP1 PUSH2 0x1A4 JUMP JUMPDEST PUSH2 0x11E SWAP3 SWAP2 SWAP1 PUSH2 0x2B8 JUMP JUMPDEST PUSH1 0x40 MLOAD DUP1 SWAP2 SUB SWAP1 PUSH1 0x0 CREATE DUP1 ISZERO DUP1 ISZERO PUSH2 0x13A JUMPI RETURNDATASIZE PUSH1 0x0 DUP1 RETURNDATACOPY RETURNDATASIZE PUSH1 0x0 REVERT JUMPDEST POP SWAP1 POP PUSH1 0x0 DUP2 SWAP1 DUP1 PUSH1 0x1 DUP2 SLOAD ADD DUP1 DUP3 SSTORE DUP1 SWAP2 POP POP PUSH1 0x1 SWAP1 SUB SWAP1 PUSH1 0x0 MSTORE PUSH1 0x20 PUSH1 0x0 KECCAK256 ADD PUSH1 0x0 SWAP1 SWAP2 SWAP1 SWAP2 SWAP1 SWAP2 PUSH2 0x100 EXP DUP2 SLOAD DUP2 PUSH20 0xFFFFFFFFFFFFFFFFFFFFFFFFFFFFFFFFFFFFFFFF MUL NOT AND SWAP1 DUP4 PUSH20 0xFFFFFFFFFFFFFFFFFFFFFFFFFFFFFFFFFFFFFFFF AND MUL OR SWAP1 SSTORE POP POP POP JUMP JUMPDEST PUSH2 0x16BA DUP1 PUSH2 0x373 DUP4 CODECOPY ADD SWAP1 JUMP JUMPDEST PUSH1 0x0 DUP2 CALLDATALOAD SWAP1 POP PUSH2 0x1C0 DUP2 PUSH2 0x35B JUMP JUMPDEST SWAP3 SWAP2 POP POP JUMP JUMPDEST PUSH1 0x0 PUSH1 0x20 DUP3 DUP5 SUB SLT ISZERO PUSH2 0x1DC JUMPI PUSH2 0x1DB PUSH2 0x356 JUMP JUMPDEST JUMPDEST PUSH1 0x0 PUSH2 0x1EA DUP5 DUP3 DUP6 ADD PUSH2 0x1B1 JUMP JUMPDEST SWAP2 POP POP SWAP3 SWAP2 POP POP JUMP JUMPDEST PUSH1 0x0 PUSH2 0x1FF DUP4 DUP4 PUSH2 0x20B JUMP JUMPDEST PUSH1 0x20 DUP4 ADD SWAP1 POP SWAP3 SWAP2 POP POP JUMP JUMPDEST PUSH2 0x214 DUP2 PUSH2 0x31A JUMP JUMPDEST DUP3 MSTORE POP POP JUMP JUMPDEST PUSH2 0x223 DUP2 PUSH2 0x31A JUMP JUMPDEST DUP3 MSTORE POP POP JUMP JUMPDEST PUSH1 0x0 PUSH2 0x234 DUP3 PUSH2 0x2F1 JUMP JUMPDEST PUSH2 0x23E DUP2 DUP6 PUSH2 0x309 JUMP JUMPDEST SWAP4 POP PUSH2 0x249 DUP4 PUSH2 0x2E1 JUMP JUMPDEST DUP1 PUSH1 0x0 JUMPDEST DUP4 DUP2 LT ISZERO PUSH2 0x27A JUMPI DUP2 MLOAD PUSH2 0x261 DUP9 DUP3 PUSH2 0x1F3 JUMP JUMPDEST SWAP8 POP PUSH2 0x26C DUP4 PUSH2 0x2FC JUMP JUMPDEST SWAP3 POP POP PUSH1 0x1 DUP2 ADD SWAP1 POP PUSH2 0x24D JUMP JUMPDEST POP DUP6 SWAP4 POP POP POP POP SWAP3 SWAP2 POP POP JUMP JUMPDEST PUSH2 0x290 DUP2 PUSH2 0x34C JUMP JUMPDEST DUP3 MSTORE POP POP JUMP JUMPDEST PUSH1 0x0 PUSH1 0x20 DUP3 ADD SWAP1 POP DUP2 DUP2 SUB PUSH1 0x0 DUP4 ADD MSTORE PUSH2 0x2B0 DUP2 DUP5 PUSH2 0x229 JUMP JUMPDEST SWAP1 POP SWAP3 SWAP2 POP POP JUMP JUMPDEST PUSH1 0x0 PUSH1 0x40 DUP3 ADD SWAP1 POP PUSH2 0x2CD PUSH1 0x0 DUP4 ADD DUP6 PUSH2 0x287 JUMP JUMPDEST PUSH2 0x2DA PUSH1 0x20 DUP4 ADD DUP5 PUSH2 0x21A JUMP JUMPDEST SWAP4 SWAP3 POP POP POP JUMP JUMPDEST PUSH1 0x0 DUP2 SWAP1 POP PUSH1 0x20 DUP3 ADD SWAP1 POP SWAP2 SWAP1 POP JUMP JUMPDEST PUSH1 0x0 DUP2 MLOAD SWAP1 POP SWAP2 SWAP1 POP JUMP JUMPDEST PUSH1 0x0 PUSH1 0x20 DUP3 ADD SWAP1 POP SWAP2 SWAP1 POP JUMP JUMPDEST PUSH1 0x0 DUP3 DUP3 MSTORE PUSH1 0x20 DUP3 ADD SWAP1 POP SWAP3 SWAP2 POP POP JUMP JUMPDEST PUSH1 0x0 PUSH2 0x325 DUP3 PUSH2 0x32C JUMP JUMPDEST SWAP1 POP SWAP2 SWAP1 POP JUMP JUMPDEST PUSH1 0x0 PUSH20 0xFFFFFFFFFFFFFFFFFFFFFFFFFFFFFFFFFFFFFFFF DUP3 AND SWAP1 POP SWAP2 SWAP1 POP JUMP JUMPDEST PUSH1 0x0 DUP2 SWAP1 POP SWAP2 SWAP1 POP JUMP JUMPDEST PUSH1 0x0 DUP1 REVERT JUMPDEST PUSH2 0x364 DUP2 PUSH2 0x34C JUMP JUMPDEST DUP2 EQ PUSH2 0x36F JUMPI PUSH1 0x0 DUP1 REVERT JUMPDEST POP JUMP INVALID PUSH1 0x80 PUSH1 0x40 MSTORE CALLVALUE DUP1 ISZERO PUSH3 0x11 JUMPI PUSH1 0x0 DUP1 REVERT JUMPDEST POP PUSH1 0x40 MLOAD PUSH3 0x16BA CODESIZE SUB DUP1 PUSH3 0x16BA DUP4 CODECOPY DUP2 DUP2 ADD PUSH1 0x40 MSTORE DUP2 ADD SWAP1 PUSH3 0x37 SWAP2 SWAP1 PUSH3 0xB5 JUMP JUMPDEST DUP1 PUSH1 0x2 PUSH1 0x0 PUSH2 0x100 EXP DUP2 SLOAD DUP2 PUSH20 0xFFFFFFFFFFFFFFFFFFFFFFFFFFFFFFFFFFFFFFFF MUL NOT AND SWAP1 DUP4 PUSH20 0xFFFFFFFFFFFFFFFFFFFFFFFFFFFFFFFFFFFFFFFF AND MUL OR SWAP1 SSTORE POP DUP2 PUSH1 0x3 DUP2 SWAP1 SSTORE POP POP POP PUSH3 0x173 JUMP JUMPDEST PUSH1 0x0 DUP2 MLOAD SWAP1 POP PUSH3 0x98 DUP2 PUSH3 0x13F JUMP JUMPDEST SWAP3 SWAP2 POP POP JUMP JUMPDEST PUSH1 0x0 DUP2 MLOAD SWAP1 POP PUSH3 0xAF DUP2 PUSH3 0x159 JUMP JUMPDEST SWAP3 SWAP2 POP POP JUMP JUMPDEST PUSH1 0x0 DUP1 PUSH1 0x40 DUP4 DUP6 SUB SLT ISZERO PUSH3 0xCF JUMPI PUSH3 0xCE PUSH3 0x13A JUMP JUMPDEST JUMPDEST PUSH1 0x0 PUSH3 0xDF DUP6 DUP3 DUP7 ADD PUSH3 0x9E JUMP JUMPDEST SWAP3 POP POP PUSH1 0x20 PUSH3 0xF2 DUP6 DUP3 DUP7 ADD PUSH3 0x87 JUMP JUMPDEST SWAP2 POP POP SWAP3 POP SWAP3 SWAP1 POP JUMP JUMPDEST PUSH1 0x0 PUSH3 0x109 DUP3 PUSH3 0x110 JUMP JUMPDEST SWAP1 POP SWAP2 SWAP1 POP JUMP JUMPDEST PUSH1 0x0 PUSH20 0xFFFFFFFFFFFFFFFFFFFFFFFFFFFFFFFFFFFFFFFF DUP3 AND SWAP1 POP SWAP2 SWAP1 POP JUMP JUMPDEST PUSH1 0x0 DUP2 SWAP1 POP SWAP2 SWAP1 POP JUMP JUMPDEST PUSH1 0x0 DUP1 REVERT JUMPDEST PUSH3 0x14A DUP2 PUSH3 0xFC JUMP JUMPDEST DUP2 EQ PUSH3 0x156 JUMPI PUSH1 0x0 DUP1 REVERT JUMPDEST POP JUMP JUMPDEST PUSH3 0x164 DUP2 PUSH3 0x130 JUMP JUMPDEST DUP2 EQ PUSH3 0x170 JUMPI PUSH1 0x0 DUP1 REVERT JUMPDEST POP JUMP JUMPDEST PUSH2 0x1537 DUP1 PUSH3 0x183 PUSH1 0x0 CODECOPY PUSH1 0x0 RETURN INVALID PUSH1 0x80 PUSH1 0x40 MSTORE PUSH1 0x4 CALLDATASIZE LT PUSH2 0xA0 JUMPI PUSH1 0x0 CALLDATALOAD PUSH1 0xE0 SHR DUP1 PUSH4 0x82FDE093 GT PUSH2 0x64 JUMPI DUP1 PUSH4 0x82FDE093 EQ PUSH2 0x2B4 JUMPI DUP1 PUSH4 0x8A9CFD55 EQ PUSH2 0x2DF JUMPI DUP1 PUSH4 0x937E09B1 EQ PUSH2 0x308 JUMPI DUP1 PUSH4 0xB6290E76 EQ PUSH2 0x333 JUMPI DUP1 PUSH4 0xD7D1BBDB EQ PUSH2 0x35E JUMPI DUP1 PUSH4 0xEB8BBD28 EQ PUSH2 0x387 JUMPI PUSH2 0x1AE JUMP JUMPDEST DUP1 PUSH4 0x3441006 EQ PUSH2 0x1B3 JUMPI DUP1 PUSH4 0xA144391 EQ PUSH2 0x1DC JUMPI DUP1 PUSH4 0x4051DDAC EQ PUSH2 0x219 JUMPI DUP1 PUSH4 0x481C6A75 EQ PUSH2 0x248 JUMPI DUP1 PUSH4 0x81D12C58 EQ PUSH2 0x273 JUMPI PUSH2 0x1AE JUMP JUMPDEST CALLDATASIZE PUSH2 0x1AE JUMPI PUSH1 0x3 SLOAD CALLVALUE LT ISZERO PUSH2 0xEA JUMPI PUSH1 0x40 MLOAD PUSH32 0x8C379A000000000000000000000000000000000000000000000000000000000 DUP2 MSTORE PUSH1 0x4 ADD PUSH2 0xE1 SWAP1 PUSH2 0xF76 JUMP JUMPDEST PUSH1 0x40 MLOAD DUP1 SWAP2 SUB SWAP1 REVERT JUMPDEST PUSH1 0x5 PUSH1 0x0 CALLER PUSH20 0xFFFFFFFFFFFFFFFFFFFFFFFFFFFFFFFFFFFFFFFF AND PUSH20 0xFFFFFFFFFFFFFFFFFFFFFFFFFFFFFFFFFFFFFFFF AND DUP2 MSTORE PUSH1 0x20 ADD SWAP1 DUP2 MSTORE PUSH1 0x20 ADD PUSH1 0x0 KECCAK256 PUSH1 0x0 SWAP1 SLOAD SWAP1 PUSH2 0x100 EXP SWAP1 DIV PUSH1 0xFF AND PUSH2 0x1AC JUMPI PUSH1 0x1 PUSH1 0x5 PUSH1 0x0 CALLER PUSH20 0xFFFFFFFFFFFFFFFFFFFFFFFFFFFFFFFFFFFFFFFF AND PUSH20 0xFFFFFFFFFFFFFFFFFFFFFFFFFFFFFFFFFFFFFFFF AND DUP2 MSTORE PUSH1 0x20 ADD SWAP1 DUP2 MSTORE PUSH1 0x20 ADD PUSH1 0x0 KECCAK256 PUSH1 0x0 PUSH2 0x100 EXP DUP2 SLOAD DUP2 PUSH1 0xFF MUL NOT AND SWAP1 DUP4 ISZERO ISZERO MUL OR SWAP1 SSTORE POP PUSH1 0x4 PUSH1 0x0 DUP2 SLOAD DUP1 SWAP3 SWAP2 SWAP1 PUSH2 0x1A6 SWAP1 PUSH2 0x11A6 JUMP JUMPDEST SWAP2 SWAP1 POP SSTORE POP JUMPDEST STOP JUMPDEST PUSH1 0x0 DUP1 REVERT JUMPDEST CALLVALUE DUP1 ISZERO PUSH2 0x1BF JUMPI PUSH1 0x0 DUP1 REVERT JUMPDEST POP PUSH2 0x1DA PUSH1 0x4 DUP1 CALLDATASIZE SUB DUP2 ADD SWAP1 PUSH2 0x1D5 SWAP2 SWAP1 PUSH2 0xC8F JUMP JUMPDEST PUSH2 0x3B2 JUMP JUMPDEST STOP JUMPDEST CALLVALUE DUP1 ISZERO PUSH2 0x1E8 JUMPI PUSH1 0x0 DUP1 REVERT JUMPDEST POP PUSH2 0x203 PUSH1 0x4 DUP1 CALLDATASIZE SUB DUP2 ADD SWAP1 PUSH2 0x1FE SWAP2 SWAP1 PUSH2 0xBF3 JUMP JUMPDEST PUSH2 0x5D4 JUMP JUMPDEST PUSH1 0x40 MLOAD PUSH2 0x210 SWAP2 SWAP1 PUSH2 0xE41 JUMP JUMPDEST PUSH1 0x40 MLOAD DUP1 SWAP2 SUB SWAP1 RETURN JUMPDEST CALLVALUE DUP1 ISZERO PUSH2 0x225 JUMPI PUSH1 0x0 DUP1 REVERT JUMPDEST POP PUSH2 0x22E PUSH2 0x5F4 JUMP JUMPDEST PUSH1 0x40 MLOAD PUSH2 0x23F SWAP6 SWAP5 SWAP4 SWAP3 SWAP2 SWAP1 PUSH2 0xFB1 JUMP JUMPDEST PUSH1 0x40 MLOAD DUP1 SWAP2 SUB SWAP1 RETURN JUMPDEST CALLVALUE DUP1 ISZERO PUSH2 0x254 JUMPI PUSH1 0x0 DUP1 REVERT JUMPDEST POP PUSH2 0x25D PUSH2 0x641 JUMP JUMPDEST PUSH1 0x40 MLOAD PUSH2 0x26A SWAP2 SWAP1 PUSH2 0xE26 JUMP JUMPDEST PUSH1 0x40 MLOAD DUP1 SWAP2 SUB SWAP1 RETURN JUMPDEST CALLVALUE DUP1 ISZERO PUSH2 0x27F JUMPI PUSH1 0x0 DUP1 REVERT JUMPDEST POP PUSH2 0x29A PUSH1 0x4 DUP1 CALLDATASIZE SUB DUP2 ADD SWAP1 PUSH2 0x295 SWAP2 SWAP1 PUSH2 0xC8F JUMP JUMPDEST PUSH2 0x667 JUMP JUMPDEST PUSH1 0x40 MLOAD PUSH2 0x2AB SWAP6 SWAP5 SWAP4 SWAP3 SWAP2 SWAP1 PUSH2 0xE5C JUMP JUMPDEST PUSH1 0x40 MLOAD DUP1 SWAP2 SUB SWAP1 RETURN JUMPDEST CALLVALUE DUP1 ISZERO PUSH2 0x2C0 JUMPI PUSH1 0x0 DUP1 REVERT JUMPDEST POP PUSH2 0x2C9 PUSH2 0x752 JUMP JUMPDEST PUSH1 0x40 MLOAD PUSH2 0x2D6 SWAP2 SWAP1 PUSH2 0xF96 JUMP JUMPDEST PUSH1 0x40 MLOAD DUP1 SWAP2 SUB SWAP1 RETURN JUMPDEST CALLVALUE DUP1 ISZERO PUSH2 0x2EB JUMPI PUSH1 0x0 DUP1 REVERT JUMPDEST POP PUSH2 0x306 PUSH1 0x4 DUP1 CALLDATASIZE SUB DUP2 ADD SWAP1 PUSH2 0x301 SWAP2 SWAP1 PUSH2 0xC20 JUMP JUMPDEST PUSH2 0x758 JUMP JUMPDEST STOP JUMPDEST CALLVALUE DUP1 ISZERO PUSH2 0x314 JUMPI PUSH1 0x0 DUP1 REVERT JUMPDEST POP PUSH2 0x31D PUSH2 0x8A6 JUMP JUMPDEST PUSH1 0x40 MLOAD PUSH2 0x32A SWAP2 SWAP1 PUSH2 0xF96 JUMP JUMPDEST PUSH1 0x40 MLOAD DUP1 SWAP2 SUB SWAP1 RETURN JUMPDEST CALLVALUE DUP1 ISZERO PUSH2 0x33F JUMPI PUSH1 0x0 DUP1 REVERT JUMPDEST POP PUSH2 0x348 PUSH2 0x8AC JUMP JUMPDEST PUSH1 0x40 MLOAD PUSH2 0x355 SWAP2 SWAP1 PUSH2 0xF96 JUMP JUMPDEST PUSH1 0x40 MLOAD DUP1 SWAP2 SUB SWAP1 RETURN JUMPDEST CALLVALUE DUP1 ISZERO PUSH2 0x36A JUMPI PUSH1 0x0 DUP1 REVERT JUMPDEST POP PUSH2 0x385 PUSH1 0x4 DUP1 CALLDATASIZE SUB DUP2 ADD SWAP1 PUSH2 0x380 SWAP2 SWAP1 PUSH2 0xC8F JUMP JUMPDEST PUSH2 0x8B2 JUMP JUMPDEST STOP JUMPDEST CALLVALUE DUP1 ISZERO PUSH2 0x393 JUMPI PUSH1 0x0 DUP1 REVERT JUMPDEST POP PUSH2 0x39C PUSH2 0xAAE JUMP JUMPDEST PUSH1 0x40 MLOAD PUSH2 0x3A9 SWAP2 SWAP1 PUSH2 0xF96 JUMP JUMPDEST PUSH1 0x40 MLOAD DUP1 SWAP2 SUB SWAP1 RETURN JUMPDEST PUSH1 0x2 PUSH1 0x0 SWAP1 SLOAD SWAP1 PUSH2 0x100 EXP SWAP1 DIV PUSH20 0xFFFFFFFFFFFFFFFFFFFFFFFFFFFFFFFFFFFFFFFF AND PUSH20 0xFFFFFFFFFFFFFFFFFFFFFFFFFFFFFFFFFFFFFFFF AND CALLER PUSH20 0xFFFFFFFFFFFFFFFFFFFFFFFFFFFFFFFFFFFFFFFF AND EQ PUSH2 0x442 JUMPI PUSH1 0x40 MLOAD PUSH32 0x8C379A000000000000000000000000000000000000000000000000000000000 DUP2 MSTORE PUSH1 0x4 ADD PUSH2 0x439 SWAP1 PUSH2 0xF36 JUMP JUMPDEST PUSH1 0x40 MLOAD DUP1 SWAP2 SUB SWAP1 REVERT JUMPDEST PUSH1 0x0 SLOAD DUP2 GT ISZERO PUSH2 0x487 JUMPI PUSH1 0x40 MLOAD PUSH32 0x8C379A000000000000000000000000000000000000000000000000000000000 DUP2 MSTORE PUSH1 0x4 ADD PUSH2 0x47E SWAP1 PUSH2 0xF16 JUMP JUMPDEST PUSH1 0x40 MLOAD DUP1 SWAP2 SUB SWAP1 REVERT JUMPDEST PUSH1 0x0 PUSH1 0x1 PUSH1 0x0 DUP4 DUP2 MSTORE PUSH1 0x20 ADD SWAP1 DUP2 MSTORE PUSH1 0x20 ADD PUSH1 0x0 KECCAK256 SWAP1 POP PUSH1 0x2 PUSH1 0x4 SLOAD PUSH2 0x4AD SWAP2 SWAP1 PUSH2 0x1076 JUMP JUMPDEST DUP2 PUSH1 0x3 ADD SLOAD GT PUSH2 0x4F2 JUMPI PUSH1 0x40 MLOAD PUSH32 0x8C379A000000000000000000000000000000000000000000000000000000000 DUP2 MSTORE PUSH1 0x4 ADD PUSH2 0x4E9 SWAP1 PUSH2 0xED6 JUMP JUMPDEST PUSH1 0x40 MLOAD DUP1 SWAP2 SUB SWAP1 REVERT JUMPDEST DUP1 PUSH1 0x2 ADD PUSH1 0x14 SWAP1 SLOAD SWAP1 PUSH2 0x100 EXP SWAP1 DIV PUSH1 0xFF AND ISZERO PUSH2 0x544 JUMPI PUSH1 0x40 MLOAD PUSH32 0x8C379A000000000000000000000000000000000000000000000000000000000 DUP2 MSTORE PUSH1 0x4 ADD PUSH2 0x53B SWAP1 PUSH2 0xEB6 JUMP JUMPDEST PUSH1 0x40 MLOAD DUP1 SWAP2 SUB SWAP1 REVERT JUMPDEST DUP1 PUSH1 0x2 ADD PUSH1 0x0 SWAP1 SLOAD SWAP1 PUSH2 0x100 EXP SWAP1 DIV PUSH20 0xFFFFFFFFFFFFFFFFFFFFFFFFFFFFFFFFFFFFFFFF AND PUSH20 0xFFFFFFFFFFFFFFFFFFFFFFFFFFFFFFFFFFFFFFFF AND PUSH2 0x8FC DUP3 PUSH1 0x1 ADD SLOAD SWAP1 DUP2 ISZERO MUL SWAP1 PUSH1 0x40 MLOAD PUSH1 0x0 PUSH1 0x40 MLOAD DUP1 DUP4 SUB DUP2 DUP6 DUP9 DUP9 CALL SWAP4 POP POP POP POP ISZERO DUP1 ISZERO PUSH2 0x5B2 JUMPI RETURNDATASIZE PUSH1 0x0 DUP1 RETURNDATACOPY RETURNDATASIZE PUSH1 0x0 REVERT JUMPDEST POP PUSH1 0x1 DUP2 PUSH1 0x2 ADD PUSH1 0x14 PUSH2 0x100 EXP DUP2 SLOAD DUP2 PUSH1 0xFF MUL NOT AND SWAP1 DUP4 ISZERO ISZERO MUL OR SWAP1 SSTORE POP POP POP JUMP JUMPDEST PUSH1 0x5 PUSH1 0x20 MSTORE DUP1 PUSH1 0x0 MSTORE PUSH1 0x40 PUSH1 0x0 KECCAK256 PUSH1 0x0 SWAP2 POP SLOAD SWAP1 PUSH2 0x100 EXP SWAP1 DIV PUSH1 0xFF AND DUP2 JUMP JUMPDEST PUSH1 0x0 DUP1 PUSH1 0x0 DUP1 PUSH1 0x0 PUSH1 0x3 SLOAD PUSH2 0x607 PUSH2 0xAAE JUMP JUMPDEST PUSH1 0x0 SLOAD PUSH1 0x4 SLOAD PUSH1 0x2 PUSH1 0x0 SWAP1 SLOAD SWAP1 PUSH2 0x100 EXP SWAP1 DIV PUSH20 0xFFFFFFFFFFFFFFFFFFFFFFFFFFFFFFFFFFFFFFFF AND SWAP5 POP SWAP5 POP SWAP5 POP SWAP5 POP SWAP5 POP SWAP1 SWAP2 SWAP3 SWAP4 SWAP5 JUMP JUMPDEST PUSH1 0x2 PUSH1 0x0 SWAP1 SLOAD SWAP1 PUSH2 0x100 EXP SWAP1 DIV PUSH20 0xFFFFFFFFFFFFFFFFFFFFFFFFFFFFFFFFFFFFFFFF AND DUP2 JUMP JUMPDEST PUSH1 0x1 PUSH1 0x20 MSTORE DUP1 PUSH1 0x0 MSTORE PUSH1 0x40 PUSH1 0x0 KECCAK256 PUSH1 0x0 SWAP2 POP SWAP1 POP DUP1 PUSH1 0x0 ADD DUP1 SLOAD PUSH2 0x68A SWAP1 PUSH2 0x1143 JUMP JUMPDEST DUP1 PUSH1 0x1F ADD PUSH1 0x20 DUP1 SWAP2 DIV MUL PUSH1 0x20 ADD PUSH1 0x40 MLOAD SWAP1 DUP2 ADD PUSH1 0x40 MSTORE DUP1 SWAP3 SWAP2 SWAP1 DUP2 DUP2 MSTORE PUSH1 0x20 ADD DUP3 DUP1 SLOAD PUSH2 0x6B6 SWAP1 PUSH2 0x1143 JUMP JUMPDEST DUP1 ISZERO PUSH2 0x703 JUMPI DUP1 PUSH1 0x1F LT PUSH2 0x6D8 JUMPI PUSH2 0x100 DUP1 DUP4 SLOAD DIV MUL DUP4 MSTORE SWAP2 PUSH1 0x20 ADD SWAP2 PUSH2 0x703 JUMP JUMPDEST DUP3 ADD SWAP2 SWAP1 PUSH1 0x0 MSTORE PUSH1 0x20 PUSH1 0x0 KECCAK256 SWAP1 JUMPDEST DUP2 SLOAD DUP2 MSTORE SWAP1 PUSH1 0x1 ADD SWAP1 PUSH1 0x20 ADD DUP1 DUP4 GT PUSH2 0x6E6 JUMPI DUP3 SWAP1 SUB PUSH1 0x1F AND DUP3 ADD SWAP2 JUMPDEST POP POP POP POP POP SWAP1 DUP1 PUSH1 0x1 ADD SLOAD SWAP1 DUP1 PUSH1 0x2 ADD PUSH1 0x0 SWAP1 SLOAD SWAP1 PUSH2 0x100 EXP SWAP1 DIV PUSH20 0xFFFFFFFFFFFFFFFFFFFFFFFFFFFFFFFFFFFFFFFF AND SWAP1 DUP1 PUSH1 0x2 ADD PUSH1 0x14 SWAP1 SLOAD SWAP1 PUSH2 0x100 EXP SWAP1 DIV PUSH1 0xFF AND SWAP1 DUP1 PUSH1 0x3 ADD SLOAD SWAP1 POP DUP6 JUMP JUMPDEST PUSH1 0x4 SLOAD DUP2 JUMP JUMPDEST PUSH1 0x2 PUSH1 0x0 SWAP1 SLOAD SWAP1 PUSH2 0x100 EXP SWAP1 DIV PUSH20 0xFFFFFFFFFFFFFFFFFFFFFFFFFFFFFFFFFFFFFFFF AND PUSH20 0xFFFFFFFFFFFFFFFFFFFFFFFFFFFFFFFFFFFFFFFF AND CALLER PUSH20 0xFFFFFFFFFFFFFFFFFFFFFFFFFFFFFFFFFFFFFFFF AND EQ PUSH2 0x7E8 JUMPI PUSH1 0x40 MLOAD PUSH32 0x8C379A000000000000000000000000000000000000000000000000000000000 DUP2 MSTORE PUSH1 0x4 ADD PUSH2 0x7DF SWAP1 PUSH2 0xF36 JUMP JUMPDEST PUSH1 0x40 MLOAD DUP1 SWAP2 SUB SWAP1 REVERT JUMPDEST PUSH1 0x0 PUSH1 0x1 PUSH1 0x0 DUP1 PUSH1 0x0 DUP2 SLOAD DUP1 SWAP3 SWAP2 SWAP1 PUSH2 0x800 SWAP1 PUSH2 0x11A6 JUMP JUMPDEST SWAP2 SWAP1 POP SSTORE DUP2 MSTORE PUSH1 0x20 ADD SWAP1 DUP2 MSTORE PUSH1 0x20 ADD PUSH1 0x0 KECCAK256 SWAP1 POP DUP4 DUP2 PUSH1 0x0 ADD SWAP1 DUP1 MLOAD SWAP1 PUSH1 0x20 ADD SWAP1 PUSH2 0x82C SWAP3 SWAP2 SWAP1 PUSH2 0xAB6 JUMP JUMPDEST POP DUP3 DUP2 PUSH1 0x1 ADD DUP2 SWAP1 SSTORE POP DUP2 DUP2 PUSH1 0x2 ADD PUSH1 0x0 PUSH2 0x100 EXP DUP2 SLOAD DUP2 PUSH20 0xFFFFFFFFFFFFFFFFFFFFFFFFFFFFFFFFFFFFFFFF MUL NOT AND SWAP1 DUP4 PUSH20 0xFFFFFFFFFFFFFFFFFFFFFFFFFFFFFFFFFFFFFFFF AND MUL OR SWAP1 SSTORE POP PUSH1 0x0 DUP2 PUSH1 0x2 ADD PUSH1 0x14 PUSH2 0x100 EXP DUP2 SLOAD DUP2 PUSH1 0xFF MUL NOT AND SWAP1 DUP4 ISZERO ISZERO MUL OR SWAP1 SSTORE POP PUSH1 0x0 DUP2 PUSH1 0x3 ADD DUP2 SWAP1 SSTORE POP POP POP POP POP JUMP JUMPDEST PUSH1 0x3 SLOAD DUP2 JUMP JUMPDEST PUSH1 0x0 SLOAD DUP2 JUMP JUMPDEST PUSH1 0x5 PUSH1 0x0 CALLER PUSH20 0xFFFFFFFFFFFFFFFFFFFFFFFFFFFFFFFFFFFFFFFF AND PUSH20 0xFFFFFFFFFFFFFFFFFFFFFFFFFFFFFFFFFFFFFFFF AND DUP2 MSTORE PUSH1 0x20 ADD SWAP1 DUP2 MSTORE PUSH1 0x20 ADD PUSH1 0x0 KECCAK256 PUSH1 0x0 SWAP1 SLOAD SWAP1 PUSH2 0x100 EXP SWAP1 DIV PUSH1 0xFF AND PUSH2 0x93E JUMPI PUSH1 0x40 MLOAD PUSH32 0x8C379A000000000000000000000000000000000000000000000000000000000 DUP2 MSTORE PUSH1 0x4 ADD PUSH2 0x935 SWAP1 PUSH2 0xEF6 JUMP JUMPDEST PUSH1 0x40 MLOAD DUP1 SWAP2 SUB SWAP1 REVERT JUMPDEST PUSH1 0x0 DUP2 LT ISZERO DUP1 ISZERO PUSH2 0x951 JUMPI POP PUSH1 0x0 SLOAD DUP2 GT ISZERO JUMPDEST PUSH2 0x990 JUMPI PUSH1 0x40 MLOAD PUSH32 0x8C379A000000000000000000000000000000000000000000000000000000000 DUP2 MSTORE PUSH1 0x4 ADD PUSH2 0x987 SWAP1 PUSH2 0xF16 JUMP JUMPDEST PUSH1 0x40 MLOAD DUP1 SWAP2 SUB SWAP1 REVERT JUMPDEST PUSH1 0x0 PUSH1 0x1 PUSH1 0x0 DUP4 DUP2 MSTORE PUSH1 0x20 ADD SWAP1 DUP2 MSTORE PUSH1 0x20 ADD PUSH1 0x0 KECCAK256 SWAP1 POP DUP1 PUSH1 0x4 ADD PUSH1 0x0 CALLER PUSH20 0xFFFFFFFFFFFFFFFFFFFFFFFFFFFFFFFFFFFFFFFF AND PUSH20 0xFFFFFFFFFFFFFFFFFFFFFFFFFFFFFFFFFFFFFFFF AND DUP2 MSTORE PUSH1 0x20 ADD SWAP1 DUP2 MSTORE PUSH1 0x20 ADD PUSH1 0x0 KECCAK256 PUSH1 0x0 SWAP1 SLOAD SWAP1 PUSH2 0x100 EXP SWAP1 DIV PUSH1 0xFF AND ISZERO PUSH2 0xA36 JUMPI PUSH1 0x40 MLOAD PUSH32 0x8C379A000000000000000000000000000000000000000000000000000000000 DUP2 MSTORE PUSH1 0x4 ADD PUSH2 0xA2D SWAP1 PUSH2 0xF56 JUMP JUMPDEST PUSH1 0x40 MLOAD DUP1 SWAP2 SUB SWAP1 REVERT JUMPDEST PUSH1 0x1 DUP2 PUSH1 0x4 ADD PUSH1 0x0 CALLER PUSH20 0xFFFFFFFFFFFFFFFFFFFFFFFFFFFFFFFFFFFFFFFF AND PUSH20 0xFFFFFFFFFFFFFFFFFFFFFFFFFFFFFFFFFFFFFFFF AND DUP2 MSTORE PUSH1 0x20 ADD SWAP1 DUP2 MSTORE PUSH1 0x20 ADD PUSH1 0x0 KECCAK256 PUSH1 0x0 PUSH2 0x100 EXP DUP2 SLOAD DUP2 PUSH1 0xFF MUL NOT AND SWAP1 DUP4 ISZERO ISZERO MUL OR SWAP1 SSTORE POP DUP1 PUSH1 0x3 ADD PUSH1 0x0 DUP2 SLOAD DUP1 SWAP3 SWAP2 SWAP1 PUSH2 0xAA5 SWAP1 PUSH2 0x11A6 JUMP JUMPDEST SWAP2 SWAP1 POP SSTORE POP POP POP JUMP JUMPDEST PUSH1 0x0 SELFBALANCE SWAP1 POP SWAP1 JUMP JUMPDEST DUP3 DUP1 SLOAD PUSH2 0xAC2 SWAP1 PUSH2 0x1143 JUMP JUMPDEST SWAP1 PUSH1 0x0 MSTORE PUSH1 0x20 PUSH1 0x0 KECCAK256 SWAP1 PUSH1 0x1F ADD PUSH1 0x20 SWAP1 DIV DUP2 ADD SWAP3 DUP3 PUSH2 0xAE4 JUMPI PUSH1 0x0 DUP6 SSTORE PUSH2 0xB2B JUMP JUMPDEST DUP3 PUSH1 0x1F LT PUSH2 0xAFD JUMPI DUP1 MLOAD PUSH1 0xFF NOT AND DUP4 DUP1 ADD OR DUP6 SSTORE PUSH2 0xB2B JUMP JUMPDEST DUP3 DUP1 ADD PUSH1 0x1 ADD DUP6 SSTORE DUP3 ISZERO PUSH2 0xB2B JUMPI SWAP2 DUP3 ADD JUMPDEST DUP3 DUP2 GT ISZERO PUSH2 0xB2A JUMPI DUP3 MLOAD DUP3 SSTORE SWAP2 PUSH1 0x20 ADD SWAP2 SWAP1 PUSH1 0x1 ADD SWAP1 PUSH2 0xB0F JUMP JUMPDEST JUMPDEST POP SWAP1 POP PUSH2 0xB38 SWAP2 SWAP1 PUSH2 0xB3C JUMP JUMPDEST POP SWAP1 JUMP JUMPDEST JUMPDEST DUP1 DUP3 GT ISZERO PUSH2 0xB55 JUMPI PUSH1 0x0 DUP2 PUSH1 0x0 SWAP1 SSTORE POP PUSH1 0x1 ADD PUSH2 0xB3D JUMP JUMPDEST POP SWAP1 JUMP JUMPDEST PUSH1 0x0 PUSH2 0xB6C PUSH2 0xB67 DUP5 PUSH2 0x1029 JUMP JUMPDEST PUSH2 0x1004 JUMP JUMPDEST SWAP1 POP DUP3 DUP2 MSTORE PUSH1 0x20 DUP2 ADD DUP5 DUP5 DUP5 ADD GT ISZERO PUSH2 0xB88 JUMPI PUSH2 0xB87 PUSH2 0x12B0 JUMP JUMPDEST JUMPDEST PUSH2 0xB93 DUP5 DUP3 DUP6 PUSH2 0x1101 JUMP JUMPDEST POP SWAP4 SWAP3 POP POP POP JUMP JUMPDEST PUSH1 0x0 DUP2 CALLDATALOAD SWAP1 POP PUSH2 0xBAA DUP2 PUSH2 0x14D3 JUMP JUMPDEST SWAP3 SWAP2 POP POP JUMP JUMPDEST PUSH1 0x0 DUP3 PUSH1 0x1F DUP4 ADD SLT PUSH2 0xBC5 JUMPI PUSH2 0xBC4 PUSH2 0x12AB JUMP JUMPDEST JUMPDEST DUP2 CALLDATALOAD PUSH2 0xBD5 DUP5 DUP3 PUSH1 0x20 DUP7 ADD PUSH2 0xB59 JUMP JUMPDEST SWAP2 POP POP SWAP3 SWAP2 POP POP JUMP JUMPDEST PUSH1 0x0 DUP2 CALLDATALOAD SWAP1 POP PUSH2 0xBED DUP2 PUSH2 0x14EA JUMP JUMPDEST SWAP3 SWAP2 POP POP JUMP JUMPDEST PUSH1 0x0 PUSH1 0x20 DUP3 DUP5 SUB SLT ISZERO PUSH2 0xC09 JUMPI PUSH2 0xC08 PUSH2 0x12BA JUMP JUMPDEST JUMPDEST PUSH1 0x0 PUSH2 0xC17 DUP5 DUP3 DUP6 ADD PUSH2 0xB9B JUMP JUMPDEST SWAP2 POP POP SWAP3 SWAP2 POP POP JUMP JUMPDEST PUSH1 0x0 DUP1 PUSH1 0x0 PUSH1 0x60 DUP5 DUP7 SUB SLT ISZERO PUSH2 0xC39 JUMPI PUSH2 0xC38 PUSH2 0x12BA JUMP JUMPDEST JUMPDEST PUSH1 0x0 DUP5 ADD CALLDATALOAD PUSH8 0xFFFFFFFFFFFFFFFF DUP2 GT ISZERO PUSH2 0xC57 JUMPI PUSH2 0xC56 PUSH2 0x12B5 JUMP JUMPDEST JUMPDEST PUSH2 0xC63 DUP7 DUP3 DUP8 ADD PUSH2 0xBB0 JUMP JUMPDEST SWAP4 POP POP PUSH1 0x20 PUSH2 0xC74 DUP7 DUP3 DUP8 ADD PUSH2 0xBDE JUMP JUMPDEST SWAP3 POP POP PUSH1 0x40 PUSH2 0xC85 DUP7 DUP3 DUP8 ADD PUSH2 0xB9B JUMP JUMPDEST SWAP2 POP POP SWAP3 POP SWAP3 POP SWAP3 JUMP JUMPDEST PUSH1 0x0 PUSH1 0x20 DUP3 DUP5 SUB SLT ISZERO PUSH2 0xCA5 JUMPI PUSH2 0xCA4 PUSH2 0x12BA JUMP JUMPDEST JUMPDEST PUSH1 0x0 PUSH2 0xCB3 DUP5 DUP3 DUP6 ADD PUSH2 0xBDE JUMP JUMPDEST SWAP2 POP POP SWAP3 SWAP2 POP POP JUMP JUMPDEST PUSH2 0xCC5 DUP2 PUSH2 0x10B9 JUMP JUMPDEST DUP3 MSTORE POP POP JUMP JUMPDEST PUSH2 0xCD4 DUP2 PUSH2 0x10A7 JUMP JUMPDEST DUP3 MSTORE POP POP JUMP JUMPDEST PUSH2 0xCE3 DUP2 PUSH2 0x10CB JUMP JUMPDEST DUP3 MSTORE POP POP JUMP JUMPDEST PUSH1 0x0 PUSH2 0xCF4 DUP3 PUSH2 0x105A JUMP JUMPDEST PUSH2 0xCFE DUP2 DUP6 PUSH2 0x1065 JUMP JUMPDEST SWAP4 POP PUSH2 0xD0E DUP2 DUP6 PUSH1 0x20 DUP7 ADD PUSH2 0x1110 JUMP JUMPDEST PUSH2 0xD17 DUP2 PUSH2 0x12BF JUMP JUMPDEST DUP5 ADD SWAP2 POP POP SWAP3 SWAP2 POP POP JUMP JUMPDEST PUSH1 0x0 PUSH2 0xD2F PUSH1 0x26 DUP4 PUSH2 0x1065 JUMP JUMPDEST SWAP2 POP PUSH2 0xD3A DUP3 PUSH2 0x12D0 JUMP JUMPDEST PUSH1 0x40 DUP3 ADD SWAP1 POP SWAP2 SWAP1 POP JUMP JUMPDEST PUSH1 0x0 PUSH2 0xD52 PUSH1 0x4C DUP4 PUSH2 0x1065 JUMP JUMPDEST SWAP2 POP PUSH2 0xD5D DUP3 PUSH2 0x131F JUMP JUMPDEST PUSH1 0x60 DUP3 ADD SWAP1 POP SWAP2 SWAP1 POP JUMP JUMPDEST PUSH1 0x0 PUSH2 0xD75 PUSH1 0x22 DUP4 PUSH2 0x1065 JUMP JUMPDEST SWAP2 POP PUSH2 0xD80 DUP3 PUSH2 0x1394 JUMP JUMPDEST PUSH1 0x40 DUP3 ADD SWAP1 POP SWAP2 SWAP1 POP JUMP JUMPDEST PUSH1 0x0 PUSH2 0xD98 PUSH1 0x16 DUP4 PUSH2 0x1065 JUMP JUMPDEST SWAP2 POP PUSH2 0xDA3 DUP3 PUSH2 0x13E3 JUMP JUMPDEST PUSH1 0x20 DUP3 ADD SWAP1 POP SWAP2 SWAP1 POP JUMP JUMPDEST PUSH1 0x0 PUSH2 0xDBB PUSH1 0x1A DUP4 PUSH2 0x1065 JUMP JUMPDEST SWAP2 POP PUSH2 0xDC6 DUP3 PUSH2 0x140C JUMP JUMPDEST PUSH1 0x20 DUP3 ADD SWAP1 POP SWAP2 SWAP1 POP JUMP JUMPDEST PUSH1 0x0 PUSH2 0xDDE PUSH1 0x26 DUP4 PUSH2 0x1065 JUMP JUMPDEST SWAP2 POP PUSH2 0xDE9 DUP3 PUSH2 0x1435 JUMP JUMPDEST PUSH1 0x40 DUP3 ADD SWAP1 POP SWAP2 SWAP1 POP JUMP JUMPDEST PUSH1 0x0 PUSH2 0xE01 PUSH1 0x3F DUP4 PUSH2 0x1065 JUMP JUMPDEST SWAP2 POP PUSH2 0xE0C DUP3 PUSH2 0x1484 JUMP JUMPDEST PUSH1 0x40 DUP3 ADD SWAP1 POP SWAP2 SWAP1 POP JUMP JUMPDEST PUSH2 0xE20 DUP2 PUSH2 0x10F7 JUMP JUMPDEST DUP3 MSTORE POP POP JUMP JUMPDEST PUSH1 0x0 PUSH1 0x20 DUP3 ADD SWAP1 POP PUSH2 0xE3B PUSH1 0x0 DUP4 ADD DUP5 PUSH2 0xCCB JUMP JUMPDEST SWAP3 SWAP2 POP POP JUMP JUMPDEST PUSH1 0x0 PUSH1 0x20 DUP3 ADD SWAP1 POP PUSH2 0xE56 PUSH1 0x0 DUP4 ADD DUP5 PUSH2 0xCDA JUMP JUMPDEST SWAP3 SWAP2 POP POP JUMP JUMPDEST PUSH1 0x0 PUSH1 0xA0 DUP3 ADD SWAP1 POP DUP2 DUP2 SUB PUSH1 0x0 DUP4 ADD MSTORE PUSH2 0xE76 DUP2 DUP9 PUSH2 0xCE9 JUMP JUMPDEST SWAP1 POP PUSH2 0xE85 PUSH1 0x20 DUP4 ADD DUP8 PUSH2 0xE17 JUMP JUMPDEST PUSH2 0xE92 PUSH1 0x40 DUP4 ADD DUP7 PUSH2 0xCBC JUMP JUMPDEST PUSH2 0xE9F PUSH1 0x60 DUP4 ADD DUP6 PUSH2 0xCDA JUMP JUMPDEST PUSH2 0xEAC PUSH1 0x80 DUP4 ADD DUP5 PUSH2 0xE17 JUMP JUMPDEST SWAP7 SWAP6 POP POP POP POP POP POP JUMP JUMPDEST PUSH1 0x0 PUSH1 0x20 DUP3 ADD SWAP1 POP DUP2 DUP2 SUB PUSH1 0x0 DUP4 ADD MSTORE PUSH2 0xECF DUP2 PUSH2 0xD22 JUMP JUMPDEST SWAP1 POP SWAP2 SWAP1 POP JUMP JUMPDEST PUSH1 0x0 PUSH1 0x20 DUP3 ADD SWAP1 POP DUP2 DUP2 SUB PUSH1 0x0 DUP4 ADD MSTORE PUSH2 0xEEF DUP2 PUSH2 0xD45 JUMP JUMPDEST SWAP1 POP SWAP2 SWAP1 POP JUMP JUMPDEST PUSH1 0x0 PUSH1 0x20 DUP3 ADD SWAP1 POP DUP2 DUP2 SUB PUSH1 0x0 DUP4 ADD MSTORE PUSH2 0xF0F DUP2 PUSH2 0xD68 JUMP JUMPDEST SWAP1 POP SWAP2 SWAP1 POP JUMP JUMPDEST PUSH1 0x0 PUSH1 0x20 DUP3 ADD SWAP1 POP DUP2 DUP2 SUB PUSH1 0x0 DUP4 ADD MSTORE PUSH2 0xF2F DUP2 PUSH2 0xD8B JUMP JUMPDEST SWAP1 POP SWAP2 SWAP1 POP JUMP JUMPDEST PUSH1 0x0 PUSH1 0x20 DUP3 ADD SWAP1 POP DUP2 DUP2 SUB PUSH1 0x0 DUP4 ADD MSTORE PUSH2 0xF4F DUP2 PUSH2 0xDAE JUMP JUMPDEST SWAP1 POP SWAP2 SWAP1 POP JUMP JUMPDEST PUSH1 0x0 PUSH1 0x20 DUP3 ADD SWAP1 POP DUP2 DUP2 SUB PUSH1 0x0 DUP4 ADD MSTORE PUSH2 0xF6F DUP2 PUSH2 0xDD1 JUMP JUMPDEST SWAP1 POP SWAP2 SWAP1 POP JUMP JUMPDEST PUSH1 0x0 PUSH1 0x20 DUP3 ADD SWAP1 POP DUP2 DUP2 SUB PUSH1 0x0 DUP4 ADD MSTORE PUSH2 0xF8F DUP2 PUSH2 0xDF4 JUMP JUMPDEST SWAP1 POP SWAP2 SWAP1 POP JUMP JUMPDEST PUSH1 0x0 PUSH1 0x20 DUP3 ADD SWAP1 POP PUSH2 0xFAB PUSH1 0x0 DUP4 ADD DUP5 PUSH2 0xE17 JUMP JUMPDEST SWAP3 SWAP2 POP POP JUMP JUMPDEST PUSH1 0x0 PUSH1 0xA0 DUP3 ADD SWAP1 POP PUSH2 0xFC6 PUSH1 0x0 DUP4 ADD DUP9 PUSH2 0xE17 JUMP JUMPDEST PUSH2 0xFD3 PUSH1 0x20 DUP4 ADD DUP8 PUSH2 0xE17 JUMP JUMPDEST PUSH2 0xFE0 PUSH1 0x40 DUP4 ADD DUP7 PUSH2 0xE17 JUMP JUMPDEST PUSH2 0xFED PUSH1 0x60 DUP4 ADD DUP6 PUSH2 0xE17 JUMP JUMPDEST PUSH2 0xFFA PUSH1 0x80 DUP4 ADD DUP5 PUSH2 0xCCB JUMP JUMPDEST SWAP7 SWAP6 POP POP POP POP POP POP JUMP JUMPDEST PUSH1 0x0 PUSH2 0x100E PUSH2 0x101F JUMP JUMPDEST SWAP1 POP PUSH2 0x101A DUP3 DUP3 PUSH2 0x1175 JUMP JUMPDEST SWAP2 SWAP1 POP JUMP JUMPDEST PUSH1 0x0 PUSH1 0x40 MLOAD SWAP1 POP SWAP1 JUMP JUMPDEST PUSH1 0x0 PUSH8 0xFFFFFFFFFFFFFFFF DUP3 GT ISZERO PUSH2 0x1044 JUMPI PUSH2 0x1043 PUSH2 0x127C JUMP JUMPDEST JUMPDEST PUSH2 0x104D DUP3 PUSH2 0x12BF JUMP JUMPDEST SWAP1 POP PUSH1 0x20 DUP2 ADD SWAP1 POP SWAP2 SWAP1 POP JUMP JUMPDEST PUSH1 0x0 DUP2 MLOAD SWAP1 POP SWAP2 SWAP1 POP JUMP JUMPDEST PUSH1 0x0 DUP3 DUP3 MSTORE PUSH1 0x20 DUP3 ADD SWAP1 POP SWAP3 SWAP2 POP POP JUMP JUMPDEST PUSH1 0x0 PUSH2 0x1081 DUP3 PUSH2 0x10F7 JUMP JUMPDEST SWAP2 POP PUSH2 0x108C DUP4 PUSH2 0x10F7 JUMP JUMPDEST SWAP3 POP DUP3 PUSH2 0x109C JUMPI PUSH2 0x109B PUSH2 0x121E JUMP JUMPDEST JUMPDEST DUP3 DUP3 DIV SWAP1 POP SWAP3 SWAP2 POP POP JUMP JUMPDEST PUSH1 0x0 PUSH2 0x10B2 DUP3 PUSH2 0x10D7 JUMP JUMPDEST SWAP1 POP SWAP2 SWAP1 POP JUMP JUMPDEST PUSH1 0x0 PUSH2 0x10C4 DUP3 PUSH2 0x10D7 JUMP JUMPDEST SWAP1 POP SWAP2 SWAP1 POP JUMP JUMPDEST PUSH1 0x0 DUP2 ISZERO ISZERO SWAP1 POP SWAP2 SWAP1 POP JUMP JUMPDEST PUSH1 0x0 PUSH20 0xFFFFFFFFFFFFFFFFFFFFFFFFFFFFFFFFFFFFFFFF DUP3 AND SWAP1 POP SWAP2 SWAP1 POP JUMP JUMPDEST PUSH1 0x0 DUP2 SWAP1 POP SWAP2 SWAP1 POP JUMP JUMPDEST DUP3 DUP2 DUP4 CALLDATACOPY PUSH1 0x0 DUP4 DUP4 ADD MSTORE POP POP POP JUMP JUMPDEST PUSH1 0x0 JUMPDEST DUP4 DUP2 LT ISZERO PUSH2 0x112E JUMPI DUP1 DUP3 ADD MLOAD DUP2 DUP5 ADD MSTORE PUSH1 0x20 DUP2 ADD SWAP1 POP PUSH2 0x1113 JUMP JUMPDEST DUP4 DUP2 GT ISZERO PUSH2 0x113D JUMPI PUSH1 0x0 DUP5 DUP5 ADD MSTORE JUMPDEST POP POP POP POP JUMP JUMPDEST PUSH1 0x0 PUSH1 0x2 DUP3 DIV SWAP1 POP PUSH1 0x1 DUP3 AND DUP1 PUSH2 0x115B JUMPI PUSH1 0x7F DUP3 AND SWAP2 POP JUMPDEST PUSH1 0x20 DUP3 LT DUP2 EQ ISZERO PUSH2 0x116F JUMPI PUSH2 0x116E PUSH2 0x124D JUMP JUMPDEST JUMPDEST POP SWAP2 SWAP1 POP JUMP JUMPDEST PUSH2 0x117E DUP3 PUSH2 0x12BF JUMP JUMPDEST DUP2 ADD DUP2 DUP2 LT PUSH8 0xFFFFFFFFFFFFFFFF DUP3 GT OR ISZERO PUSH2 0x119D JUMPI PUSH2 0x119C PUSH2 0x127C JUMP JUMPDEST JUMPDEST DUP1 PUSH1 0x40 MSTORE POP POP POP JUMP JUMPDEST PUSH1 0x0 PUSH2 0x11B1 DUP3 PUSH2 0x10F7 JUMP JUMPDEST SWAP2 POP PUSH32 0xFFFFFFFFFFFFFFFFFFFFFFFFFFFFFFFFFFFFFFFFFFFFFFFFFFFFFFFFFFFFFFFF DUP3 EQ ISZERO PUSH2 0x11E4 JUMPI PUSH2 0x11E3 PUSH2 0x11EF JUMP JUMPDEST JUMPDEST PUSH1 0x1 DUP3 ADD SWAP1 POP SWAP2 SWAP1 POP JUMP JUMPDEST PUSH32 0x4E487B7100000000000000000000000000000000000000000000000000000000 PUSH1 0x0 MSTORE PUSH1 0x11 PUSH1 0x4 MSTORE PUSH1 0x24 PUSH1 0x0 REVERT JUMPDEST PUSH32 0x4E487B7100000000000000000000000000000000000000000000000000000000 PUSH1 0x0 MSTORE PUSH1 0x12 PUSH1 0x4 MSTORE PUSH1 0x24 PUSH1 0x0 REVERT JUMPDEST PUSH32 0x4E487B7100000000000000000000000000000000000000000000000000000000 PUSH1 0x0 MSTORE PUSH1 0x22 PUSH1 0x4 MSTORE PUSH1 0x24 PUSH1 0x0 REVERT JUMPDEST PUSH32 0x4E487B7100000000000000000000000000000000000000000000000000000000 PUSH1 0x0 MSTORE PUSH1 0x41 PUSH1 0x4 MSTORE PUSH1 0x24 PUSH1 0x0 REVERT JUMPDEST PUSH1 0x0 DUP1 REVERT JUMPDEST PUSH1 0x0 DUP1 REVERT JUMPDEST PUSH1 0x0 DUP1 REVERT JUMPDEST PUSH1 0x0 DUP1 REVERT JUMPDEST PUSH1 0x0 PUSH1 0x1F NOT PUSH1 0x1F DUP4 ADD AND SWAP1 POP SWAP2 SWAP1 POP JUMP JUMPDEST PUSH32 0x7265717565737420697320616C7265616479206D61726B656420617320636F6D PUSH1 0x0 DUP3 ADD MSTORE PUSH32 0x706C657465640000000000000000000000000000000000000000000000000000 PUSH1 0x20 DUP3 ADD MSTORE POP JUMP JUMPDEST PUSH32 0x726571756573742063616E6E6F7420626520636F6D706C657465642C20617320 PUSH1 0x0 DUP3 ADD MSTORE PUSH32 0x697420646F65736E2774206D656574207265717569726564206E756D62657220 PUSH1 0x20 DUP3 ADD MSTORE PUSH32 0x6F6620617070726F76616C730000000000000000000000000000000000000000 PUSH1 0x40 DUP3 ADD MSTORE POP JUMP JUMPDEST PUSH32 0x796F7520617265206E6F7420616E20617574686F72697A656420617070726F76 PUSH1 0x0 DUP3 ADD MSTORE PUSH32 0x6572000000000000000000000000000000000000000000000000000000000000 PUSH1 0x20 DUP3 ADD MSTORE POP JUMP JUMPDEST PUSH32 0x696E76616C69642072657175657374206E756D62657200000000000000000000 PUSH1 0x0 DUP3 ADD MSTORE POP JUMP JUMPDEST PUSH32 0x4F6E6C79206D616E6167657220697320617574686F72697A6564000000000000 PUSH1 0x0 DUP3 ADD MSTORE POP JUMP JUMPDEST PUSH32 0x796F75206861766520616C726561647920617070726F76656420746869732072 PUSH1 0x0 DUP3 ADD MSTORE PUSH32 0x6571756573740000000000000000000000000000000000000000000000000000 PUSH1 0x20 DUP3 ADD MSTORE POP JUMP JUMPDEST PUSH32 0x636F6E747269627574696F6E2073656E64206E6565647320746F206D65657420 PUSH1 0x0 DUP3 ADD MSTORE PUSH32 0x746865206D696E696D756D20636F6E747269627574696F6E20616D6F756E7400 PUSH1 0x20 DUP3 ADD MSTORE POP JUMP JUMPDEST PUSH2 0x14DC DUP2 PUSH2 0x10A7 JUMP JUMPDEST DUP2 EQ PUSH2 0x14E7 JUMPI PUSH1 0x0 DUP1 REVERT JUMPDEST POP JUMP JUMPDEST PUSH2 0x14F3 DUP2 PUSH2 0x10F7 JUMP JUMPDEST DUP2 EQ PUSH2 0x14FE JUMPI PUSH1 0x0 DUP1 REVERT JUMPDEST POP JUMP INVALID LOG2 PUSH5 0x6970667358 0x22 SLT KECCAK256 0xAA 0xB9 POP 0xC1 SWAP16 PUSH6 0x39238C2ACA25 0x4A JUMPDEST 0xBE 0xBC 0xE0 0xB4 0xB8 PUSH30 0xA4DFF0A4F49A505AD3686D0164736F6C63430008060033A2646970667358 0x22 SLT KECCAK256 0x23 CALLDATALOAD DUP16 PUSH10 0xC2459880E7FE0E4AF620 SWAP13 CREATE2 0xDD PUSH4 0x86C79938 0xAA 0xF 0xAC 0xCA CHAINID 0xB1 PUSH17 0xFCFAE964736F6C63430008060033000000 "},"gasEstimates":{"creation":{"codeDepositCost":"1350800","executionCost":"1410","totalCost":"1352210"},"external":{"createCampaign(uint256)":"infinite","getDeployedCampaigns()":"infinite"}},"methodIdentifiers":{"createCampaign(uint256)":"a3303a75","getDeployedCampaigns()":"4acb9d4f"}},"storageLayout":{"storage":[{"astId":4,"contract":"Campaign.sol:CampaignFactory","label":"deployedCampaigns","offset":0,"slot":"0","type":"t_array(t_address)dyn_storage"}],"types":{"t_address":{"encoding":"inplace","label":"address","numberOfBytes":"20"},"t_array(t_address)dyn_storage":{"base":"t_address","encoding":"dynamic_array","label":"address[]","numberOfBytes":"32"}}},"userdoc":{"kind":"user","methods":{},"version":1}}